:1000000000800020B9700000E5700000E57000007D
:10001000E5700000E5700000E5700000E57000008C
:10002000E5700000E5700000E5700000E57000007C
:10003000E5700000E5700000E5700000E57000006C
:10004000514D0000B52100000D200000E5700000BA
:10005000E5700000E570000075160000E570000016
:10006000E5700000E5700000E5700000E57000003C
:10007000E5700000E5700000E5700000E57000002C
:10008000E57000002D100000E5700000E570000034
:10009000E5700000E5700000E5700000E57000000C
:1000A00031320000E5700000090E0000E57000002C
:1000B000E5700000E570000039340000E5700000D4
:1000C000E5700000E5700000E5700000E5700000DC
:1000D000E5700000E5700000E5700000E5700000CC
:1000E00010B5054C237833B9044B13B10448AFF372
:1000F00000800123237010BD0001002000000000DB
:10010000589F000008B5064B1BB106480649AFF3DF
:1001100000800648036813B1054B03B1984708BD3A
:1001200000000000589F0000040100208C00002007
:1001300000000000154B002B08BF134B9D46A3F594
:10014000803A00218B460F461348144A121A09F0D0
:10015000C7FC0F4B002B00D098470E4B002B00D054
:1001600098470020002104000D000D48002802D00F
:100170000C48AFF3008009F08DFC2000290003F04B
:10018000ABF809F073FC00BF0000080000800020FD
:10019000000000000000000000010020CC0E002044
:1001A000000000000000000080B584B000AF0346EE
:1001B000FB71094BFA791A700748002101220323C9
:1001C00002F0EAFE02F05AFF0346FB73FB7B18467F
:1001D0001037BD4680BD00BF200100202DE9B04F83
:1001E000A4B000AFF720FFF7DFFF03461C03F820A1
:1001F000FFF7DAFF03461B011C43F920FFF7D4FF8A
:1002000003461B09DBB203F00F032343C7F88C300E
:100210006B4B1B681A464FEAE273B2F5FA3243F1B0
:10022000FF33C7E92023D7F88420D7F8803003FBB9
:1002300002F1D7F88420D7F8803003FB02F3194489
:10024000D7F88020D7F88030A2FB03454B191D4614
:100250005C4B1B8A1AB24FEAE27302FB05F004FB07
:1002600003F10144A4FB022319440B46C7E91E23F2
:10027000C7E91E23534BDB891AB24FEAE273D7F862
:10028000801003FB01F0D7F8841002FB01F1084451
:10029000D7F88010A1FB0223C1180B464FEA43494F
:1002A00049EAD2394FEA4248D7E91E2312EB080245
:1002B00043EB0903C7E91E23424B9B891AB24FEA5D
:1002C000E273D000F8660021B966D7E91E23D7E9AA
:1002D0001A45121943EB0503C7E91E23D7F88420FA
:1002E000D7F8803003FB02F1D7F88420D7F88030AC
:1002F00003FB02F31944D7F88020D7F88030A2FB23
:1003000003454B191D462F4B5B891AB24FEAE27326
:1003100002FB05F004FB03F10144A4FB0223194492
:100320000B46150A3D66D7F860C04CEA036CC7F867
:1003300060C018127866234B1B891AB24FEAE27329
:10034000D7F8801003FB01F0D7F8841002FB01F10D
:100350000844D7F88010A1FB0223C1180B464FEACE
:10036000033B4BEA125B4FEA023AD7E9182312EB40
:100370000A0243EB0B03C7E92023D7E92023101C13
:1003800043F500410F4BDB889AB24FF0000302FBAC
:1003900001F500FB03F42C44A0FB0223E1180B46FB
:1003A00059103963DC177C63D7E90C45C7E9204550
:1003B000D7E9202352EA030506D14FF0000301E1FB
:1003C0009003002060030020D7F88C30C3F5801321
:1003D0001A464FEAE273C7E91C23D7E91C234FEA08
:1003E000C37CC7F85CC0F86D40EA5200F865D107DD
:1003F000B965D7E91E23D7E91601801A61EB03011D
:1004000002460B46921843EB0303121843EB010319
:100410009C01FC62FD6A45EA9265FD624FEA821C1E
:10042000C7F828C0D7E90A45121943EB05039D0018
:100430007D62D7F824C04CEA927CC7F824C09400AF
:100440003C62D7E90823121843EB01039D00FD61CC
:10045000D7F81CC04CEA927CC7F81CC09400BC6161
:10046000D7E90623121843EB010310461946D7E9D2
:10047000202309F00BF802460B46C7E91C23544B16
:10048000DB8A18B24FEAE071D7E91C23550B3D65B2
:10049000D7F850C04CEAC34CC7F850C05C137C6519
:1004A0003D6D05FB01F2D7F854C000FB0CF313447B
:1004B0003A6DA0FB02452B441D46D7E91C234FEAA9
:1004C000523CC7F848C0B86C40EAC340B8645913FE
:1004D000F964BB6C03FB05F2D7F84CC004FB0CF3CA
:1004E000D118B86CA4FB002319440B46510E396196
:1004F0003C6944EAC3143C615D167D61D7E904455B
:10050000C7E92045324B9B8A1AB24FEAE273396F32
:1005100003FB01F0796F02FB01F10144386FA0FB8E
:10052000022319440B46D50CBD60D7F808C04CEA2D
:10053000433CC7F808C0D814F860D7E90245C7E9BA
:100540001E45D7E91C01D7E92023801841EB0301A0
:10055000D7E91E23121843EB0103150A3D64D7F8AF
:1005600040C04CEA036CC7F840C018127864184BBE
:100570005B8A1AB24FEAE2731901F963FC6B44EA31
:100580001274FC631501BD63D7E91023D7E90E454A
:10059000121943EB0503C7E91C23D7E91C23150AED
:1005A0003D60D7F800C04CEA036CC7F800C01812D1
:1005B0007860D7E90045C7E91C45D7E91C0108F078
:1005C0001BFD034618469037BD46BDE8B08F00BFFF
:1005D000600300200000000080B582B000AF4FF043
:1005E00000037B60FFF7FAFD034618461C4908F03C
:1005F000F5FD0346184608F0A9F802460B461046DA
:10060000194613A3D3E9002306F052FE02460B4617
:10061000104619464FF00002124B07F037FF024612
:100620000B46104619460CA3D3E9002308F0E2F864
:1006300002460B461046194608F0BEFB03467B6097
:100640007B6818460837BD4680BD00BFAFF3008009
:10065000C5C551B9895AC83F00000060C662E6C0EE
:1006600080E6C5470000F03F90B589B000AFFA20A2
:10067000FFF79AFD03461C03FB20FFF795FD034699
:100680001B011C43FB20FFF78FFD03461B09DBB258
:1006900003F00F032343FB61FB69DA10214B1B8836
:1006A0005B00D31A1F4A528812B202FB03F3DB121B
:1006B0001A464FEAE273C7E90423FB691A11194B82
:1006C0001B88D31AFA691111164A12888A1A02FB7A
:1006D00003F31B13134A928812B202FB03F39B131A
:1006E0001A464FEAE273C7E902233A69BB6813442A
:1006F0001A460D4B1A600C4B1A6813469B001344A4
:1007000080331B12184608F061FC03467B60786852
:10071000064908F063FD03467B607B681846243772
:10072000BD4690BD60030020900300200000C84239
:1007300090B583B000AFFD20FFF736FD03461C02E5
:10074000FE20FFF731FD034623437B602C4B1B68E3
:10075000A3F596333B607B689A032A4BDB8B1BB275
:100760001B05D21A274B1B8C1BB2396801FB03F304
:10077000D31A03F58043DB13224A92F8222039680A
:1007800001FB02F292121F49097F386800FB01F158
:10079000C91201F5004101FB02F2921202F50012AA
:1007A0001849498B09B201FB02F202F5005292137B
:1007B00002FB03F33B603B68DB133A68D21302FB96
:1007C00003F3DB110F4A127E02FB03F31B113A689D
:1007D000D31A3B603B6823EAE3733B603B68B3F1A9
:1007E000C85FA8BF4FF0C8533B603B689B151846D5
:1007F00008F0ECFB034618460C37BD4690BD00BF21
:10080000900300206003002080B582B000AF1C4B35
:10081000F4221A701A4B00225A7019480121022240
:10082000032302F0B9FB164BF5221A700023FB716B
:10083000134BFA795A70124801210222032302F065
:10084000ABFB0F4BF2221A700023FB710C4BFA79B1
:100850005A700B4801210222032302F09DFB084B32
:10086000F4221A700023FB71054BFA795A70044880
:1008700001210222032302F08FFB0837BD4680BD11
:100880001C01002080B483B000AF03463960FB71C7
:10089000FB79002B0DD0FB79012B0AD0FB79022BC1
:1008A00007D0FB79032B04D0FB79042B01D0FB7913
:1008B000052B0948FA793B68012101FA03F319462F
:1008C0001346DB0013449B000344103359600C377C
:1008D000BD465DF8047B70470060004080B483B083
:1008E00000AF03463960FB71FB79002B0DD0FB791B
:1008F000012B0AD0FB79022B07D0FB79032B04D004
:10090000FB79042B01D0FB79052B0948FA793B6868
:10091000012101FA03F319461346DB0013449B003F
:100920000344103319600C37BD465DF8047B7047F3
:100930000060004080B483B000AF03463960FB71B3
:10094000FB79002B0DD0FB79012B0AD0FB79022B10
:1009500007D0FB79032B04D0FB79042B01D0FB7962
:10096000052B0948FA793B68012101FA03F319467E
:100970001346DB0013449B000344183319600C3703
:10098000BD465DF8047B70470060004080B582B0D2
:1009900000AF0346FB713248012103F013FD022032
:1009A00006210022002304F0F3FD0420022104228A
:1009B000002304F0EDFD042003210422002304F0B1
:1009C000E7FD022005210822012304F0E1FD0220B9
:1009D00004210822012304F0DBFD01200C21082260
:1009E000012304F0D5FD01200B210822012304F08E
:1009F000CFFD032001210122002304F0C9FD0320C3
:100A000000210422002304F0C3FD032007210B2250
:100A1000012304F0BDFD032006210B22012304F075
:100A2000B7FD0420012104F015FD0320012104F08D
:100A300011FD032004210422012304F0A9FD032059
:100A400005210422012304F0A3FD02200621012236
:100A5000012304F09DFD002318460837BD4680BDE4
:100A600000D2040080B582B000AF0B463A60024667
:100A7000FA71BB71FB79002B05D1BB791846396837
:100A8000FFF72CFF13E0FB79012B05D1BB7918464A
:100A90003968FFF7F7FE0AE0FB79022B05D1BB7935
:100AA00018463968FFF746FF01E0012300E0002304
:100AB00018460837BD4680BD80B483B000AF0346FA
:100AC000FB71FB79002B06D0084B084AD26842F034
:100AD0000102DA6005E0054B044AD26822F0010207
:100AE000DA600C37BD465DF8047B704700A0084013
:100AF00080B500AF034805F037FA034805F010FA57
:100B000080BD00BF1C9B0000349B000080B582B0FC
:100B100000AF7860002002F099FD786802F0F2FDE5
:100B2000FFF7E6FF0020FFF7C7FF1A2005F0ECFCF7
:100B30000837BD4680BD00BF80B483B000AF034618
:100B4000FB71084B97F907205209F97901F01F0151
:100B5000012000FA01F143F822100C37BD465DF880
:100B6000047B704700E100E080B485B000AF78609E
:100B700039607B6803F10473DA003B6813449B001F
:100B8000FB60FB681B6818461437BD465DF8047BA4
:100B9000704700BF80B582B000AF03463960FB717B
:100BA000FB79002B0DD0FB79012B0AD0FB79022BAE
:100BB00007D0FB79032B04D0FB79042B01D0FB7900
:100BC000052BFA791346DB0013449B000C3303F129
:100BD000804303F5C04318463968FFF7C5FF034655
:100BE00018460837BD4680BD80B400AF72B6084BCA
:100BF0001B68B3F1FF3F04D0054B1B685A1C044B24
:100C00001A60034B1B681846BD465DF8047B7047AD
:100C10005C03002080B483B000AF0C4B1B68002B3A
:100C20000DD00A4B1B685A1E084B1A60074B1B68F5
:100C30007B607B68002B00D162B67B6800E00023FC
:100C400018460C37BD465DF8047B70475C030020F6
:100C500080B483B000AF786039607B683A689A628C
:100C60000C37BD465DF8047B704700BF80B483B08D
:100C700000AF786039607B68DA6A3B681A437B684A
:100C8000DA620C37BD465DF8047B704780B483B0F0
:100C900000AF78600B46FB70FA787B685A600C37BF
:100CA000BD465DF8047B704780B483B000AF7860C8
:100CB000034B7A685A640C37BD465DF8047B704775
:100CC00000C0084080B400AF034B1B6C1846BD4603
:100CD0005DF8047B704700BF00C0084000000000C2
:100CE00080B588B000AF0346FB7101233B7300233E
:100CF0007B730023BB730023FB7300233B7400232F
:100D00007B740023BB740023FB7400233B7500231A
:100D10007B750023BB750223FB61FB6903F00F03A6
:100D20001B02FB61344B344A916EFA690A439A669E
:100D3000324B9B6A31481946FFF78AFF2F48012141
:100D4000FFF794FFFB79032B25D12D4B1B68184629
:100D500007F0DAFC02460B461046194624A3D3E9F5
:100D6000002307F047FD02460B461046194607F0E0
:100D7000DBFF0346BB61BB69204800211A4605F032
:100D800027FFBB69C3F57F43FF331C4800211A4688
:100D900005F01EFF14E0FB79002B05D0FB79012B39
:100DA00002D0FB79022B09D143F61F03BB61BB695B
:100DB000124800211A4605F00BFF01E0012310E064
:100DC00007F10C030D48194605F044FF1A20FFF700
:100DD000B3FE0A48012105F027FF022002F062FD60
:100DE000002318462037BD4680BD00BFAFF300800A
:100DF00096438B6CE7FB184000800C4000200840B5
:100E000094030020AFF3008080B584B002AF0023CC
:100E10007B60FFF7E9FE022002F044FD3348012128
:100E2000FFF716FF324B9B6803F002035A08314B61
:100E30001A60314B1B68002B29D12F4B01221A60FD
:100E40002A4B0022DA602D4B00221A602C4B1B78B3
:100E5000002B03D12A4B01221A7011E0284B1B787A
:100E6000012B03D1264B02221A7009E0244B1B7878
:100E7000022B05D1032002F015FD214B00221A7030
:100E80001A4800214FF6DE7205F0A2FE0FE01A4B61
:100E90001B68012B0BD1184B00221A60134B002248
:100EA000DA601248002143F61F0205F091FE124B52
:100EB0001B68012B11D1012002F0F4FC114B0093AF
:100EC00040F2F31301930020012100220E4B03F0A6
:100ED000ABFF0E480121FFF7D9FE0D4B00221A701F
:100EE000FFF798FE0837BD4680BD00BF00200840D0
:100EF00000100040980300202C0100202801002051
:100F000030010020242000409C03002000200040ED
:100F10000000002080B588B000AFF8600B467A6012
:100F2000FB7200237B610023FB614FF000033B61F8
:100F3000364B364A526842F002025A60012002F0F3
:100F4000C7FC0023BB610BE0314BBA6933F81230A8
:100F50009BB21BB2FA691344FB61BB690133BB61ED
:100F6000BB69B3F5FA7FEFDBFB692A4A82FB031208
:100F70005211DB17D31AFB61F86901F055F838619B
:100F80003869254908F014FA0346002B06D1386960
:100F9000224908F02BFA0346002B05D0002004213B
:100FA0000322FFF75FFD04E0012004210322FFF785
:100FB00059FD38691A4908F05DF80346184608F0EB
:100FC00045FA0146174BA3FB0123DA0813469B00A1
:100FD00013445B00CA1A7A6104200221FFF7DAFD8C
:100FE0000246114B1A60386908F00AFA0346DBB270
:100FF0005BB2184602F0F2F80B4B1B687869194691
:1010000002F0FCF82037BD4680BD00BF0020004044
:101010009C030020D34D62100000704100000C4280
:1010200000002041CDCCCCCC2401002080B586B07E
:1010300000AFFFF7D9FD00237B82784B1B8801337B
:101040009AB2764B1A80754B1B88032B05D1734BD4
:1010500000221A80FFF7DEFDDDE0714BDA6C714B88
:101060001A60FFF72FFEF860F868FFF71DFE0023F7
:10107000FB750BE0FB7DFA6822FA03F303F0010332
:10108000002B00D005E0FB7D0133FB75FB7D0F2BB2
:10109000F0D9634B9B69BB60614BFA7D012101FA7A
:1010A00002F29A6101237B750023BB7519E005F0FC
:1010B000FFFC00BF5A4B1B6A03F01003002BF9D151
:1010C000574BDB697B60FB7D012202FA03F31A4672
:1010D0007B681340002B01D100237B75BB7D01335E
:1010E000BB75BB7D092BE2D94D4BBA689A617B7DFC
:1010F000002B6BD04A4AFB7D1B01134403F532736E
:101100001B6803F48033002B31D0FB7D012202FAEF
:1011100003F39BB2DB439AB2434B1B889BB2134051
:101120009BB29AB2404B1A803D49FB7D3C48FA7D08
:101130001201024402F53272126822F480321B015D
:101140000B4403F532731A60354AFB7D1B011344CF
:1011500003F532731B687B807B88013B7B80FA7DC3
:101160007B88104600211A4605F056FC2EE0FB7DD8
:10117000012202FA03F39AB22B4B1B889BB2134352
:101180009BB29AB2284B1A802549FB7D2448FA7DF0
:101190001201024402F53272126842F480321B01DD
:1011A0000B4403F532731A601D4AFB7D1B01134487
:1011B00003F532731B687B807B8801337B80FA7D6B
:1011C0007B88104600211A4605F026FC164B1B882A
:1011D0007B82164B7A8A1A80144B1B88B3F5806F7A
:1011E00006D91348FFF792FC124B01221A7010E047
:1011F0000E4B1B88B3F5806F0BD20E4B1B78002B68
:1012000007D1012004210222FFF72CFC0A48FFF736
:101210007DFCFFF7FFFC1837BD4680BD3201002082
:1012200000C00840C00E002034010020360100201C
:10123000409B000000000020489B000080B584B067
:1012400000AFF860B9607A607B68012B0ED1FB6853
:10125000DAB2104B1A70BB68DAB20E4B5A700D48F6
:1012600001210222012301F097FE10E07B68002B90
:101270000DD1FB68DAB2074B1A70BB68DAB2054BC6
:101280005A70044801210222022301F085FE103722
:10129000BD4680BD3801002080B584B000AF7860C5
:1012A00039603B68012B0AD17B68DAB20F4B1A70A8
:1012B0000E4800210122012301F06EFE0CE03B6884
:1012C000002B09D17B68DAB2084B1A70074800215D
:1012D0000122022301F060FE01F0D0FE0346FB6014
:1012E000FB6818461037BD4680BD00BF3C0100209A
:1012F00080B584B000AF786020200021FFF7CCFFDC
:10130000F860FB6823F01C03FB607A68FB681343FA
:101310007B607B68202019460022FFF78FFF103783
:10132000BD4680BD80B584B000AF7860212000212B
:10133000FFF7B2FFF860FB6823F06003FB607A6898
:10134000FB6813437B607B68212019460022FFF76E
:1013500075FF1037BD4680BD80B584B000AF7860A2
:1013600024200021FFF798FFF860FB6823F040037A
:10137000FB607A68FB6813437B607B682420194616
:101380000022FFF75BFF1037BD4680BD80B584B0FB
:1013900000AF786020200021FFF77EFFF860FB6837
:1013A00023F06003FB607A68FB6813437B607B6813
:1013B000202019460022FFF741FF1037BD4680BDAF
:1013C00080B584B000AF786023200021FFF764FF70
:1013D000F860FB6823F00C03FB607A68FB6813433A
:1013E0007B607B68232019460022FFF727FF103718
:1013F000BD4680BD80B584B000AF7860222000215A
:10140000FFF74AFFF860FB6823F00303FB607A688C
:10141000FB6813437B607B68222019460022FFF79C
:101420000DFF1037BD4680BD80B584B000AF786039
:1014300023200121FFF730FFF860FB6823F0300321
:10144000FB607A68FB6813437B607B682320194646
:101450000122FFF7F3FE1037BD4680BD80B584B092
:1014600000AF786020200121FFF716FFF860FB68CD
:1014700023F00803FB607A68FB6813437B607B689A
:10148000202019460122FFF7D9FE1037BD4680BD46
:1014900080B584B000AF786020200121FFF7FCFE0A
:1014A000F860FB6823F00703FB607A68FB6813436E
:1014B0007B607B68202019460122FFF7BFFE1037B2
:1014C000BD4680BD80B584B000AF7860202001218A
:1014D000FFF7E2FEF860FB6823F06003FB607A68C8
:1014E000FB6813437B607B68202019460122FFF7CD
:1014F000A5FE1037BD4680BD80B500AF1820FFF7B0
:10150000F7FE6020FFF70EFF4020FFF725FF402089
:10151000FFF73CFF0820FFF753FF0020FFF76AFFAB
:101520000020FFF781FF0820FFF798FF0720FFF753
:10153000AFFF3020FFF7C6FF80BD00BF80B400AF13
:101540001846BD465DF8047B704700BF80B582B089
:1015500000AF0023FB710023BB7128200121FFF79E
:101560009BFE0346BB7129200121FFF795FE034630
:10157000FB7197F907301B029AB297F906309BB2BC
:1015800013439AB2194B1A802A200121FFF784FED7
:101590000346BB712B200121FFF77EFE0346FB7142
:1015A00097F907301B029AB297F906309BB21343A2
:1015B0009AB20E4B5A802C200121FFF76DFE034694
:1015C000BB712D200121FFF767FE0346FB7197F9E0
:1015D00007301B029AB297F906309BB213439AB2B6
:1015E000024B9A800837BD4680BD00BF6C0B0020BF
:1015F00080B483B000AF786039607B683A689A61E4
:101600000C37BD465DF8047B704700BF80B400AF67
:1016100072B6084B1B68B3F1FF3F04D0054B1B6843
:101620005A1C044B1A60034B1B681846BD465DF8F4
:10163000047B70475C03002080B483B000AF0C4B88
:101640001B68002B0DD00A4B1B685A1E084B1A60F2
:10165000074B1B687B607B68002B00D162B67B6800
:1016600000E0002318460C37BD465DF8047B704748
:101670005C03002080B500AFFFF7C8FF03480121DD
:10168000FFF7B6FFFFF7D8FF80BD00BF0010004096
:1016900080B586B000AF2548012102F093FE2448B2
:1016A000012102F08FFE00233B7400237B74002392
:1016B000BB741F23FB7400233B7500237B75002341
:1016C0003B7100237B710023BB710023FB7100235E
:1016D0003B7200237B720023BB720023FB7200234A
:1016E0003B731448002102F08BFA03463B7500203F
:1016F00002F0B8FA0346FB7407F110030E481946CE
:1017000002F0EEF908233B720023BB710023FB714A
:1017100000237B7101233B733B1D0748194602F0F0
:1017200023FA002318461837BD4680BD40810400C7
:101730000002050020D613000020004080B584B0D0
:1017400000AF0346FB71094BFA791A700748002174
:101750000122032301F020FC01F090FC0346FB73FF
:10176000FB7B18461037BD4680BD00BF40010020FE
:1017700098B500AF8920FFF7E1FF03461B029CB23A
:101780008820FFF7DBFF034623449AB2784B1A8088
:101790008B20FFF7D3FF03461B029CB28A20FFF782
:1017A000CDFF034623449BB29AB2714B5A808D20E1
:1017B000FFF7C4FF03461B029CB28C20FFF7BEFF5D
:1017C000034623449BB29AB2694B9A808F20FFF75D
:1017D000B5FF03461B029CB28E20FFF7AFFF034606
:1017E00023449AB2624BDA809120FFF7A7FF0346A9
:1017F0001B029CB29020FFF7A1FF034623449BB23B
:101800009AB25B4B1A819320FFF798FF03461B02A5
:101810009CB29220FFF792FF034623449BB29AB2F8
:10182000534B5A819520FFF789FF03461B029CB258
:101830009420FFF783FF034623449BB29AB24C4B9C
:101840009A819720FFF77AFF03461B029CB29620ED
:10185000FFF774FF034623449BB29AB2444BDA81EC
:101860009920FFF76BFF03461B029CB29820FFF7FD
:1018700065FF034623449BB29AB23D4B1A829B20DC
:10188000FFF75CFF03461B029CB29A20FFF756FF4E
:10189000034623449BB29AB2354B5A829D20FFF7F0
:1018A0004DFF03461B029CB29C20FFF747FF0346F7
:1018B00023449BB29AB22E4B9A829F20FFF73EFFA1
:1018C00003461B029CB29E20FFF738FF03462344C9
:1018D0009BB29AB2264BDA82A120FFF72FFF034674
:1018E0001A46234B1A76E220FFF728FF03461B0215
:1018F0009CB2E120FFF722FF034623449BB29AB239
:101900001B4B5A83E320FFF719FF03461A46184B77
:101910001A77E420FFF712FF03461B019CB2E52073
:10192000FFF70CFF034603F00F039BB223449BB267
:101930009AB20F4BDA83E620FFF700FF03461B0144
:101940009CB2E520FFF7FAFE03461B09DBB203F069
:101950000F039BB223449BB29AB2054B1A84E72033
:10196000FFF7ECFE03461A46014B83F8222098BD90
:101970006003002080B483B000AF0346FB71084BC6
:1019800097F907205209F97901F01F01012000FAA7
:1019900001F143F822100C37BD465DF8047B704717
:1019A00000E100E080B500AF05F0ACFB80BD00BFFA
:1019B00080B400AF72B6084B1B68B3F1FF3F04D090
:1019C000054B1B685A1C044B1A60034B1B681846D6
:1019D000BD465DF8047B70475C03002080B483B093
:1019E00000AF0C4B1B68002B0DD00A4B1B685A1E16
:1019F000084B1A60074B1B687B607B68002B00D18B
:101A000062B67B6800E0002318460C37BD465DF8DF
:101A1000047B70475C03002080B483B000AF786023
:101A2000064B7A6802F00F02A03253F822301846B3
:101A30000C37BD465DF8047B704700BF00C008400E
:101A400080B584B000AF7860304B00221A80304BF4
:101A500000221A700023FB7336E0FA7B2D4B002125
:101A600023F81210FA7B2C4B4FF6FF7123F812105B
:101A7000FB7B9B007A6813441B6818464FF00001FB
:101A800007F08CFC0346002B1BD1FA7BFB7B9B00F1
:101A900079680B441968214B43F82210FB7B012223
:101AA00002FA03F39AB2194B1B889BB213439BB201
:101AB0009AB2164B1A80164B1B780133DAB2144BCC
:101AC0001A70FB7B0133FB73FB7B0F2BC5D9FFF730
:101AD0006FFF00F031F800F0ADF800F063F800F0AF
:101AE00073F80023FB7306E004F0E2FF00F0C4F893
:101AF000FB7B0133FB73FB7B632BF5D901F0A8FC67
:101B0000FFF76CFF1037BD4680BD00BFC802002044
:101B1000CA02002088020020A8020020CC02002077
:101B200080B400AF034B1B889BB21846BD465DF8DE
:101B3000047B70478402002080B500AFFFF732FFBE
:101B40001048012102F03EFC0F48012102F03AFC4E
:101B50000E48012102F036FC0D48022102F038FE49
:101B60000C48012102F02EFC0B48012102F02AFC56
:101B70000A48012102F026FC0948012102F028FE52
:101B800080BD00BF0092040000A2040000D2040047
:101B900002001800004302006006280060161000D2
:101BA00003001A0080B500AF0448054901F0C2FEE9
:101BB0000448034901F0BEFE80BD00BF0010004094
:101BC000909B00000014004080B582B000AF164822
:101BD000012104F0D7FC0023FB7111E0134B1B889B
:101BE0001A46FB7942FA03F303F00103002B04D0F9
:101BF000FB790F48194604F03FFEFB790133FB7176
:101C0000FB790F2BEAD90020052104F06FFD00209D
:101C1000002104F001FE1120FFF7ACFE04F048FFA4
:101C20000837BD4680BD00BFA49B0000C80200204D
:101C3000E49B000080B582B000AF00237B6012E01F
:101C40000C4B1B881A467B6842FA03F303F001032E
:101C5000002B05D0022079680022002303F098FCB5
:101C60007B6801337B607B680F2BE9D90837BD4661
:101C700080BD00BFC8020020F0B585B000AF00BF36
:101C8000624B1B6A03F01003002BF9D15F4B5B6AB8
:101C900003F4F0735B09BB605D4B1B781A46BB68AD
:101CA0009A4205DC5A4B1B78BA68D31ABB6005E030
:101CB000574B1B78BA68D31A1033BB600023FB6004
:101CC00021E0544B1B881A46FB6842FA03F303F0E9
:101CD0000103002B14D0504B1B781C46BB685A1CC8
:101CE000BA601846FFF798FE034698B24B49FA6867
:101CF00013469B0013445B002344024621F8132043
:101D0000FB680133FB60FB680F2BDADD424B1B786D
:101D10000133DAB2404B1A703F4B1B78092B02D9C2
:101D20003D4B00221A700023FB6068E0394B1B8892
:101D30001A46FB6842FA03F303F00103002B5BD061
:101D4000FA6813469B0013449B00344A1344184618
:101D50000A2100F06DF803461946314BFA6823F862
:101D60001210FA6813469B0013449B002B4A13443D
:101D700018460A2100F084F803461946294BFA68F0
:101D800023F81210264BFA6833F81230FB80FB68F8
:101D9000DEB2FB88184606F0C7FC04460D46FB88F9
:101DA000184607F013F902461F4BF96853F8213023
:101DB0001046194607F05EF90346184606F0C6FCC1
:101DC00002460B46104619464FF00002174B06F02C
:101DD0003BFE02460B462046294606F057FB0246CC
:101DE0000B461046194606F0C7FF03469BB2304625
:101DF00000211A4604F010FEFB680133FB60FB680B
:101E00000F2B93DD1437BD46F0BD00BF00C0084066
:101E1000CA020020C80200200C0300204401002058
:101E200088020020A8020020CC02002000005940B7
:101E300080B485B000AF78600B467B8000237B8147
:101E40000023FB6011E0FB685B007A6813441B8889
:101E50009BB27A899A4205D2FB685B007A68134488
:101E60001B887B81FB680133FB607A88FB689A42A0
:101E7000E9DC7B8918461437BD465DF8047B704762
:101E800080B485B000AF78600B467B804FF6FF735F
:101E90007B810023FB6011E0FB685B007A681344E0
:101EA0001B889BB27A899A4205D9FB685B007A68E5
:101EB00013441B887B81FB680133FB607A88FB68D5
:101EC0009A42E9DC7B8918461437BD465DF8047BED
:101ED000704700BFB0B590B000AF0D4B3C461D46FB
:101EE0000FCD0FC40FCD0FC40FCD0FC495E80F0059
:101EF00084E80F003B461846FFF7A2FD00BFFFF73E
:101F00000FFE0346002BFAD14037BD46B0BD00BFDF
:101F1000509B000080B483B000AF786039607B686C
:101F20003A689A610C37BD465DF8047B704700BF84
:101F300080B400AF72B6084B1B68B3F1FF3F04D00A
:101F4000054B1B685A1C044B1A60034B1B68184650
:101F5000BD465DF8047B70475C03002080B483B00D
:101F600000AF0C4B1B68002B0DD00A4B1B685A1E90
:101F7000084B1A60074B1B687B607B68002B00D105
:101F800062B67B6800E0002318460C37BD465DF85A
:101F9000047B70475C03002080B582B000AF03462D
:101FA000FB71FB79002B05D0FB79012B02D0FB796B
:101FB000022B09D100200121012202F083FD1048EB
:101FC000022102F005FC0EE0FB79032B09D105206C
:101FD0000121012202F076FD0948092102F0F8FBF7
:101FE00001E0012308E00748012102F0EBF906486F
:101FF000012102F0E7F9002318460837BD4680BDED
:1020000002001800004302006026120080B500AFF5
:10201000FFF78EFF03480121FFF77CFFFFF79EFFCC
:1020200080BD00BF0000014080B586B000AF786081
:10203000164B1B6803F47F031B0C184606F0C2FF07
:1020400003467B61124B1B681B0D184606F0BAFF56
:1020500003463B610F4BFB60786806F0B7FF034611
:102060003869194606F0FCFE03461846F96807F081
:10207000B5F803467869194606F0F2FE0346BB60E0
:10208000BB6818461837BD4680BD00BFB081E00F61
:10209000BC81E00FD7A3C8C080B588B000AF1D4891
:1020A000012102F08FF900233B761B4BFB6107F106
:1020B0001803184602F058FF00233B7101237B717F
:1020C0004FF40023BB60154BFB60144B144A1A609D
:1020D000124B01221A72114B00225A603B1D002044
:1020E000194602F0C1FE01233B7403237B740123D4
:1020F000BB740023FB7400233B7507F11003002021
:1021000001211A4602F0F8FE002318462037BD468A
:1021100080BD00BF00030200000C00207C0B0020EB
:10212000150F000080B483B000AF0346FB71084B6D
:1021300097F907205209F97901F01F01012000FAEF
:1021400001F143F822100C37BD465DF8047B70475F
:1021500000E100E080B483B000AF0346FB71094B9F
:1021600097F907205209F97901F01F01012000FABF
:1021700001F1603243F822100C37BD465DF8047B54
:10218000704700BF00E100E080B584B002AF396065
:102190000146F971BA717B71FA79BB79797900914D
:1021A000397C0191104639683A6803F08BF9083799
:1021B000BD4680BD80B582B000AF00F0FBFC034699
:1021C000FB710837BD4680BD80B582B002AF0123E8
:1021D00000930220062100220123FFF7D5FF0120F2
:1021E000FFF7B8FF0120FFF79DFFBD4680BD00BF90
:1021F00080B584B000AF0346FB71094BFA791A70C1
:10220000074800210122042300F0C6FE00F036FF3B
:102210000346FB73FB7B18461037BD4680BD00BFED
:102220001403002080B582B000AFD64B80221A7014
:10223000D44B00225A70D34801210222042300F01B
:10224000ABFED04B81221A70CE4BDB225A70CD48A8
:1022500001210222042300F09FFECA4B83221A7040
:10226000C84BFF225A70C74801210222042300F004
:1022700093FEC44B8E221A70C24B89225A70C148F9
:1022800001210222042300F087FEBE4B9D221A701A
:10229000BC4B00225A70BB4801210222042300F0EB
:1022A0007BFEB84B9E221A70B64B00225A70B5487E
:1022B00001210222042300F06FFEB24B8D221A701E
:1022C000B04B60225A70AF4801210222042300F073
:1022D00063FE0023FB71FB7903F00303FB71FB79C1
:1022E0009B01FB718F20FFF783FF0346BB71BB7916
:1022F00003F03F03BB71BA79FB791343BB71A14B68
:102300008F221A709F4BBA795A709E48012102227F
:10231000042300F041FE0223FB71FB7903F0030369
:10232000FB71FB799B01FB718F20FFF761FF034677
:10233000BB71BB7903F03F03BB71BA79FB791343DF
:10234000BB71904B8F221A708E4BBA795A708D48A0
:1023500001210222042300F01FFE0123FB71FB79FF
:1023600003F00303FB718F20FFF742FF0346BB71AD
:10237000BB7923F00303BB71BA79FB791343BB71BB
:10238000804B8F221A707F4BBA795A707D48012199
:102390000222042300F000FE7A4B89221A70794B46
:1023A00000225A70774801210222042300F0F4FD34
:1023B000744B8B221A70734B32225A707148012170
:1023C0000222042300F0E8FDFF237B71FF233B7111
:1023D0006C4B84221A706B4B7A795A7069480121D0
:1023E0000222042300F0D8FD664B85221A70654B4B
:1023F0003A795A70634801210222042300F0CCFD8F
:1024000000237B7100233B715E4B86221A705D4B6B
:102410007A795A705B4801210222042300F0BCFD46
:10242000584B87221A70574B3A795A7055480121F8
:102430000222042300F0B0FD524B8C221A70514B43
:10244000A1225A704F4801210222042300F0A4FD6A
:102450004C4B90221A704B4B01225A704948012173
:102460000222042300F098FD464B9F221A70454B30
:1024700000225A70434801210222042300F08CFDFF
:10248000404BA0221A703F4B28225A703D48012130
:102490000222042300F080FD3A4BA1221A70394B2E
:1024A0001E225A70374801210222042300F074FDD5
:1024B000344BA2221A70334B40225A70314801210A
:1024C0000222042300F068FD0223FB70FB7803F076
:1024D0000303FB70FB785B01FB70A320FFF788FE12
:1024E0000346BB71BB7923F06003BB71BA79FB78FB
:1024F0001343BB71234BA3221A70224BBA795A7033
:10250000204801210222042300F046FD0023FB7134
:10251000FB7903F00303FB71FB79DB00FB71A32064
:10252000FFF766FE0346BB71BB7923F01803BB714E
:10253000BA79FB791343BB71124BA3221A70114B6A
:10254000BA795A700F4801210222042300F024FDB9
:102550000123FB71FB7903F00703FB71A320FFF755
:1025600047FE0346BB71BB7923F00703BB71BA7901
:10257000FB791343BB71034BA3221A70014BBA7949
:102580005A7001E010030020714801210222042347
:1025900000F002FD6E4BA4221A706D4B00225A709F
:1025A0006B4801210222042300F0F6FC684BA522AF
:1025B0001A70674B00225A706548012102220423D9
:1025C00000F0EAFC624BA7221A70614B00225A709D
:1025D0005F4801210222042300F0DEFC5C4BA922AB
:1025E0001A705B4B00225A705948012102220423C1
:1025F00000F0D2FC564BA6221A70554BC9225A70D5
:10260000534801210222042300F0C6FC504BAA22A9
:102610001A704F4B00225A704D48012102220423A8
:1026200000F0BAFC0023FB71FB7903F00103FB719E
:10263000FB795B00FB71AB20FFF7DAFD0346BB7152
:10264000BB7923F00203BB71BA79FB791343BB71E9
:102650003F4BAB221A703E4BBA795A703C4801216D
:102660000222042300F098FC0023BB710323FB71BA
:10267000FB7903F00303FB71FB791B01FB719020D5
:10268000FFF7B6FD0346BB71BB7923F03003BB7186
:10269000BA79FB791343BB712D4B90221A702C4BE6
:1026A000BA795A702A4801210222042300F074FCEE
:1026B0000123FB71FB7903F00103FB71FB795B00E4
:1026C000FB71AB20FFF794FD0346BB71BB7923F090
:1026D0000203BB71BA79FB791343BB711C4BAB226C
:1026E0001A701B4BBA795A7019480121022204232F
:1026F00000F052FC0123FB71FB7903F00103FB7135
:10270000AB20FFF775FD0346BB71BB7923F00103D6
:10271000BB71BA79FB791343BB710D4BAB221A70B5
:102720000B4BBA795A700A4801210222042300F0A7
:1027300033FC074B80221A70054B4D225A70044817
:1027400001210222042300F027FC0837BD4680BD8A
:102750001003002098B500AF684B1B68B3F1FF3F32
:102760000AD1674B1B68002B06D1664B02221A6008
:102770006548FEF7CBF9C0E0604B1B68012B0AD11E
:102780005F4B1B68002B06D15E4B03221A605F482B
:10279000FEF7BCF9B1E0594B1B68002B0AD1584B2E
:1027A0001B68012B06D1574B01221A605848FEF7CF
:1027B000ADF9A2E0514B1B68002B0BD1504B1B68AD
:1027C000B3F1FF3F06D14F4B00221A605148FEF78C
:1027D0009DF992E0494B1B68B3F1FF3F1FD1484B75
:1027E0001B68012B1BD14C4B1B68184607F034F9B2
:1027F00004464A4B1B68184607F02EF903469C42D4
:1028000006DD404B02221A603F48FEF77FF974E074
:102810003C4B01221A603E48FEF778F96DE0374BD9
:102820001B68012B20D1364B1B68B3F1FF3F1BD136
:10283000394B1B68184607F00FF90446374B1B68E5
:10284000184607F009F903469C4206DD2D4B03228A
:102850001A602E48FEF75AF94FE02A4B00221A6000
:102860002C48FEF753F948E0244B1B68B3F1FF3FB7
:1028700020D1234B1B68B3F1FF3F1BD1264B1B68B4
:10288000184607F0E9F80446244B1B68184607F081
:10289000E3F803469C4206DD1A4B02221A601A48EE
:1028A000FEF734F929E0174B00221A601948FEF7A9
:1028B0002DF922E0114B1B68012B1ED1104B1B6818
:1028C000012B1AD1144B1B68184607F0C5F80446B3
:1028D000124B1B68184607F0BFF803469C4206DD02
:1028E000084B03221A600948FEF710F905E0054B72
:1028F00001221A600648FEF709F998BD940E0020DF
:10290000080E0020900E0020049C0000089C00008F
:10291000109C0000189C0000040E0020000E0020F7
:1029200080B48BB000AF002387F82730002387F8EE
:102930002630002387F82530002387F82430002331
:1029400087F82330002387F82230002387F82130CE
:10295000002387F820300023FB6139E0834AFB69BC
:1029600013441B780A2B30D9804AFB691344203367
:102970001B780A2B29D97D4AFB69134440331B7805
:102980000A2B22D9794AFB69134460331B780A2B3E
:102990001BD9764AFB6913441B7887F82730734AA2
:1029A000FB69134420331B7887F826306F4AFB6994
:1029B000134440331B7887F825306C4AFB69134475
:1029C00060331B7887F8243009E0FB690133FB6131
:1029D000664B93F881301A46FB699A42BEDC634B22
:1029E00093F88130013BFB6139E0604AFB69134495
:1029F0001B780A2B30D95D4AFB69134420331B78BE
:102A00000A2B29D9594AFB69134440331B780A2BF6
:102A100022D9564AFB69134460331B780A2B1BD911
:102A2000524AFB6913441B7887F823304F4AFB69ED
:102A3000134420331B7887F822304C4AFB69134437
:102A400040331B7887F82130484AFB6913446033D0
:102A50001B7887F8203005E0FB69013BFB61FB69CF
:102A6000002BC2DA97F8272097F82630D31A642271
:102A700002FB03F297F8271097F826300B4492FBDD
:102A8000F3F3BB6197F8252097F82430D31A64221A
:102A900002FB03F297F8251097F824300B4492FBC1
:102AA000F3F37B6197F8232097F82230D31A64223E
:102AB00002FB03F297F8231097F822300B4492FBA5
:102AC000F3F33B6197F8212097F82030D31A642262
:102AD00002FB03F297F8211097F820300B4492FB89
:102AE000F3F3FB603A69BB69D31ABB60FA687B6990
:102AF000D31A7B601E4B1A68BB681A441C4B1A60C1
:102B00001C4B1A687B681A441A4B1A60184B1B68D6
:102B1000312B03DD184B01221A600CE0144B1B68AB
:102B200013F1310F04DA144B4FF0FF321A6002E058
:102B3000114B00221A600F4B1B68312B03DD0F4B2A
:102B400001221A600CE00B4B1B6813F1310F04DA01
:102B50000A4B4FF0FF321A6002E0084B00221A6065
:102B60002C37BD465DF8047B704700BF0C0E00207B
:102B7000040E0020000E0020940E0020080E0020FD
:102B800080B485B000AF0346FB710023FB600023D7
:102B9000FB6002E0FB680133FB60FB79FA7902FB22
:102BA00003F2FB689A42F5DC1437BD465DF8047BFE
:102BB000704700BF90B5A3B000AF002387F8833003
:102BC0001E20FFF7DDFFAF20FFF712FB034687F85B
:102BD000823097F8823003F00103002B00F0AB80C5
:102BE000AE20FFF705FB034687F883300023C7F8C4
:102BF000843035E0FC20FFF7FBFA03461A463946DD
:102C0000D7F884300B441A70D7F884305C1CFD2050
:102C1000FFF7EEFA03461A4607F18803234403F848
:102C2000882CD7F884309C1CFE20FFF7E1FA03467D
:102C30001A4607F18803234403F8882CD7F8843018
:102C4000DC1CFF20FFF7D4FA03461A4607F188037D
:102C5000234403F8882CD7F884300433C7F8843031
:102C600097F883309A00D7F884309A42C2DC002368
:102C7000C7F884304BE0404B93F880303946D7F8A2
:102C800084200A4411783C4AD1543B4B93F880305D
:102C9000D7F88420013207F188010A4412F8882C01
:102CA00035490B4483F82020334B93F88030D7F814
:102CB0008420023207F188010A4412F8882C2E4938
:102CC0000B4483F840202C4B93F88030D7F88420B5
:102CD000033207F188010A4412F8882C26490B4474
:102CE00083F86020244B93F880300133DAB2224B12
:102CF00083F88020204B93F881300133DAB21E4BE9
:102D000083F88120D7F884300433C7F8843097F8EB
:102D100083309A00D7F884309A42ACDCFFF700FE8B
:102D2000FFF718FD144B002283F88020124B00227D
:102D300083F8812044E71E20FFF722FFFFF70AFDFA
:102D40000D4B002283F880200B4B002283F881205A
:102D50000A4B00221A600A4B00221A60094B00221B
:102D60001A60094B00221A60084B04221A600123E2
:102D700018468C37BD4690BD0C0E0020040E002076
:102D8000000E0020940E0020080E0020900E00205F
:102D900080B483B000AF786039607B683A681A63AA
:102DA0000C37BD465DF8047B704700BF80B500AFAF
:102DB0002748012101F006FB2648012101F002FB12
:102DC0002548012101F0FEFA24482549FFF7E0FFDC
:102DD00024482349FFF7DCFF204B03229A63214B51
:102DE00040F203129A631D481F4902F001FD1D487D
:102DF0001D4902F0FDFC194B9B68002B03D1194BB8
:102E00009B68002B05D0154B20225A60154B2022C1
:102E10005A60164B00221A70154B00221A70154B7F
:102E200000221A700D4B72225A610C4B0B4A126829
:102E300042F017021A600B4B3A225A61094B094AB9
:102E4000126842F017021A600023184680BD00BFC6
:102E50004081040000B2040000C2040000A400404D
:102E60002400010000A0004004000020990E002072
:102E70009A0E0020980E002080B582B000AF034665
:102E8000FB71194B01225A80174B184A5A60184B94
:102E90001B781A46144B1A81134B164ADA60164BEC
:102EA0001B781A46104B1A82FB79002B0BD1134862
:102EB0000D4902F0FFFE00BF104802F0D5FC0346AA
:102EC000012BF9D00DE0FB79012B0AD10C48064902
:102ED00002F0F0FE00BF0A4802F0C6FC0346012BD8
:102EE000F9D00837BD4680BD9C0E00201803002095
:102EF00001000020200300200300002000A000406B
:102F000000A4004080B584B000AF0346FB711B4BAA
:102F100004225A80194B1A4A5A601A4B1B781A46D7
:102F2000164B1A81154B184ADA60184B1B781A4653
:102F3000124B1A82FB79002B0DD115480F4902F074
:102F4000B9FE0346FB7300BF114802F08DFC034637
:102F5000012BF9D00FE0FB79012B0CD10D4807496B
:102F600002F0A8FE0346FB7300BF0A4802F07CFC97
:102F70000346012BF9D01037BD4680BD9C0E0020C2
:102F80001C0300200200002020030020030000207A
:102F900000A0004000A4004080B584B000AF78607D
:102FA000F970BA707B707B78012B08D12C4B3A22D8
:102FB0005A612C4B3A221A800023FB7322E07B7863
:102FC000022B08D1264B3C225A61264B3C221A8008
:102FD0000023FB7316E07B78032B08D1224BEC22F5
:102FE0005A61204BEC221A800123FB730AE07B78A4
:102FF000042B07D11C4B72225A611A4B72221A8081
:103000000123FB73FB78002B0BD17B681A78174BDD
:103010001A70174BBA781A70FB7B1846FFF772FFCD
:103020001BE0FB78012B18D10023BB600AE0BB68D2
:103030007A6813441A780F49BB680B441A70BB684E
:103040000133BB60BA78BB689A42F0DC0A4BBA78AD
:103050001A70FB7B1846FFF70FFF1037BD4680BD87
:1030600000A000409C0E002000A400401C03002093
:1030700002000020180300200100002080B400AFEF
:10308000034B1B781846BD465DF8047B704700BFB4
:103090002003002080B483B000AF0346FB71084BCF
:1030A00097F907205209F97901F01F01012000FA70
:1030B00001F143F822100C37BD465DF8047B7047E0
:1030C00000E100E080B400AF72B6084B1B68B3F1BA
:1030D000FF3F04D0054B1B685A1C044B1A60034B7E
:1030E0001B681846BD465DF8047B70475C030020F2
:1030F00080B483B000AF0C4B1B68002B0DD00A4B83
:103100001B685A1E084B1A60074B1B687B607B6864
:10311000002B00D162B67B6800E0002318460C3714
:10312000BD465DF8047B70475C03002080B483B02B
:1031300000AF786039607B683A685A630C37BD46E7
:103140005DF8047B704700BF80B483B000AF786047
:1031500039607B689A6B3B681A437B689A630C37CB
:10316000BD465DF8047B704790B585B000AF002088
:103170000121012201F0A6FC1448022101F028FBE4
:103180001348012101F01EF9124803F08DFE124B85
:103190003C460FCB84E80F003B460E48194603F02F
:1031A00041FE0C4B03225A650A4B0A4A126842F050
:1031B00080021A6007480121FFF7C6FF1820FFF7B9
:1031C00069FF002318461437BD4690BD03001A005E
:1031D0007007140000400840209C000080B582B0B9
:1031E00000AF0346FB71FB790348194603F094FED8
:1031F0000837BD4680BD00BF0040084080B483B0A2
:1032000000AF78603960074B7A681A60064B3A68FD
:103210001A60064B01221A600C37BD465DF8047B2C
:10322000704700BFBC0E0020B40E0020B80E002076
:1032300080B500AFFFF746FF12480121FFF776FF88
:10324000114B1B68002B19D0104B1B68002B07D1AA
:103250000C4B0F4A12689A620C4B01221A600DE067
:103260000A4B1B68012B09D1064B0A4A12689A6265
:10327000064B00221A60044B00221A60FFF738FF49
:1032800080BD00BF00400840B80E00202C03002085
:10329000BC0E0020B40E002080B582B000AF0C4BF5
:1032A0001B687B603B46184603F0CCFE7B681B0E18
:1032B0000F2B0AD93B78032B07D1064B054A12681E
:1032C00022F0500242F010021A600837BD4680BD5D
:1032D000FC81E00FC0800C4080B582B000AF4FF0A1
:1032E00000037B60FFF7D8FF032000F0DBFA022029
:1032F000FEF752FE38600220FDF748FB3860FEF70B
:10330000E9FDFFF753FD3860FEF7C2F93860FEF7BC
:10331000C3FE3860FEF7F0F8FEF710F903463B6095
:10332000FEF714F9FFF720FF38600220FDF7D8FC04
:103330003860FEF749FFFEF71BFAFDF765FAFDF767
:1033400093F97860FDF7F4F97860FCF747FF78604F
:10335000FDF742F97860FEF765FF00F083FAFCE7BD
:1033600080B483B000AF0346FB71084B97F9072088
:103370005209F97901F01F01012000FA01F143F827
:1033800022100C37BD465DF8047B704700E100E079
:1033900080B483B000AF7860034B7A689A610C37D1
:1033A000BD465DF8047B70470000084080B483B0E0
:1033B00000AF7860054B054AD1697A680A43DA6143
:1033C0000C37BD465DF8047B704700BF0000084025
:1033D00080B400AF72B6084B1B68B3F1FF3F04D056
:1033E000054B1B685A1C044B1A60034B1B6818469C
:1033F000BD465DF8047B70475C03002080B483B059
:1034000000AF0C4B1B68002B0DD00A4B1B685A1EDB
:10341000084B1A60074B1B687B607B68002B00D150
:1034200062B67B6800E0002318460C37BD465DF8A5
:10343000047B70475C03002080B500AFFFF7C8FF36
:103440000220FFF7A5FF03F0F3FDFFF7D7FF80BDD4
:1034500080B500AF0948012100F0B4FF084803F02F
:10346000BFFD00204FF4803103F084FD0220FFF700
:103470009DFF1E20FFF774FF80BD00BF6016100087
:10348000309C000080B483B000AF0346FB71FB7931
:10349000002B03D0054B01221A6602E0034B0022E9
:1034A0001A660C37BD465DF8047B704700A00840E3
:1034B00080B483B000AF786000BF054B5A6E7B6864
:1034C0001340002BF9D10C37BD465DF8047B7047E3
:1034D00000A0084080B483B000AF7860054B054A77
:1034E000916A7A68D2430A409A620C37BD465DF809
:1034F000047B704700A0084080B500AF0020284939
:10350000002202F085FE01202549002202F080FE03
:1035100002202349002202F07BFE032020490022E2
:1035200002F076FE04201E49002202F071FE052002
:103530001B49002202F06CFE06201949002202F00D
:1035400067FE07201649002202F062FE0020FF21DC
:10355000002202F01BFF0120FF21002202F016FFD3
:103560000220FF21002202F011FF0320FF21002290
:1035700002F00CFF0420FF21002202F007FF0520CB
:10358000FF21002202F002FF0620FF21002202F0AC
:10359000FDFE0720FF21002202F0F8FE80BD00BFE3
:1035A00000F00FF080B500AF07202649002202F09E
:1035B0002FFE06202449002202F02AFE052022497F
:1035C000002202F025FE04201F49002202F020FE06
:1035D00003201D49002202F01BFE02201A4900228E
:1035E00002F016FE01201849002202F011FE002010
:1035F0004FF02041002202F00BFE0720072100229D
:1036000002F0C4FE06200721002202F0BFFE0520C2
:103610000721002202F0BAFE04200721002202F056
:10362000B5FE03200721002202F0B0FE0220072190
:10363000002202F0ABFE01200721002202F0A6FECC
:1036400000BF80BD00E00F5000E00FF080B582B0F9
:1036500000AF0346FB712548012100F0B3FE24486A
:10366000032101F0B5F82348402100F093FD01202B
:1036700001F00AFA2048012100F0A4FE4FF0FF30CB
:10368000FFF728FF1D4802F0F1FB0820012102F09E
:10369000ADFC1020012102F0A9FC8020012102F0E4
:1036A000A5FC4FF48070012102F0A0FC4FF40070E3
:1036B000012102F09BFCFB79002B0DD04FF4402040
:1036C00002F036FF4FF4803002F008FC0C4B0C4A3D
:1036D000D26F42F00802DA67FFF70EFF4FF0FF30BB
:1036E000FFF7E6FE0837BD4680BD00BF004302007D
:1036F000020018006000240000362600EC9E000046
:1037000000800C4080B58AB000AF7860786806F021
:10371000EFF90346BB6100233B624FF0FF30FFF738
:10372000C7FE0120FFF7AEFEFFF73CFF00233B6220
:1037300046E03A6ABB699A4203DA7B681B787B628F
:1037400001E020237B627B6A203B7B62214B7A6A0B
:1037500033F81230FB820023FB6128E01E493A6AED
:103760001346DB009B1A9B00CA18FB6913440833FD
:103770009B793B6118493A6A1346DB009B1A9B0010
:10378000FA6913440B441B78FB60FA8AFB6942FA1E
:1037900003F303F00103002B06D0FA683B691046DF
:1037A0001946012202F042FCFB690133FB61FB690F
:1037B0000D2BD3DD7B6801337B603B6A01333B62B9
:1037C0003B6A062BB5DD0020FFF75CFE2837BD46BF
:1037D00080BD00BF349E0000349C000080B400AF68
:1037E000054B054A126922F004021A6130BFBD463A
:1037F0005DF8047B704700BF00ED00E080B400AFCF
:1038000072B6084B1B68B3F1FF3F04D0054B1B6831
:103810005A1C044B1A60034B1B681846BD465DF8E2
:10382000047B70475C03002080B483B000AF0C4B76
:103830001B68002B0DD00A4B1B685A1E084B1A60E0
:10384000074B1B687B607B68002B00D162B67B68EE
:1038500000E0002318460C37BD465DF8047B704736
:103860005C03002080B500AF0D4B1B68002B00DD12
:1038700015E00B4B5B68002B02DDFFF7AFFF0EE09E
:10388000074B9B68002B03DD012001F0A7FC06E03D
:10389000034BDB68002B02DD012001F0EDFC80BD55
:1038A0003003002080B582B000AF0346FB71FFF704
:1038B000A5FFFB79054A52F82320511C034A42F820
:1038C0002310FFF7B1FF0837BD4680BD300300204D
:1038D00080B582B000AF0346FB71FFF78FFFFA7926
:1038E000084B53F82230002B07DDFB79054A52F8CC
:1038F0002320511E034A42F82310FFF795FF083793
:10390000BD4680BD3003002080B487B000AFF860B2
:10391000B9607A60FB6803F10473DA00BB68134492
:103920009B007B617B697A681A601C37BD465DF835
:10393000047B704780B582B000AF786039607A68E8
:103940001D4B9A4203D07A681C4B9A4200D100BFAB
:103950003B681B78DA073B685B789B0713431A4682
:103960003B685B681B061A433B681B7A1B021A43C1
:103970003B685B7A1B011A437B681A603B689B7A41
:103980001B071A463B68DB7A1B041A433B68DB685B
:103990001B02134343F0807343F0B0037A68536013
:1039A0007A683B681B7C104600211A46FFF7ACFF83
:1039B0000837BD4680BD00BF001000400014004025
:1039C00080B487B000AF786013460A46FA70BB70C7
:1039D000BB78002B04D01023FB603E4B3B6103E01F
:1039E0000023FB603C4B3B617B685A6B3B69134097
:1039F000BB6000237B61FB78062B5BD801A252F8E9
:103A000023F000BF213A00003F3A0000633A000073
:103A1000813A0000B53A0000B53A0000A53A00002E
:103A20002E4B5B6803F4FE437A6913437B612B4B97
:103A30005B6803F07F037A6913437B613DE0274BAA
:103A40005B6803F0FE431B0E1B027A6913437B6124
:103A5000224B5B6803F4FE031B0C7A6913437B6102
:103A60002BE01E4B9B6803F4FE437A6913437B6192
:103A70001A4B9B6803F07F037A6913437B611CE058
:103A8000164B9B6803F0FE431B0E1B027A6913431F
:103A90007B61124B9B6803F4FE031B0C7A69134392
:103AA0007B610AE00D4BDB6803F07F037A69134307
:103AB0007B6102E000237B6100BFFB687A699A406A
:103AC000BB681A437B685A631C37BD465DF8047BAC
:103AD000704700BFFFFF80808080FFFFB081E00F54
:103AE00080B584B000AF786039603B681B79FB72A9
:103AF000FB7A002B06D11B48002100F081F8034619
:103B0000FB7208E01748002100F07AF84FF4FA4001
:103B1000002100F075F87B680A225A603B681B7828
:103B20001A063B68DB781B0403F4FE031A43FB7A96
:103B30001B0203F4FE431A433B685B781B011A43E4
:103B40003B689B781343FB603B685B79002B03D099
:103B5000FB6843F00803FB607B68FA681A60103763
:103B6000BD4680BD405DC60080B584B000AF7860C2
:103B700039607B6802225A603B689B7878681946F6
:103B80000022FFF71DFF3B681B781A073B685B7834
:103B90001B051A433B681B791B0213431A463B68FB
:103BA000DB781B011343FB603B689B79002B03D040
:103BB000FB6843F08073FB603B68DB79002B03D02C
:103BC000FB6843F00403FB603B685B79002B03D088
:103BD000FB6843F00203FB603B681B7A002B03D0B9
:103BE000FB6843F00103FB603B689B781B04FA68A9
:103BF0001343FB607B68FA68DA601037BD4680BD0E
:103C000080B584B000AF786039607A68134B9A420F
:103C100002D9124B7B6006E07B68B3F5FA4F02D203
:103C20004FF4FA437B603B68002B03D10C4800F053
:103C300035FC38603A687B6813445A1E7B68B2FBD7
:103C4000F3F3FB60FB68002B02D0FB68013BFB60D9
:103C5000FB68DBB218461037BD4680BD405DC6002C
:103C60004081040080B582B000AF78607B68002B93
:103C700008D1114800F012FC78607B68002B01D15C
:103C800001237B607A680D4B9A4201D90B4B7B6014
:103C90007B6803F5742303F23F237B607A68084B4B
:103CA000A3FB02139B0C7B607B68DBB2013BDBB2A6
:103CB00018460837BD4680BD408104000048E80131
:103CC00083DE1B4380B487B000AFF860B9607A60D0
:103CD000FB6803F10473DA00BB6813449B007B614B
:103CE0007B697A681A601C37BD465DF8047B7047B3
:103CF00080B485B000AF786039607B6803F10473ED
:103D0000DA003B6813449B00FB60FB681B681846A5
:103D10001437BD465DF8047B704700BF80B485B0A2
:103D200000AF78607B68002B04D07B68B3F5004F50
:103D300000D800BF7B68B3FA83F3C3F11F03FB60B5
:103D4000FB6818461437BD465DF8047B704700BF1A
:103D500080B400AF044BDB6C1B0EDBB21846BD46D3
:103D60005DF8047B704700BFB081E00F80B400AF06
:103D7000054BDB6C03F47F031B0CDBB21846BD461E
:103D80005DF8047B704700BFB081E00F80B582B062
:103D900000AFFFF7EBFF03464A2B04D0792B02D08C
:103DA000482B22D023E0144B1B699BB203F03F0346
:103DB0009BB21B02FB80104B9B699BB203F0F0038C
:103DC0009AB2FB881343FB800B4BDB6903F0F003D3
:103DD0001B099AB2FB881343FB80FB88B3F5017F74
:103DE00001D3064B04E0064B02E0054B00E0002344
:103DF00018460837BD4680BDD0FF0FE000366E0183
:103E00000048E80180B584B000AF786039607A6816
:103E10003B689A4294BF00230123DBB2FB60064853
:103E20001E21FA68FFF74EFF04480821FA68FFF7E1
:103E300049FF1037BD4680BD00800C4004800C4017
:103E400080B582B000AF07481E21FFF751FF7860B0
:103E500005480821FFF74CFF38607B681846083793
:103E6000BD4680BD00800C4004800C4080B582B00F
:103E700000AF214B5B6903F4E063B3F5007F1CD016
:103E8000B3F5007F05D8002B25D0B3F5807F1FD078
:103E90002AE0B3F5C06F24D0B3F5E06F1ED0B3F5C0
:103EA000407F21D1FFF754FF0346122B02D9134B59
:103EB0007B601CE0124B7B6019E0FFF749FF034673
:103EC000122B02D90F4B7B6011E00F4B7B600EE091
:103ED0000E4B7B600BE00E4B7B6008E00D4B7B6074
:103EE00005E00D4B7B6002E000237B6000BF7B6838
:103EF00018460837BD4680BD00800C40804F120038
:103F000040420F0040B56400C0CF6A00C0D8A7008F
:103F1000809FD500406F4001003FAB0180B582B06B
:103F200000AF0D4800F0A6FB0346FB70FB78072BA3
:103F300005D0082B07D103F009F9786006E0FFF7F8
:103F400095FF786002E000237B6000BF7B68184625
:103F50000837BD4680BD00BF06000C0080B485B0A8
:103F600000AF7860284BDB6B002B0CBF00230123D4
:103F7000BB72254B41F67132DA63234B5B6803F069
:103F80000703FB60FB68012B01D9042B02D100233E
:103F9000FB7202E00123FB7200BF7A681B4B9A425E
:103FA00007D9FB7A002B01D0052300E00423FB6036
:103FB00016E07A68154B9A420BD87A68144B9A42ED
:103FC00007D9FB7A002B01D0032300E00123FB601B
:103FD00006E0FB7A002B01D0022300E00023FB6007
:103FE000094B094A526822F00701FA680A435A60ED
:103FF000BB7A002B02D0044B0022DA631437BD4693
:104000005DF8047B704700BF00000C400048E801E9
:104010000024F40080B500AF03F08EF80346184684
:10402000FFF79CFF80BD00BF90B585B000AF786002
:104030000023BB607B68344A934203D0334A9342E7
:1040400000D000E000BF786800F014FB0346FB607E
:104050007B682D4A934203D02C4A934206D00CE051
:104060002B4B9B6A03F00303FB6006E0284B9B6A23
:1040700003F00C039B08FB6000BFFB68032B3AD8DE
:1040800001A252F823F000BFBF4000009940000099
:10409000A1400000A940000003F0EAF8B8602DE05C
:1040A00003F0FAF8B86029E003F02CF80446FFF7B3
:1040B000C7FE0346013324FA03F3BB601EE000236E
:1040C000BB607A68104B9A4203D07A680F4B9A42D1
:1040D00010D10F4B9A6A79680B4B994201D110238A
:1040E00000E0142322FA03F3002B03D003F0CAF8F4
:1040F000B86003E002E00023BB6000BFBB68184665
:104100001437BD4690BD00BF0200180003001A001E
:1041100000800C4080B483B000AF7860094B5B6DC9
:1041200003F00103002B00D006E000BF054B1A6D21
:104130007B681340002BF9D10C37BD465DF8047B3A
:10414000704700BF00800C4080B582B000AF1048BF
:1041500000F090FA0346FB70FB78032B07D0082B86
:1041600009D0022B0BD103F097F878600AE003F036
:104170007FF8786006E002F0E9FF786002E0002353
:104180007B6000BF7B6818460837BD4680BD00BF16
:1041900007232000B0B584B000AF786039607B6839
:1041A0001B0903F00F03FB60FB68013B062B00F2C9
:1041B000F68001A252F823F0D54100009F43000091
:1041C0009F43000009420000334200008742000084
:1041D0004B4300003B68002B03D03B68082B00D802
:1041E00000BFFFF717FF704B6F4A126822F4E031EF
:1041F0003A68013A92030A431A6002F083FFB860FA
:10420000B868FFF7ABFECBE03B68002B04D03B68FF
:10421000B3F5007F00D800BF3868FFF77FFD386036
:10422000614B614A926822F00F013A680A439A6032
:10423000B6E03B68002B04D03B68B3F5007F00D8A4
:1042400000BFFFF7E7FE02F081FF02463B68B2FBCA
:10425000F3F4FFF79BFD034620461946FFF7D2FD16
:104260003868FFF75BFD38604F4B4F4A526822F0C9
:104270000F013A680A435A6002F044FFB860B86818
:10428000FFF76CFE8CE07B68484A93421ED0474A99
:10429000934203D8464A934207D055E0454A934299
:1042A00025D0454A93423FD04EE00420FFF732FF2D
:1042B0003868FFF733FD38603B4B3B4A926E22F083
:1042C000F0013A6812010A439A663DE00420FFF7C4
:1042D00021FF3868FFF722FD3860334B324A926E77
:1042E00022F470613A6812020A439A662CE03B6835
:1042F0000F2B03D93B68802B00D800BF0420FFF7A9
:1043000009FF3868FFF70AFD3860274C264B9B6E83
:1043100023F440551020FFF701FD03463A68D31AF5
:104320001B032B43A3660FE00420FFF7F3FE38685E
:10433000FFF7F4FC38601C4B1B4A926E22F003011D
:104340003A680A439A6600BF2AE07B681B4A934298
:1043500003D01B4A934210D020E04020FFF7DAFE42
:104360003868FFF7DBFC38600F4B0F4A126F22F002
:1043700003013A680A431A6710E04020FFF7CAFEBB
:104380003868FFF7CBFC3860074B074A126F22F002
:1043900030013A6812010A431A6700BF00E000BF0B
:1043A0001037BD46B0BD00BF00800C406026120033
:1043B00060161000600024006006280070071400DA
:1043C0007017160090B587B000AF78600B46FB7091
:1043D00000233B617B681B0A03F00F03013B092BA1
:1043E00049D801A252F823F02D44000033440000C4
:1043F0001144000077440000774400003944000075
:104400004344000077440000774400004D4400001E
:104410001B4B7B611B4800F041F80446FFF7B6FCDC
:10442000034620461946FFF7EDFC12E0164B7B6170
:104430000FE0164B7B610CE0154B7B6101233B6168
:1044400007E0144B7B6110233B6102E0124B7B6160
:1044500000BF7B681B0B03F01F03FB603B69002B55
:1044600002D03869FFF756FEFB787869F9681A467A
:10447000FFF728FC00E000BF1C37BD4690BD00BF21
:1044800040800C400043020008800C4044800C40F7
:1044900058800C4060800C4078800C4090B585B00E
:1044A00000AF78607B6803F47813B3F5A01F00F0C9
:1044B000AB80B3F5A01F1AD8B3F5402F00F0BF8032
:1044C000B3F5402F08D8B3F5003F3CD0B3F5802FAB
:1044D0002DD0002B27D0BEE0B3F5801F3CD0B3F524
:1044E000901F47D0B3F5602F00F0AD80B3E0B3F577
:1044F000001F00F0AC80B3F5001F0AD8B3F5C01F51
:1045000025D0B3F5D01F7AD0B3F5B01F00F0898065
:10451000A1E0B3F5181F4ED0B3F5201F62D0B3F55C
:10452000101F35D097E002F011FEF86096E002F01F
:104530000DFEF8604C4B9B6803F00F03FA6822FAFB
:1045400003F3FB608AE002F0DDFDF86086E0474897
:10455000FFF76AFDF86081E04448FFF765FDF86009
:10456000414B9B6E03F0F0031B09FA6822FA03F338
:10457000FB6073E03D48FFF757FDF8603A4B9B6ED8
:1045800003F470631B0AFA6822FA03F3FB6065E028
:104590003648FFF749FDF860334B9B6E03F44053F8
:1045A0001C0B1020FFF7BAFB03462344FA6822FADB
:1045B00003F3FB6052E02D48FFF736FDF8602A4B0D
:1045C0009B6E03F440531B0BFA6822FA03F3FB6063
:1045D000254BDB6F03F007030133FA68B2FBF3F3FB
:1045E000FB603BE02148FFF71FFDF8601E4B9B6E10
:1045F00003F00303FA6822FA03F3FB602EE01C4881
:10460000FFF712FDF86029E01948FFF70DFDF8608B
:10461000154B1B6F03F00303FA6822FA03F3FB60E8
:104620001CE01348FFF700FDF8600F4B1B6F03F011
:1046300030031B09FA6822FA03F3FB600EE0FFF770
:104640006DFCF8600AE0FFF711FCF86006E0FFF788
:104650007BFDF86002E00023FB6000BFFB681846AA
:104660001437BD4690BD00BF00800C40020018000A
:1046700003001A0080B485B000AF78600123FB739B
:104680007B6803F00F03BB60BB68013B062B00F2A5
:10469000938001A252F823F0B5460000EB460000DB
:1046A00027470000B9470000B947000063470000F2
:1046B00085470000454BDB6A03F47053B3F5805F18
:1046C00009D0B3F5005F03D0B3F5006F06D008E062
:1046D0000223FB7308E00323FB7305E00423FB7351
:1046E00002E00523FB7300BF69E0384B9B6A03F0CF
:1046F0000303022B06D0032B07D0012B08D1032381
:10470000FB730FE00223FB730CE00623FB7309E04D
:104710002E4B9B6A03F48033002B02D00923FB73DA
:1047200000E000BF4BE0294B9B6A03F00C03082B11
:1047300006D00C2B07D0042B08D10323FB730FE00A
:104740000223FB730CE00623FB7309E01F4B9B6AFB
:1047500003F48013002B02D00923FB7300E000BF99
:104760002DE01A4B1B6803F08053002B03D0B3F1EC
:10477000805F03D023E00723FB7302E00823FB7371
:1047800000BF1CE0114BDB6A03F46033B3F5803FDC
:1047900008D0B3F5003F08D0B3F5004F08D1082387
:1047A000FB7308E00223FB7305E00323FB7302E0C5
:1047B0000123FB7300BF02E00023FB7300BFFB7B00
:1047C00018461437BD465DF8047B704700800C40E6
:1047D00090B589B000AF78600B46FB700323FB6196
:1047E0000323FB7600233B617B6803F00F03FB6030
:1047F000FB68013B062B00F2348101A252F823F042
:104800001D4800000949000009490000634A0000F2
:10481000634A0000D1490000FB490000FB78023BDD
:10482000072B00F2228101A252F823F04D4800002C
:104830005748000061480000AB4800006B4A000088
:104840006B4A00006B4A00006B4A00000423FB61C6
:104850000023FB7639E00323FB610123FB7634E080
:104860000223FB610223FB76FFF790FA03465C1CF0
:10487000FFF78CFA034620461946FFF7C3FA02F009
:10488000E5FC02467C4B9A4206D97C4B7B4A126877
:1048900042F060021A6018E0784B784A126822F001
:1048A000600242F020021A600FE00123FB61032343
:1048B000FB76FFF76BFA03465C1CFFF767FA0346CB
:1048C00020461946FFF79EFA00BFFB7E18460121DD
:1048D000012200F0F7F8FFF79DFB684BFA695A6276
:1048E0006748FFF7DBFD0446FFF750FA0346204612
:1048F0001946FFF787FA00F01DFD02F003FCB860CF
:10490000B868FFF72BFBADE0FB78013B082B00F20A
:10491000AE8001A252F823F03D4900004349000057
:10492000534900006F4A00006F4A000063490000CD
:104930006F4A00006F4A00008749000000237B6136
:1049400026E000200121012200F0BCF802237B6157
:104950001EE001200121012200F0B4F801237B6157
:1049600016E002F0CFFBB860FFF710FA0346B86814
:104970001946FFF747FA434804210122FFF7A2F93D
:1049800003237B6104E000237B6101233B6100BFC3
:10499000FB68022B0DD1394A384B9B6A23F48033D4
:1049A00023F00303796919433B691B040B439362AA
:1049B00058E0324A314B9B6A23F4801323F00C03F6
:1049C0007969890019433B691B050B43936249E0F0
:1049D000FB78072B02D0082B07D049E0274B274A4A
:1049E000126822F080521A6006E0244B234A1268B3
:1049F00042F080521A6000BF34E0FB78032B14D0E1
:104A0000082B22D0022B00D032E00020012101220D
:104A100000F058F8194B40225A6200BF174BDB6A6E
:104A200003F48033002BF9D01AE001200121012288
:104A300000F048F8114B60225A6200BF0F4BDB6A4E
:104A400003F40033002BF9D00AE00C4B20225A6209
:104A500000BF0A4BDB6A03F40043002BF9D000BF10
:104A600000E000BFFFF7ECF902E000BF00E000BF8C
:104A70002437BD4690BD00BF0048E80100800C40CF
:104A80000043020040800C4080B483B000AF7860E7
:104A90000B4B9B6D03F00803002B00D00BE07B68F1
:104AA00003F007037B60064B054AD26F22F0070133
:104AB0007A680A43DA670C37BD465DF8047B7047B5
:104AC00000800C4080B586B000AF13460246FA71F4
:104AD0000A46BA717B71FB79042B4AD801A252F8BD
:104AE00023F000BF314B0000234B0000074B0000B8
:104AF000F94A0000154B000001233B610223FB60D3
:104B000001237B611DE004233B610823FB60032339
:104B10007B6116E010233B612023FB6005237B6152
:104B20000FE040233B618023FB6007237B6108E0AB
:104B30004FF480733B614FF40073FB6009237B618A
:104B400000BFBB79002B0ED00C4B3A691A627B79FF
:104B5000002B0BD000BF0A487969FFF7C9F803465C
:104B6000002BF8D002E0054BFA681A6200F0E2FB75
:104B700000E000BF1837BD4680BD00BF00800C407C
:104B80002C800C4080B483B000AF0346FB71084B0F
:104B900097F907205209F97901F01F01012000FA65
:104BA00001F143F822100C37BD465DF8047B7047D5
:104BB00000E100E080B483B000AF0346FB71094B15
:104BC00097F907205209F97901F01F01012000FA35
:104BD00001F1203243F822100C37BD465DF8047B0A
:104BE000704700BF00E100E080B483B000AF03462F
:104BF000FB71094B97F907205209F97901F01F0160
:104C0000012000FA01F1603243F822100C37BD4652
:104C10005DF8047B704700BF00E100E080B487B01E
:104C200000AFF860B9607A60FB6803F10473DA00E2
:104C3000BB6813449B007B617B697A681A601C37F0
:104C4000BD465DF8047B704780B489B000AF7860E2
:104C5000F970BA707B707B681A013C4B9B681344F7
:104C6000BB61BB78002B02D0BB69FB6105E07B68B0
:104C70001A01364BDB681344FB61BB69DB687B615F
:104C80007B69002B02D0BA787B691A72FB6A002B11
:104C900014D0FB699B6803F040639B0E3B613B694A
:104CA000032B03D1FB69FA6A1A6007E03B693A6B90
:104CB0009A40FB6A13441A46FB691A60BB6A002BD0
:104CC00012D0FB699B689B0F3B613B69032B03D1AF
:104CD000FB69BA6A5A6007E03B693A6B9A40BB6A63
:104CE00013441A46FB695A607B68012202FA03F3F7
:104CF000FB607B78002B03D0144BFA689A6102E0CA
:104D0000124BFA68DA61BB78002B03D00F4BFA68BC
:104D10005A6302E00D4BFA681A63FB699B6823F43F
:104D20007F5323F03703BB603B6B1B01BA6813430F
:104D3000BB60FB78BA681343BB60FB69BA689A60D2
:104D40002437BD465DF8047B704700BF00200C404F
:104D500080B58AB000AF334B03F580531B68BB614D
:104D6000304B03F580530C331B68BA691340BB61A9
:104D70002C4B9B6B7B61BA697B6913403B620023C0
:104D8000FB6149E000237B623BE03B6A03F00103E7
:104D9000002B30D0234B9B683B6101227B6A02FAD7
:104DA00003F3FB601F4B03F580530833FA681A6066
:104DB0007B6A1B013A691344DB68BB60BB68002B4C
:104DC00019D0BB681B7A7B60BB681B7A83F0010338
:104DD000DAB2BB681A72BB681B68002B0BD0BB68C9
:104DE0001B68786A7A68002A0CBF00220122D1B2BF
:104DF000BA68526898473B6A5B083B627B6A01333A
:104E00007B623B6A002BC0D17B69DA43BB691340EC
:104E10003B62FB690133FB61FB69012BB2DD283783
:104E2000BD4680BD00200C4080B588B004AFF8605E
:104E30007B600B46FB721346BB72FA7ABB7A7968C9
:104E40000091B9690191F9690291F8680121FFF7B0
:104E5000FBFE044BFA68012101FA02F29A62103754
:104E6000BD4680BD00200C4080B584B000AF7860A6
:104E700039601F4B9B68FB607B681B01FA68134419
:104E80003A689268DA603B681B78002B06D0184BB2
:104E90007A68012101FA02F29A6305E0144B7A68FC
:104EA000012101FA02F2DA63114B3A6851687A681B
:104EB00002F5886243F822103B685B78002B0ED025
:104EC0000B4B7A68012101FA02F203F58053083393
:104ED0001A60084879680122FFF7A0FE04E005483F
:104EE00079680022FFF79AFE1037BD4680BD00BFEB
:104EF00000200C400C300C4080B487B000AFF8604C
:104F00000B467A60FB72FB7A002B03D0154B9B6833
:104F10007B6102E0134BDB687B61FB681B017A69F4
:104F200013447B617B681B789A077B689B781B071F
:104F30001A437B685B789B061A437B689B781B0649
:104F400013431A467B681B799B041A437B68DB7802
:104F50009B031A437B699A601C37BD465DF8047B4E
:104F6000704700BF00200C4080B582B000AF786071
:104F700010480121FFF726FA00F020F80020FFF783
:104F800033FE0020FFF7FEFD0B4B03F580530C337F
:104F90004FF000421A60084B7A6852689A60064BDC
:104FA0007A681278520142F001025A600837BD4611
:104FB00080BD00BF0003020000200C4080B582B01D
:104FC00000AF0020FFF7F6FD1C4B00225A601B4B80
:104FD00040F6FF72DA61194B40F6FF725A62174BC6
:104FE00040F6FF72DA62154B40F6FF725A63134BBC
:104FF00040F6FF72DA63114B0122DA640F4B03F5BE
:1050000080530C3300221A600C4B03F58053083395
:105010000B4A1A6000237B6009E0084B7A6802F5AE
:105020008862002143F822107B6801337B607B6833
:105030000B2BF2DD0837BD4680BD00BF00200C40C1
:10504000FF0F008080B500AF02F05CF880BD00BFAC
:1050500080B400AF034B0022C3F88420BD465DF846
:10506000047B704700800C4080B400AF044B45F6D1
:105070000E02C3F88420BD465DF8047B704700BF74
:1050800000800C4080B582B000AF384BD3F884303C
:1050900003F001037B60FFF7E7FF00233B60344B25
:1050A0001B6803F001033A6813433B60304B1B68F5
:1050B00003F010033A6813433B602D4B1B6803F069
:1050C00040033A6813433B60294B1B6803F0040319
:1050D0003A6813433B60264B1B6803F480733A68BD
:1050E00013433B60214B3A681A62214B1B6803F45F
:1050F0007053B3F5805F06D0B3F5005F0ED0B3F503
:10510000006F16D020E000BF184BDB6A03F080036D
:10511000002BF9D0154B03225A6215E000BF134B48
:10512000DB6A03F40073002BF9D0104B04225A629F
:105130000AE000BF0D4BDB6A03F00803002BF9D037
:105140000A4B02225A6200BF094B1B6803F001039D
:10515000002B02D1054B02221A627B68002B01D082
:10516000FFF776FF0837BD4680BD00BF00800C40CA
:105170004003002080B483B000AF174B1B699BB283
:1051800003F03F039BB21B02FB80134B9B699BB256
:1051900003F0F0039AB2FB881343FB800E4BDB69EC
:1051A00003F0F0031B099AB2FB881343FB80FB88D2
:1051B000B3F5827F03D3FB88B3F5017F01D10123CF
:1051C00000E0002303F00103DBB218460C37BD46B4
:1051D0005DF8047B704700BFD0FF0FE080B586B05C
:1051E00000AF0346FB711F4BDA6A1F4B1A601F4B5F
:1051F0001E4A126942F004021A61FFF7BBFF034620
:10520000FB75FB7D002B11D0194B1A68194B13400D
:10521000FB60174BFA68C3F88020154B5B6823F0DE
:1052200046033B61124B3A69C3F8842030BFFB7DD3
:10523000002B05D00E4BFA681A600D4B3A695A6084
:10524000FB79002B02D0FFF71DFF07E0064B1B6820
:1052500003F48063002B01D1FFF7F4FE1837BD463D
:1052600080BD00BF00800C404003002000ED00E046
:1052700000E100E09CF1FD0080B586B000AF034680
:10528000FB71274BDA6A274B1A60254BD3F8843021
:1052900003F001037B61FFF7E7FE214B4FF420721F
:1052A0001A627B69002B01D0FFF7D2FE1E4B1E4A0B
:1052B000126942F004021A61FFF75CFF0346FB74B7
:1052C000FB7C002B11D0194B1A68194B1340BB60A3
:1052D000164BBA68C3F88020144B5B6823F0460372
:1052E000FB60124BFA68C3F8842030BFFB7C002BB4
:1052F00005D00E4BBA681A600C4BFA685A60FB79FD
:10530000002B02D0FFF7BEFE07E0064B1B6803F43C
:105310008063002B01D1FFF795FE1837BD4680BD95
:1053200000800C404003002000ED00E000E100E0C0
:105330009CF1FD0080B400AF034BDA6A034B1A60A6
:10534000BD465DF8047B704700800C4040030020A0
:1053500080B487B000AFF860B9607A60FB6803F191
:105360000473DA00BB6813449B007B617B697A6835
:105370001A601C37BD465DF8047B704780B485B069
:1053800000AFF860B9607A60FB681A68BB68DB43FD
:105390001A407B681A43FB681A601437BD465DF8F3
:1053A000047B704780B483B000AF03463960FB7163
:1053B000FB79002B0DD0FB79012B0AD0FB79022B56
:1053C00007D0FB79032B04D0FB79042B01D0FB79A8
:1053D000052B0948FA793B68012101FA03F31946C4
:1053E0001346DB0013449B000344103359600C3711
:1053F000BD465DF8047B70470060004080B483B018
:1054000000AF03463960FB71FB79002B0DD0FB79AF
:10541000012B0AD0FB79022B07D0FB79032B04D098
:10542000FB79042B01D0FB79052B0948FA793B68FD
:10543000012101FA03F319461346DB0013449B00D4
:105440000344103319600C37BD465DF8047B704788
:105450000060004090B482B000AF02460B46FA7183
:10546000BB71FB79002B0ED0FB79012B0BD0FB79A4
:10547000022B08D0FB79032B05D0FB79042B02D03B
:10548000FB79052B03D1BB79032B00D800BF0C4857
:10549000FA790B4CF9790B46DB000B449B00234453
:1054A0001B6823F00301BB7919431346DB00134447
:1054B0009B00034419600837BD4690BC704700BF8D
:1054C0000060004080B586B000AFB9607A600246E7
:1054D000FA73BB73FB7B002B0DD0FB7B012B0AD037
:1054E000FB7B022B07D0FB7B032B04D0FB7B042B25
:1054F00001D0FB7B052BBB68072B0ED8BB689B003C
:1055000007229A40F97BBB689B0001FA03F31A4813
:1055100011461A46FFF732FF10E0BB68083B7B617B
:105520007B699B0007229A40F97B7B699B0001FA0B
:1055300003F3124811461A46FFF720FFBB7B1048C1
:10554000B9681A46FFF704FF97F820300D48B9688C
:105550001A46FFF7FDFE0C4BBA68012101FA02F270
:10556000C3F81C2197F824300848B9681A46FFF799
:10557000EFFE1837BD4680BD006100400461004069
:10558000086100400C610040006000401061004074
:1055900090B585B000AFB9607B600346FB731346DE
:1055A000BB73FB7B002B0DD0FB7B012B0AD0FB7B5D
:1055B000022B07D0FB7B032B04D0FB7B042B01D0F9
:1055C000FB7B052BBB7B002B0DD07B68002B05D014
:1055D000FB7B1846B968FFF711FF04E0FB7B184618
:1055E000B968FFF7DFFEBB68072B1DD82B48FA7B95
:1055F0002A4CF97B0B46DB000B449B002344596883
:10560000BB689B000F2404FA03F3DB431940BC7B07
:10561000BB689B0004FA03F319431346DB001344F1
:105620009B000344596024E01C48FA7B1B4CF97B27
:105630000B46DB000B449B00234408331968BB680E
:1056400003F18043083B9B000F2404FA03F3DB4380
:105650001940BC7BBB6803F18043083B9B0004FA04
:1056600003F319431346DB0013449B000344083340
:105670001960BB7B002B0DD17B68002B05D0FB7B19
:105680001846B968FFF7BAFE04E0FB7B1846B96814
:10569000FFF788FE1437BD4690BD00BF0060004094
:1056A00080B487B000AFF860B9607A60FB6803F13E
:1056B0000473DA00BB6813449B007B617B697A68E2
:1056C0001A601C37BD465DF8047B704780B485B016
:1056D00000AFF860B9607A60FB681A68BB68DB43AA
:1056E0001A407B681A43FB681A601437BD465DF8A0
:1056F000047B704780B588B000AFF860B9607A600D
:10570000FB707B68002B00D15EE0FB681B6823F414
:105710004072FB681A60FA68FB781B0210464FF46F
:1057200040711A46FFF7D2FFBB68002B03D128480F
:10573000FEF7B4FEB8604FF0FF33BB61FB681B6837
:1057400003F00203002B11D0FB78012B07D0022BB2
:1057500008D0002B00D019E01E4BBB6105E01E4BAA
:10576000BB6102E01D4BBB6100BF0FE0FB78012B6A
:1057700006D0022B07D0002B08D1194BBB6105E0E6
:10578000184BBB6102E0184BBB6100BFFB78174AA6
:10579000D35C7B617B689B00BA68D21A7B697968AD
:1057A00001FB03F3B2FBF3F3013BFB61FB681B68F6
:1057B00003F00203002B04D0FB69002B01D101236D
:1057C000FB61FA69FB681A612037BD4680BD00BFE6
:1057D0004081040040164000C0D8A70080507401EA
:1057E00080841E0040548900002D3101009F00007C
:1057F00080B582B000AF786039607A68174B9A4202
:1058000003D07A68164B9A4200D100BF7B68002211
:105810005A637B68134A1A637A683B685B78002B8B
:1058200001D0002300E00123104601211A46FFF7B2
:1058300037FF3B6859683B689A683B681B7B786810
:10584000FFF758FF7A683B681B78104600211A461C
:10585000FFF726FF0837BD4680BD00BF00A000400F
:1058600000A40040CFFF010080B489B000AF786091
:105870007A689D4B9A4203D07A689C4B9A4200D139
:1058800000BF7A68984B9A4202D1994BBB6108E0FD
:105890007A68964B9A4202D1964BBB6101E0FC2399
:1058A00000E2BB699B687B617B689B6A3B613B69EB
:1058B00003F4C063002B14D03B6903F40073002B86
:1058C00003D0BB69FD225A7007E03B6903F4806393
:1058D000002B02D0BB69FE225A70BB6909221A70E4
:1058E000CCE1BB691B78082B00F2C08101A252F801
:1058F00023F000BF195900006B590000F159000056
:10590000435A0000955A0000F95A0000815B0000DC
:10591000BF5B0000515C00007B695B8803F01003F3
:10592000002B09D07B691B881B0A9BB203F006037E
:1059300043F0F003FB610EE07B691B8803F0FE037C
:10594000FB617B695B8803F00203002B03D0FB69DA
:1059500043F00103FB61BB6901221A707B68FA699D
:105960005A627B6801225A6088E13B6903F0800338
:10597000002B0CD07B6880221A63BB69FF225A700F
:10598000BB6908221A707B6802225A602FE03B69CB
:1059900003F04003002B2AD07B6840221A637B6906
:1059A0005B8803F01003002B08D0BB6902221A7039
:1059B0007B691B88DAB27B685A6218E07B695B8876
:1059C00003F00203002B0ED0BB6907221A70BB69DB
:1059D0001B797A69DB0013441B89012B07D17B6893
:1059E00008225A604AE1BB6905221A7045E145E187
:1059F0003B6903F08003002B0CD07B6880221A6384
:105A0000BB69FF225A70BB6908221A707B680222A8
:105A10005A6015E03B6903F04003002B10D07B680F
:105A200040221A637B695B8803F00203002B03D0DA
:105A3000BB6903221A7020E1BB6905221A701CE1C0
:105A40001CE17B695B8803F01003002B09D07B69A4
:105A50001B881B0A9BB203F0060343F0F003FB61B3
:105A600004E07B691B8803F0FE03FB617B695B88B4
:105A700003F00403002B03D0FB6943F00103FB6137
:105A8000BB6904221A707B6801225A607B68FA693C
:105A90005A62F3E03B6903F08003002B0CD07B6873
:105AA00080221A63BB69FF225A70BB6908221A70F0
:105AB0007B6802225A6015E03B6903F04003002B2B
:105AC00010D07B6840221A637B695B8803F0040373
:105AD000002B03D0BB6907221A7003E0BB690522C3
