:100000000080002055530000815300008153000000
:100010008153000081530000815300008153000090
:100020008153000081530000815300008153000080
:100030008153000081530000815300008153000070
:100040007D34000081530000C9120000815300007C
:100050008153000081530000690B000081530000B0
:10006000815300008153000081530000DD1E000019
:100070008153000081530000815300008153000030
:1000800081530000090900008153000081530000E2
:100090008153000081530000815300008153000010
:1000A000D915000081530000F106000081530000C3
:1000B00081530000815300000D180000815300009F
:1000C00081530000815300008153000081530000E0
:1000D00081530000815300008153000081530000D0
:1000E00010B5054C237833B9044B13B10448AFF372
:1000F00000800123237010BD0001002000000000DB
:100100001068000008B5064B1BB106480649AFF35E
:1001100000800648036813B1054B03B1984708BD3A
:10012000000000001068000004010020740000209E
:1001300000000000154B002B08BF134B9D46A3F594
:10014000803A00218B460F461348144A121A06F0D3
:1001500063F90F4B002B00D098470E4B002B00D0BB
:1001600098470020002104000D000D48002802D00F
:100170000C48AFF3008006F029F92000290001F0B7
:100180007FFA06F00FF900BF000008000080002091
:10019000000000000000000000010020280E0020E8
:1001A000000000000000000080B483B000AF0346F0
:1001B0003960FB71FB79002B0DD0FB79012B0AD044
:1001C000FB79022B07D0FB79032B04D0FB79042B9E
:1001D00001D0FB79052B0948FA793B68012101FA26
:1001E00003F319461346DB0013449B00034410330A
:1001F00059600C37BD465DF8047B704700600040D5
:1002000080B483B000AF03463960FB71FB79002BEB
:100210000DD0FB79012B0AD0FB79022B07D0FB799B
:10022000032B04D0FB79042B01D0FB79052B094863
:10023000FA793B68012101FA03F319461346DB0002
:1002400013449B000344103319600C37BD465DF81E
:10025000047B70470060004080B483B000AF034669
:100260003960FB71FB79002B0DD0FB79012B0AD093
:10027000FB79022B07D0FB79032B04D0FB79042BED
:1002800001D0FB79052B0948FA793B68012101FA75
:1002900003F319461346DB0013449B000344183351
:1002A00019600C37BD465DF8047B70470060004064
:1002B00080B582B000AF0346FB712348012102F0F4
:1002C00017FC022006210022002303F067FC042013
:1002D00002210422002303F061FC042003210422F4
:1002E000002303F05BFC022005210822012303F018
:1002F00055FC022004210822012303F04FFC0320B7
:1003000001210122002303F049FC032000210422E3
:10031000002303F043FC0420012103F007FC032029
:10032000012103F003FC032004210422012303F034
:1003300035FC032005210422012303F02FFC0023B8
:1003400018460837BD4680BD00D2040080B582B093
:1003500000AF0B463A600246FA71BB71FB79002B85
:1003600005D1BB7918463968FFF74AFF13E0FB79DE
:10037000012B05D1BB7918463968FFF715FF0AE054
:10038000FB79022B05D1BB7918463968FFF764FF6A
:1003900001E0012300E0002318460837BD4680BD78
:1003A00080B483B000AF0346FB71FB79002B06D00D
:1003B000084B084AD26842F00102DA6005E0054BBA
:1003C000044AD26822F00102DA600C37BD465DF8BB
:1003D000047B704700A0084080B500AF034803F0DD
:1003E000E5FF034803F0BEFF80BD00BF546400007A
:1003F0006C64000080B582B000AF7860002001F02E
:100400002BFB786801F084FBFFF7E6FF0020FFF785
:10041000C7FF1A2004F09AFA0837BD4680BD00BF16
:1004200080B483B000AF0346FB71084B97F90720F7
:100430005209F97901F01F01012000FA01F143F896
:1004400022100C37BD465DF8047B704700E100E0E8
:1004500080B485B000AF786039607B6803F10473C5
:10046000DA003B6813449B00FB60FB681B6818467E
:100470001437BD465DF8047B704700BF80B582B07D
:1004800000AF03463960FB71FB79002B0DD0FB797F
:10049000012B0AD0FB79022B07D0FB79032B04D068
:1004A000FB79042B01D0FB79052BFA791346DB008D
:1004B00013449B000C3303F1804303F5C0431846FB
:1004C0003968FFF7C5FF034618460837BD4680BDAB
:1004D00080B400AF72B6084B1B68B3F1FF3F04D085
:1004E000054B1B685A1C044B1A60034B1B681846CB
:1004F000BD465DF8047B70474C03002080B483B098
:1005000000AF0C4B1B68002B0DD00A4B1B685A1E0A
:10051000084B1A60074B1B687B607B68002B00D17F
:1005200062B67B6800E0002318460C37BD465DF8D4
:10053000047B70474C03002080B483B000AF786028
:1005400039607B683A689A620C37BD465DF8047B77
:10055000704700BF80B483B000AF786039607B68BB
:10056000DA6A3B681A437B68DA620C37BD465DF88D
:10057000047B704780B483B000AF78600B46FB709B
:10058000FA787B685A600C37BD465DF8047B70478B
:1005900080B483B000AF7860034B7A685A640C373C
:1005A000BD465DF8047B704700C0084080B400AFD2
:1005B000034B1B6C1846BD465DF8047B704700BFBB
:1005C00000C008400000000080B588B000AF0346BE
:1005D000FB7101233B7300237B730023BB73002358
:1005E000FB7300233B7400237B740023BB74002344
:1005F000FB7400233B7500237B750023BB7502232E
:10060000FB61FB6903F00F031B02FB61344B344AAF
:10061000916EFA690A439A66324B9B6A31481946D1
:10062000FFF78AFF2F480121FFF794FFFB79032B87
:1006300025D12D4B1B68184605F0CAF802460B461B
:100640001046194624A3D3E9002305F037F90246E2
:100650000B461046194605F043FB0346BB61BB69D8
:10066000204800211A4604F0D5FCBB69C3F57F433E
:10067000FF331C4800211A4604F0CCFC14E0FB793F
:10068000002B05D0FB79012B02D0FB79022B09D17D
:1006900043F61F03BB61BB69124800211A4604F0F0
:1006A000B9FC01E0012310E007F10C030D481946E5
:1006B00004F0F2FC1A20FFF7B3FE0A48012104F00F
:1006C000D5FC022001F0F4FA002318462037BD467D
:1006D00080BD00BFAFF3008096438B6CE7FB1840F2
:1006E00000800C400020084050030020AFF3008041
:1006F00080B584B002AF00237B60FFF7E9FE0220E3
:1007000001F0D6FA31480121FFF716FF304B9B6804
:1007100003F002035A082F4B1A602F4B1B68002B63
:1007200029D12D4B01221A60284B0022DA602B4B75
:1007300000221A602A4B1B78002B03D1284B012280
:100740001A7011E0264B1B78012B03D1244B022297
:100750001A7009E0224B1B78022B05D1032001F00F
:10076000A7FA1F4B00221A70184800214FF6DE72BC
:1007700004F050FC0FE0184B1B68012B0BD1164BFB
:1007800000221A60114B0022DA601048002143F663
:100790001F0204F03FFC104B1B68012B11D10120FC
:1007A00001F086FA0F4B009340F2F31301930020FF
:1007B000012100220C4B02F0CDFE0C480121FFF775
:1007C000D9FEFFF79BFE0837BD4680BD00200840DC
:1007D00000100040540300202401002020010020CC
:1007E0002801002024200040580300200020004061
:1007F00080B588B000AFF8600B467A60FB720023CA
:100800007B610023FB614FF000033B61364B364AAE
:10081000526842F002025A60012001F05FFA0023A0
:10082000BB610BE0314BBA6933F812309BB21BB29B
:10083000FA691344FB61BB690133BB61BB69B3F562
:10084000FA7FEFDBFB692A4A82FB03125211DB17A6
:10085000D31AFB61F86900F045FD38613869254914
:1008600005F032FD0346002B06D13869224905F018
:1008700049FD0346002B05D0002004210322FFF789
:1008800065FD04E0012004210322FFF75FFD3869C4
:100890001A4905F07BFB0346184605F063FD014647
:1008A000174BA3FB0123DA0813469B0013445B009C
:1008B000CA1A7A6104200221FFF7E0FD0246114BBB
:1008C0001A60386905F028FD0346DBB25BB21846B2
:1008D00000F058FE0B4B1B687869194600F062FE69
:1008E0002037BD4680BD00BF0020004058030020D7
:1008F000D34D62100000704100000C420000204106
:10090000CDCCCCCC1C01002080B586B000AFFFF769
:10091000DFFD00237B826F4B1B8801339AB26D4B46
:100920001A806C4B1B88032B05D16A4B00221A805E
:10093000FFF7E4FDCBE0684BDA6C684B1A60FFF719
:1009400035FEF860F868FFF723FE0023FB750BE027
:10095000FB7DFA6822FA03F303F00103002B00D0B9
:1009600005E0FB7D0133FB75FB7D0F2BF0D95A4B66
:100970009B69BB60584BFA7D012101FA02F29A6132
:1009800001237B750023BB7519E004F0B3FA00BFA7
:10099000514B1B6A03F01003002BF9D14E4BDB695E
:1009A0007B60FB7D012202FA03F31A467B68134049
:1009B000002B01D100237B75BB7D0133BB75BB7D53
:1009C000092BE2D9444BBA689A617B7D002B6BD02E
:1009D000414AFB7D1B01134403F532731B6803F48A
:1009E0008033002B31D0FB7D012202FA03F39BB24E
:1009F000DB439AB23A4B1B889BB213409BB29AB22C
:100A0000374B1A803449FB7D3348FA7D120102448A
:100A100002F53272126822F480321B010B4403F596
:100A200032731A602C4AFB7D1B01134403F53273A9
:100A30001B687B807B88013B7B80FA7D7B8810462E
:100A400000211A4604F00AFA2EE0FB7D012202FA88
:100A500003F39AB2224B1B889BB213439BB29AB208
:100A60001F4B1A801C49FB7D1B48FA7D1201024472
:100A700002F53272126842F480321B010B4403F516
:100A800032731A60144AFB7D1B01134403F5327361
:100A90001B687B807B8801337B80FA7D7B881046D6
:100AA00000211A4604F0DAF90D4B1B887B827B8A01
:100AB000002B05D0002004210222FFF747FC04E0B0
:100AC000012004210222FFF741FCFFF717FD183730
:100AD000BD4680BD2A01002000C008401C0E002039
:100AE0002C01002080B483B000AF786039607B684F
:100AF0003A689A610C37BD465DF8047B704700BFC9
:100B000080B400AF72B6084B1B68B3F1FF3F04D04E
:100B1000054B1B685A1C044B1A60034B1B68184694
:100B2000BD465DF8047B70474C03002080B483B061
:100B300000AF0C4B1B68002B0DD00A4B1B685A1ED4
:100B4000084B1A60074B1B687B607B68002B00D149
:100B500062B67B6800E0002318460C37BD465DF89E
:100B6000047B70474C03002080B500AFFFF7C8FF3F
:100B700003480121FFF7B6FFFFF7D8FF80BD00BF94
:100B80000010004080B586B000AF2548012101F07B
:100B9000AFFF2448012101F0ABFF00233B74002389
:100BA0007B740023BB741F23FB7400233B7500235D
:100BB0007B7500233B7100237B710023BB710023F5
:100BC000FB7100233B7200237B720023BB72002366
:100BD000FB7200233B731448002101F0A7FB03467E
:100BE0003B75002001F0D4FB0346FB7407F11003B2
:100BF0000E48194601F00AFB08233B720023BB7123
:100C00000023FB7100237B7101233B733B1D0748CD
:100C1000194601F03FFB002318461837BD4680BD3A
:100C2000408104000002050020D61300002000408F
:100C300080B483B000AF0346FB71084B97F90720DF
:100C40005209F97901F01F01012000FA01F143F87E
:100C500022100C37BD465DF8047B704700E100E0D0
:100C600080B500AF04F09CFB80BD00BF80B400AF36
:100C700072B6084B1B68B3F1FF3F04D0054B1B68ED
:100C80005A1C044B1A60034B1B681846BD465DF89E
:100C9000047B70474C03002080B483B000AF0C4B42
:100CA0001B68002B0DD00A4B1B685A1E084B1A609C
:100CB000074B1B687B607B68002B00D162B67B68AA
:100CC00000E0002318460C37BD465DF8047B7047F2
:100CD0004C03002080B483B000AF7860064B7A6884
:100CE00002F00F02A03253F8223018460C37BD46EE
:100CF0005DF8047B704700BF00C0084080B584B039
:100D000000AF7860304B00221A80304B00221A70FE
:100D10000023FB7336E0FA7B2D4B002123F81210E1
:100D2000FA7B2C4B4FF6FF7123F81210FB7B9B00D4
:100D30007A6813441B6818464FF0000105F0BAFAB0
:100D40000346002B1BD1FA7BFB7B9B0079680B448D
:100D50001968214B43F82210FB7B012202FA03F3AE
:100D60009AB2194B1B889BB213439BB29AB2164B93
:100D70001A80164B1B780133DAB2144B1A70FB7BC6
:100D80000133FB73FB7B0F2BC5D9FFF76FFF00F01F
:100D900031F800F0ADF800F063F800F073F80023CC
:100DA000FB7306E004F0A6F800F0C4F8FB7B013307
:100DB000FB73FB7B632BF5D900F050FDFFF76CFF55
:100DC0001037BD4680BD00BFB4020020B60200202F
:100DD0007402002094020020B802002080B400AF0A
:100DE000034B1B889BB21846BD465DF8047B7047D9
:100DF0007002002080B500AFFFF732FF10480121DC
:100E000001F076FE0F48012101F072FE0E4801212B
:100E100001F06EFE0D48022102F070F80C4801212D
:100E200001F066FE0B48012101F062FE0A48012133
:100E300001F05EFE0948012102F060F880BD00BFAC
:100E40000092040000A2040000D204000200180076
:100E500000430200600628006016100003001A001C
:100E600080B500AF0448054901F0FAF80448034989
:100E700001F0F6F880BD00BF00100040B86400002B
:100E80000014004080B582B000AF1648012103F085
:100E90009BFD0023FB7111E0134B1B881A46FB7965
:100EA00042FA03F303F00103002B04D0FB790F484F
:100EB000194603F003FFFB790133FB71FB790F2B1C
:100EC000EAD90020052103F033FE0020002103F0C1
:100ED000C5FE1120FFF7ACFE04F00CF80837BD4644
:100EE00080BD00BFCC640000B40200200C6500008F
:100EF00080B582B000AF00237B6012E00C4B1B88F2
:100F00001A467B6842FA03F303F00103002B05D075
:100F1000022079680022002302F040FE7B68013342
:100F20007B607B680F2BE9D90837BD4680BD00BFC9
:100F3000B4020020F0B585B000AF00BF624B1B6A61
:100F400003F01003002BF9D15F4B5B6A03F4F073DD
:100F50005B09BB605D4B1B781A46BB689A4205DC97
:100F60005A4B1B78BA68D31ABB6005E0574B1B7805
:100F7000BA68D31A1033BB600023FB6021E0544BE6
:100F80001B881A46FB6842FA03F303F00103002BA7
:100F900014D0504B1B781C46BB685A1CBA601846CC
:100FA000FFF798FE034698B24B49FA6813469B0038
:100FB00013445B002344024621F81320FB680133ED
:100FC000FB60FB680F2BDADD424B1B780133DAB292
:100FD000404B1A703F4B1B78092B02D93D4B002226
:100FE0001A700023FB6068E0394B1B881A46FB68C7
:100FF00042FA03F303F00103002B5BD0FA681346B7
:101000009B0013449B00344A134418460A2100F005
:101010006DF803461946314BFA6823F81210FA6846
:1010200013469B0013449B002B4A134418460A2185
:1010300000F084F803461946294BFA6823F8121089
:10104000264BFA6833F81230FB80FB68DEB2FB886F
:10105000184604F0CDFB04460D46FB88184604F004
:1010600041FF02461F4BF96853F8213010461946DC
:1010700004F08CFF0346184604F0CCFB02460B46F6
:10108000104619464FF00002174B04F041FD02468E
:101090000B462046294604F05DFA02460B461046F0
:1010A000194604F045FE03469BB2304600211A461D
:1010B00003F0D4FEFB680133FB60FB680F2B93DD6C
:1010C0001437BD46F0BD00BF00C00840B602002086
:1010D000B4020020F8020020300100207402002039
:1010E00094020020B80200200000594080B485B06E
:1010F00000AF78600B467B8000237B810023FB6080
:1011000011E0FB685B007A6813441B889BB27A8904
:101110009A4205D2FB685B007A6813441B887B8186
:10112000FB680133FB607A88FB689A42E9DC7B89C3
:1011300018461437BD465DF8047B704780B485B00F
:1011400000AF78600B467B804FF6FF737B810023F6
:10115000FB6011E0FB685B007A6813441B889BB25C
:101160007A899A4205D9FB685B007A6813441B8828
:101170007B81FB680133FB607A88FB689A42E9DC7B
:101180007B8918461437BD465DF8047B704700BF65
:10119000B0B590B000AF0D4B3C461D460FCD0FC40F
:1011A0000FCD0FC40FCD0FC495E80F0084E80F00DA
:1011B0003B461846FFF7A2FD00BFFFF70FFE0346B0
:1011C000002BFAD14037BD46B0BD00BF78640000A7
:1011D00080B483B000AF786039607B683A689A6108
:1011E0000C37BD465DF8047B704700BF80B400AF8C
:1011F00072B6084B1B68B3F1FF3F04D0054B1B6868
:101200005A1C044B1A60034B1B681846BD465DF818
:10121000047B70474C03002080B483B000AF0C4BBC
:101220001B68002B0DD00A4B1B685A1E084B1A6016
:10123000074B1B687B607B68002B00D162B67B6824
:1012400000E0002318460C37BD465DF8047B70476C
:101250004C03002080B582B000AF0346FB71FB79E0
:10126000002B05D0FB79012B02D0FB79022B09D191
:1012700000200121012201F0BBFF1048022101F0F2
:101280003DFE0EE0FB79032B09D10520012101224F
:1012900001F0AEFF0948092101F030FE01E0012311
:1012A00008E00748012101F023FC0648012101F074
:1012B0001FFC002318460837BD4680BD02001800F9
:1012C000004302006026120080B500AFFFF78EFFDA
:1012D00003480121FFF77CFFFFF79EFF80BD00BFA1
:1012E0000000014080B586B000AF7860164B1B68E7
:1012F00003F47F031B0C184604F0F0FD03467B61EA
:10130000124B1B681B0D184604F0E8FD03463B61B9
:101310000F4BFB60786804F0E5FD03463869194619
:1013200004F02AFD03461846F96804F0E3FE03467C
:101330007869194604F020FD0346BB60BB68184677
:101340001837BD4680BD00BFB081E00FBC81E00F03
:10135000D7A3C8C080B588B000AF1D48012101F0F7
:10136000C7FB00233B761B4BFB6107F118031846B4
:1013700002F090F900233B7101237B714FF40023AD
:10138000BB60154BFB60144B144A1A60124B0122D0
:101390001A72114B00225A603B1D0020194602F0C0
:1013A000F9F801233B7403237B740123BB740023EE
:1013B000FB7400233B7507F11003002001211A463E
:1013C00002F030F9002318462037BD4680BD00BF2B
:1013D00000030200000C0020280B0020F107000091
:1013E00080B586B000AF7223BB800123FB800C4B1D
:1013F000BB600C4B1B78BB810B4B3B610B4B1B78D1
:10140000BB823B1D0A48194602F076FE00BF084821
:1014100002F04CFC0346012BF9D01837BD4680BDC5
:10142000FC02002000000020040E0020020000202A
:1014300000A4004080B586B000AF72233B80042337
:101440007B800D4B7B600D4B1B783B810C4BFB6015
:101450000C4B1B783B823B460B48194602F04CFE76
:101460000346FB7500BF084802F020FC0346012B31
:10147000F9D01837BD4680BD0003002001000020D0
:10148000040E00200200002000A4004080B584B0BB
:1014900000AF786013460A46FA70BB70FB78002BE9
:1014A00009D17B681A78124B1A70124BBA781A70ED
:1014B000FFF7C0FF19E0FB78012B16D10023FB607A
:1014C0000AE0FB687A6813441A780B49FB680B44FE
:1014D0001A70FB680133FB60BA78FB689A42F0DC53
:1014E000064BBA781A70FFF77BFF1037BD4680BDF8
:1014F0000003002001000020FC020020000000206A
:1015000080B400AF72B6084B1B68B3F1FF3F04D044
:10151000054B1B685A1C044B1A60034B1B6818468A
:10152000BD465DF8047B70474C03002080B483B057
:1015300000AF0C4B1B68002B0DD00A4B1B685A1ECA
:10154000084B1A60074B1B687B607B68002B00D13F
:1015500062B67B6800E0002318460C37BD465DF894
:10156000047B70474C03002080B483B000AF7860E8
:1015700039607B683A685A630C37BD465DF8047B76
:10158000704700BF80B582B000AF0346FB71FB79A6
:101590000348194603F00EFE0837BD4680BD00BF64
:1015A0000040084080B483B000AF78603960074BDA
:1015B0007A681A60064B3A681A60064B01221A6074
:1015C0000C37BD465DF8047B704700BF180E002045
:1015D000100E0020140E002080B500AFFFF790FF22
:1015E00012480121FFF7C0FF114B1B68002B19D0D7
:1015F000104B1B68002B07D10C4B0F4A12689A62E4
:101600000C4B01221A600DE00A4B1B68012B09D11B
:10161000064B0A4A12689A62064B00221A60044B73
:1016200000221A60FFF782FF80BD00BF0040084023
:10163000140E002004030020180E0020100E0020BD
:1016400080B582B000AF0C4B1B687B603B461846F0
:1016500003F046FE7B681B0E0F2B0AD93B78032B49
:1016600007D1064B054A126822F0500242F01002E0
:101670001A600837BD4680BDFC81E00FC0800C4079
:1016800080B582B000AFFFF7DBFF032000F010FB56
:101690000220FFF7DFFD78600220FEF709FE786088
:1016A000FFF776FDFFF76EFA7860FFF753FE78607C
:1016B0000220FEF789FF7860144B01221A6000F0C7
:1016C00029FB78607B68002B03D1002000F090FBA1
:1016D00078607B68002B03D1012000F089FB7860E3
:1016E0007B68002B03D1022000F082FB78607B68CE
:1016F000002B02D100F02CFB78607B68002B02D11C
:10170000024B00221A6000F0B3FAFCE7200E002022
:1017100080B483B000AF0346FB71084B97F90720F4
:101720005209F97901F01F01012000FA01F143F893
:1017300022100C37BD465DF8047B704700E100E0E5
:1017400080B483B000AF7860034B7A689A610C373D
:10175000BD465DF8047B70470000084080B483B04C
:1017600000AF7860054B054AD1697A680A43DA61AF
:101770000C37BD465DF8047B704700BF0000084091
:1017800080B483B000AF7860054B054AD16C7A68AD
:101790000A43DA640C37BD465DF8047B704700BF2E
:1017A00000C0084080B400AF72B6084B1B68B3F1AC
:1017B000FF3F04D0054B1B685A1C044B1A60034BB7
:1017C0001B681846BD465DF8047B70474C0300203B
:1017D00080B483B000AF0C4B1B68002B0DD00A4BBC
:1017E0001B685A1E084B1A60074B1B687B607B689E
:1017F000002B00D162B67B6800E0002318460C374E
:10180000BD465DF8047B70474C03002080B500AFF7
:10181000FFF7C8FF0220FFF793FF0D4B1B68002B5B
:1018200007D00C4B1B681846FFF7AAFF084B002295
:101830001A60094B1B68012B04D1022004210222EB
:10184000FEF784FD03F042FDFFF7C2FF80BD00BF3D
:10185000080300201C0E0020200E002080B500AFE1
:101860000948012101F044F9084803F007FD002070
:101870004FF4803103F0CCFC0220FFF76FFF1E20F5
:10188000FFF746FF80BD00BF601610002C6500000A
:1018900080B483B000AF0346FB71FB79002B03D00B
:1018A000054B01221A6602E0034B00221A660C3730
:1018B000BD465DF8047B704700A0084080B483B04B
:1018C00000AF786000BF054B5A6E7B681340002B59
:1018D000F9D10C37BD465DF8047B704700A0084085
:1018E00080B483B000AF7860054B054A916A7A688E
:1018F000D2430A409A620C37BD465DF8047B7047BC
:1019000000A0084080B500AF00202849002202F066
:10191000A1FE01202549002202F09CFE022023495D
:10192000002202F097FE03202049002202F092FEDE
:1019300004201E49002202F08DFE05201B490022D2
:1019400002F088FE06201949002202F083FE0720DB
:101950001649002202F07EFE0020FF21002202F044
:1019600037FF0120FF21002202F032FF0220FF2179
:10197000002202F02DFF0320FF21002202F028FFA9
:101980000420FF21002202F023FF0520FF21002276
:1019900002F01EFF0620FF21002202F019FF07209F
:1019A000FF21002202F014FF80BD00BF00F00FF005
:1019B00080B500AF07202649002202F04BFE06202A
:1019C0002449002202F046FE05202249002202F0AE
:1019D00041FE04201F49002202F03CFE03201D4965
:1019E000002202F037FE02201A49002202F032FEE5
:1019F00001201849002202F02DFE00204FF0204166
:101A0000002202F027FE07200721002202F0E0FE5C
:101A100006200721002202F0DBFE0520072100221C
:101A200002F0D6FE04200721002202F0D1FE03209E
:101A30000721002202F0CCFE02200721002202F042
:101A4000C7FE01200721002202F0C2FE00BF80BDB8
:101A500000E00F5000E00FF080B582B000AF034609
:101A6000FB712548012101F043F82448032101F0CE
:101A700045FA2348402100F023FF012001F09AFBA2
:101A80002048012101F034F84FF0FF30FFF728FF24
:101A90001D4802F00DFC0820012102F0C9FC1020B5
:101AA000012102F0C5FC8020012102F0C1FC4FF4AD
:101AB0008070012102F0BCFC4FF40070012102F0A3
:101AC000B7FCFB79002B0DD04FF4402002F052FF01
:101AD0004FF4803002F024FC0C4B0C4AD26F42F0E1
:101AE0000802DA67FFF70EFF4FF0FF30FFF7E6FE60
:101AF0000837BD4680BD00BF004302000200180049
:101B00006000240000362600E867000000800C40DA
:101B100080B58AB000AF7860786804F085FC034631
:101B2000BB6100233B624FF0FF30FFF7C7FE01208F
:101B3000FFF7AEFEFFF73CFF00233B6246E03A6A48
:101B4000BB699A4203DA7B681B787B6201E0202341
:101B50007B627B6A203B7B62214B7A6A33F81230CE
:101B6000FB820023FB6128E01E493A6A1346DB0032
:101B70009B1A9B00CA18FB69134408339B793B618D
:101B800018493A6A1346DB009B1A9B00FA69134412
:101B90000B441B78FB60FA8AFB6942FA03F303F0FB
:101BA0000103002B06D0FA683B6910461946012252
:101BB00002F05EFCFB690133FB61FB690D2BD3DD99
:101BC0007B6801337B603B6A01333B623B6A062BD7
:101BD000B5DD0020FFF75CFE2837BD4680BD00BFA5
:101BE000306700003065000080B400AF054B054A47
:101BF000126922F004021A6130BFBD465DF8047B11
:101C0000704700BF00ED00E080B400AF72B6084B33
:101C10001B68B3F1FF3F04D0054B1B685A1C044BF3
:101C20001A60034B1B681846BD465DF8047B70477D
:101C30004C03002080B483B000AF0C4B1B68002B1A
:101C40000DD00A4B1B685A1E084B1A60074B1B68C5
:101C50007B607B68002B00D162B67B6800E00023CC
:101C600018460C37BD465DF8047B70474C030020D6
:101C700080B500AF0D4B1B68002B00DD15E00B4B52
:101C80005B68002B02DDFFF7AFFF0EE0074B9B68A0
:101C9000002B03DD012001F037FE06E0034BDB687B
:101CA000002B02DD012001F07DFE80BD0C03002031
:101CB00080B582B000AF0346FB71FFF7A5FFFB794B
:101CC000054A52F82320511C034A42F82310FFF71B
:101CD000B1FF0837BD4680BD0C03002080B582B03F
:101CE00000AF0346FB71FFF78FFFFA79084B53F8FB
:101CF0002230002B07DDFB79054A52F82320511EC4
:101D0000034A42F82310FFF795FF0837BD4680BD10
:101D10000C03002080B582B000AF0A48FEF76AFBD2
:101D200000237B6002E07B6801337B607A68064BAE
:101D30009A42F8DD0548FEF75DFB00231846083798
:101D4000BD4680BDFC6700003F420F0004680000F4
:101D500080B500AFFFF71CFA0023184680BD00BF16
:101D600080B582B000AF00204FF4803103F050FA0C
:101D700000237B6002E07B6801337B607A68034B61
:101D80009A42F8DD0837BD4680BD00BF7F969800B7
:101D900080B582B000AF00204FF4004103F038FA64
:101DA00000237B6002E07B6801337B607A68034B31
:101DB0009A42F8DD0837BD4680BD00BF7F96980087
:101DC00080B582B000AF00204FF4804103F020FACC
:101DD00000237B6002E07B6801337B607A68034B01
:101DE0009A42F8DD0837BD4680BD00BF7F96980057
:101DF00080B582B000AF78607B68002B02D1FFF71E
:101E0000AFFF0AE07B68012B02D1FFF7C1FF04E0BE
:101E10007B68022B01D1FFF7D3FF012004210222AE
:101E2000FEF794FA00204FF4803103F0F1F903F04B
:101E30004DFA002318460837BD4680BD80B483B0F4
:101E400000AF7860044B7A68C3F81C210C37BD469C
:101E50005DF8047B704700BF0060004080B400AFB5
:101E6000034BD3F814311846BD465DF8047B704728
:101E70000060004080B400AF72B6084B1B68B3F13D
:101E8000FF3F04D0054B1B685A1C044B1A60034BE0
:101E90001B681846BD465DF8047B70474C03002064
:101EA00080B483B000AF0C4B1B68002B0DD00A4BE5
:101EB0001B685A1E084B1A60074B1B687B607B68C7
:101EC000002B00D162B67B6800E0002318460C3777
:101ED000BD465DF8047B70474C03002080B582B09E
:101EE00000AFFFF7C7FFFFF7B9FF78607868FFF72B
:101EF000A5FF4B4BC0221A70494801210122FFF770
:101F0000C5FA484B1B68002B03D1464B01221A60CF
:101F100009E0444B1B68012B05D1424B00221A609B
:101F2000FFF7BEFF78E0404B1B78002B37D13E4BCC
:101F300001221A703D4B82221A703C4B00225A70CB
:101F40003A4801210222FFF7A1FA384B83221A7086
:101F5000364B00225A70354801210222FFF796FACB
:101F6000324B84221A70314B00225A702F480121C3
:101F70000222FFF78BFA2D4B85221A702B4B082279
:101F80005A702A4801210222FFF780FA284B0122C9
:101F90001A70002004210222FEF7D8F93AE0224B01
:101FA0001B78012B36D1012004210222FEF7CEF945
:101FB0001D4B00221A701D4B84221A701B4BFF22EE
:101FC0005A701A4801210222FFF760FA174B852246
:101FD0001A70164BFF225A70144801210222FFF793
:101FE00055FA124B82221A70104B0F225A700F486A
:101FF00001210222FFF74AFA0C4B83221A700B4B85
:1020000000225A70094801210222FFF73FFA084BCB
:1020100000221A70FFF744FF0837BD4680BD00BF9D
:1020200020030020280300202C0300201C03002094
:102030002403002080B487B000AFF860B9607A60F4
:10204000FB6803F10473DA00BB6813449B007B61F7
:102050007B697A681A601C37BD465DF8047B70475F
:1020600080B582B000AF786039607A681D4B9A42C3
:1020700003D07A681C4B9A4200D100BF3B681B78A2
:10208000DA073B685B789B0713431A463B685B683B
:102090001B061A433B681B7A1B021A433B685B7A98
:1020A0001B011A437B681A603B689B7A1B071A4620
:1020B0003B68DB7A1B041A433B68DB681B02134353
:1020C00043F0807343F0B0037A6853607A683B68EA
:1020D0001B7C104600211A46FFF7ACFF0837BD46AF
:1020E00080BD00BF001000400014004080B487B0E5
:1020F00000AF786013460A46FA70BB70BB78002BBD
:1021000004D01023FB603E4B3B6103E00023FB60E7
:102110003C4B3B617B685A6B3B691340BB600023BF
:102120007B61FB78062B5BD801A252F823F000BF3D
:102130004D2100006B2100008F210000AD21000027
:10214000E1210000E1210000D12100002E4B5B685D
:1021500003F4FE437A6913437B612B4B5B6803F006
:102160007F037A6913437B613DE0274B5B6803F093
:10217000FE431B0E1B027A6913437B61224B5B6893
:1021800003F4FE031B0C7A6913437B612BE01E4BA7
:102190009B6803F4FE437A6913437B611A4B9B6887
:1021A00003F07F037A6913437B611CE0164B9B6845
:1021B00003F0FE431B0E1B027A6913437B61124B33
:1021C0009B6803F4FE031B0C7A6913437B610AE0EE
:1021D0000D4BDB6803F07F037A6913437B6102E0F8
:1021E00000237B6100BFFB687A699A40BB681A4391
:1021F0007B685A631C37BD465DF8047B704700BF9F
:10220000FFFF80808080FFFFB081E00F80B584B049
:1022100000AF786039603B681B79FB72FB7A002B5A
:1022200006D11B48002100F081F80346FB7208E04C
:102230001748002100F07AF84FF4FA40002100F02E
:1022400075F87B680A225A603B681B781A063B685F
:10225000DB781B0403F4FE031A43FB7A1B0203F42E
:10226000FE431A433B685B781B011A433B689B782B
:102270001343FB603B685B79002B03D0FB6843F0A2
:102280000803FB607B68FA681A601037BD4680BDA2
:10229000405DC60080B584B000AF786039607B686F
:1022A00002225A603B689B78786819460022FFF743
:1022B0001DFF3B681B781A073B685B781B051A43B8
:1022C0003B681B791B0213431A463B68DB781B01F2
:1022D0001343FB603B689B79002B03D0FB6843F002
:1022E0008073FB603B68DB79002B03D0FB6843F015
:1022F0000403FB603B685B79002B03D0FB6843F071
:102300000203FB603B681B7A002B03D0FB6843F0A1
:102310000103FB603B689B781B04FA681343FB6076
:102320007B68FA68DA601037BD4680BD80B584B03E
:1023300000AF786039607A68134B9A4202D9124B29
:102340007B6006E07B68B3F5FA4F02D24FF4FA43A4
:102350007B603B68002B03D10C4800F035FC3860F3
:102360003A687B6813445A1E7B68B2FBF3F3FB6048
:10237000FB68002B02D0FB68013BFB60FB68DBB213
:1023800018461037BD4680BD405DC6004081040040
:1023900080B582B000AF78607B68002B08D111480F
:1023A00000F012FC78607B68002B01D101237B6078
:1023B0007A680D4B9A4201D90B4B7B607B6803F521
:1023C000742303F23F237B607A68084BA3FB02135C
:1023D0009B0C7B607B68DBB2013BDBB218460837A5
:1023E000BD4680BD408104000048E80183DE1B43F8
:1023F00080B487B000AFF860B9607A60FB6803F121
:102400000473DA00BB6813449B007B617B697A68C4
:102410001A601C37BD465DF8047B704780B485B0F8
:1024200000AF786039607B6803F10473DA003B68C1
:1024300013449B00FB60FB681B6818461437BD46BD
:102440005DF8047B704700BF80B485B000AF786052
:102450007B68002B04D07B68B3F5004F00D800BF29
:102460007B68B3FA83F3C3F11F03FB60FB68184674
:102470001437BD465DF8047B704700BF80B400AFE1
:10248000044BDB6C1B0EDBB21846BD465DF8047BCB
:10249000704700BFB081E00F80B400AF054BDB6C2C
:1024A00003F47F031B0CDBB21846BD465DF8047BCA
:1024B000704700BFB081E00F80B582B000AFFFF77A
:1024C000EBFF03464A2B04D0792B02D0482B22D0B5
:1024D00023E0144B1B699BB203F03F039BB21B022A
:1024E000FB80104B9B699BB203F0F0039AB2FB8810
:1024F0001343FB800B4BDB6903F0F0031B099AB21B
:10250000FB881343FB80FB88B3F5017F01D3064BA7
:1025100004E0064B02E0054B00E0002318460837B4
:10252000BD4680BDD0FF0FE000366E010048E801D7
:1025300080B584B000AF786039607A683B689A42B1
:1025400094BF00230123DBB2FB6006481E21FA681A
:10255000FFF74EFF04480821FA68FFF749FF1037DC
:10256000BD4680BD00800C4004800C4080B582B028
:1025700000AF07481E21FFF751FF7860054808218A
:10258000FFF74CFF38607B6818460837BD4680BDB2
:1025900000800C4004800C4080B582B000AF214B1D
:1025A0005B6903F4E063B3F5007F1CD0B3F5007FF3
:1025B00005D8002B25D0B3F5807F1FD02AE0B3F5D6
:1025C000C06F24D0B3F5E06F1ED0B3F5407F21D1AA
:1025D000FFF754FF0346122B02D9134B7B601CE01C
:1025E000124B7B6019E0FFF749FF0346122B02D91B
:1025F0000F4B7B6011E00F4B7B600EE00E4B7B605E
:102600000BE00E4B7B6008E00D4B7B6005E00D4B53
:102610007B6002E000237B6000BF7B6818460837C0
:10262000BD4680BD00800C40804F120040420F002C
:1026300040B56400C0CF6A00C0D8A700809FD50015
:10264000406F4001003FAB0180B582B000AF0D4844
:1026500000F0A6FB0346FB70FB78072B05D0082B88
:1026600007D102F0C1FE786006E0FFF795FF7860C1
:1026700002E000237B6000BF7B6818460837BD4638
:1026800080BD00BF06000C0080B485B000AF78604C
:10269000284BDB6B002B0CBF00230123BB72254BA7
:1026A00041F67132DA63234B5B6803F00703FB608A
:1026B000FB68012B01D9042B02D10023FB7202E03D
:1026C0000123FB7200BF7A681B4B9A4207D9FB7A41
:1026D000002B01D0052300E00423FB6016E07A689C
:1026E000154B9A420BD87A68144B9A4207D9FB7A59
:1026F000002B01D0032300E00123FB6006E0FB7AFE
:10270000002B01D0022300E00023FB60094B094AA3
:10271000526822F00701FA680A435A60BB7A002B1C
:1027200002D0044B0022DA631437BD465DF8047B07
:10273000704700BF00000C400048E8010024F4008E
:1027400080B500AF02F046FE03461846FFF79CFF37
:1027500080BD00BF90B585B000AF78600023BB603E
:102760007B68344A934203D0334A934200D000E05E
:1027700000BF786800F014FB0346FB607B682D4ABD
:10278000934203D02C4A934206D00CE02B4B9B6A19
:1027900003F00303FB6006E0284B9B6A03F00C0385
:1027A0009B08FB6000BFFB68032B3AD801A252F8DC
:1027B00023F000BFEB270000C5270000CD27000055
:1027C000D527000002F0A2FEB8602DE002F0B2FEB4
:1027D000B86029E002F0E4FD0446FFF7C7FE0346B7
:1027E000013324FA03F3BB601EE00023BB607A6868
:1027F000104B9A4203D07A680F4B9A4210D10F4B7C
:102800009A6A79680B4B994201D1102300E0142396
:1028100022FA03F3002B03D002F082FEB86003E03B
:1028200002E00023BB6000BFBB6818461437BD46FA
:1028300090BD00BF0200180003001A0000800C4089
:1028400080B483B000AF7860094B5B6D03F0010387
:10285000002B00D006E000BF054B1A6D7B681340CB
:10286000002BF9D10C37BD465DF8047B704700BFE3
:1028700000800C4080B582B000AF104800F090FAA4
:102880000346FB70FB78032B07D0082B09D0022BE3
:102890000BD102F04FFE78600AE002F037FE78605C
:1028A00006E002F0A1FD786002E000237B6000BF3B
:1028B0007B6818460837BD4680BD00BF072320004F
:1028C000B0B584B000AF786039607B681B0903F055
:1028D0000F03FB60FB68013B062B00F2F68001A2B0
:1028E00052F823F001290000CB2A0000CB2A000077
:1028F000352900005F290000B3290000772A000075
:102900003B68002B03D03B68082B00D800BFFFF7C3
:1029100017FF704B6F4A126822F4E0313A68013AAF
:1029200092030A431A6002F03BFDB860B868FFF7F3
:10293000ABFECBE03B68002B04D03B68B3F5007FD7
:1029400000D800BF3868FFF77FFD3860614B614AEF
:10295000926822F00F013A680A439A60B6E03B6839
:10296000002B04D03B68B3F5007F00D800BFFFF711
:10297000E7FE02F039FD02463B68B2FBF3F4FFF7D5
:102980009BFD034620461946FFF7D2FD3868FFF746
:102990005BFD38604F4B4F4A526822F00F013A6896
:1029A0000A435A6002F0FCFCB860B868FFF76CFE9E
:1029B0008CE07B68484A93421ED0474A934203D832
:1029C000464A934207D055E0454A934225D0454AAE
:1029D00093423FD04EE00420FFF732FF3868FFF704
:1029E00033FD38603B4B3B4A926E22F0F0013A686F
:1029F00012010A439A663DE00420FFF721FF386880
:102A0000FFF722FD3860334B324A926E22F4706138
:102A10003A6812020A439A662CE03B680F2B03D9EE
:102A20003B68802B00D800BF0420FFF709FF3868FF
:102A3000FFF70AFD3860274C264B9B6E23F4405568
:102A40001020FFF701FD03463A68D31A1B032B43FE
:102A5000A3660FE00420FFF7F3FE3868FFF7F4FCED
:102A600038601C4B1B4A926E22F003013A680A43FD
:102A70009A6600BF2AE07B681B4A934203D01B4A38
:102A8000934210D020E04020FFF7DAFE3868FFF7CD
:102A9000DBFC38600F4B0F4A126F22F003013A68DB
:102AA0000A431A6710E04020FFF7CAFE3868FFF7B4
:102AB000CBFC3860074B074A126F22F030013A68AE
:102AC00012010A431A6700BF00E000BF1037BD467D
:102AD000B0BD00BF00800C406026120060161000E0
:102AE00060002400600628007007140070171600AC
:102AF00090B587B000AF78600B46FB7000233B6158
:102B00007B681B0A03F00F03013B092B49D801A284
:102B100052F823F0592B00005F2B00003D2B0000E2
:102B2000A32B0000A32B0000652B00006F2B0000DF
:102B3000A32B0000A32B0000792B00001B4B7B6113
:102B40001B4800F041F80446FFF7B6FC0346204658
:102B50001946FFF7EDFC12E0164B7B610FE0164BB8
:102B60007B610CE0154B7B6101233B6107E0144B5B
:102B70007B6110233B6102E0124B7B6100BF7B68ED
:102B80001B0B03F01F03FB603B69002B02D038696D
:102B9000FFF756FEFB787869F9681A46FFF728FCBC
:102BA00000E000BF1C37BD4690BD00BF40800C4018
:102BB0000043020008800C4044800C4058800C40C8
:102BC00060800C4078800C4090B585B000AF786094
:102BD0007B6803F47813B3F5A01F00F0AB80B3F566
:102BE000A01F1AD8B3F5402F00F0BF80B3F5402FD7
:102BF00008D8B3F5003F3CD0B3F5802F2DD0002B83
:102C000027D0BEE0B3F5801F3CD0B3F5901F47D06E
:102C1000B3F5602F00F0AD80B3E0B3F5001F00F016
:102C2000AC80B3F5001F0AD8B3F5C01F25D0B3F5AB
:102C3000D01F7AD0B3F5B01F00F08980A1E0B3F5C2
:102C4000181F4ED0B3F5201F62D0B3F5101F35D03A
:102C500097E002F0C9FBF86096E002F0C5FBF8606F
:102C60004C4B9B6803F00F03FA6822FA03F3FB60F6
:102C70008AE002F095FBF86086E04748FFF76AFDBE
:102C8000F86081E04448FFF765FDF860414B9B6EBA
:102C900003F0F0031B09FA6822FA03F3FB6073E008
:102CA0003D48FFF757FDF8603A4B9B6E03F47063A5
:102CB0001B0AFA6822FA03F3FB6065E03648FFF767
:102CC00049FDF860334B9B6E03F440531C0B1020FE
:102CD000FFF7BAFB03462344FA6822FA03F3FB60CA
:102CE00052E02D48FFF736FDF8602A4B9B6E03F447
:102CF00040531B0BFA6822FA03F3FB60254BDB6F92
:102D000003F007030133FA68B2FBF3F3FB603BE027
:102D10002148FFF71FFDF8601E4B9B6E03F0030375
:102D2000FA6822FA03F3FB602EE01C48FFF712FD5D
:102D3000F86029E01948FFF70DFDF860154B1B6F8F
:102D400003F00303FA6822FA03F3FB601CE0134864
:102D5000FFF700FDF8600F4B1B6F03F030031B09FA
:102D6000FA6822FA03F3FB600EE0FFF76DFCF860EF
:102D70000AE0FFF711FCF86006E0FFF77BFDF86062
:102D800002E00023FB6000BFFB6818461437BD4615
:102D900090BD00BF00800C400200180003001A0024
:102DA00080B485B000AF78600123FB737B6803F0CB
:102DB0000F03BB60BB68013B062B00F2938001A2AE
:102DC00052F823F0E12D0000172E0000532E0000D2
:102DD000E52E0000E52E00008F2E0000B12E000031
:102DE000454BDB6A03F47053B3F5805F09D0B3F54C
:102DF000005F03D0B3F5006F06D008E00223FB7339
:102E000008E00323FB7305E00423FB7302E00523C2
:102E1000FB7300BF69E0384B9B6A03F00303022B8E
:102E200006D0032B07D0012B08D10323FB730FE03F
:102E30000223FB730CE00623FB7309E02E4B9B6A15
:102E400003F48033002B02D00923FB7300E000BFA2
:102E50004BE0294B9B6A03F00C03082B06D00C2B8C
:102E600007D0042B08D10323FB730FE00223FB736D
:102E70000CE00623FB7309E01F4B9B6A03F48013ED
:102E8000002B02D00923FB7300E000BF2DE01A4B9A
:102E90001B6803F08053002B03D0B3F1805F03D095
:102EA00023E00723FB7302E00823FB7300BF1CE051
:102EB000114BDB6A03F46033B3F5803F08D0B3F500
:102EC000003F08D0B3F5004F08D10823FB7308E09A
:102ED0000223FB7305E00323FB7302E00123FB7372
:102EE00000BF02E00023FB7300BFFB7B18461437D2
:102EF000BD465DF8047B704700800C4090B589B0FA
:102F000000AF78600B46FB700323FB610323FB7665
:102F100000233B617B6803F00F03FB60FB68013B10
:102F2000062B00F2348101A252F823F0492F000051
:102F300035300000353000008F3100008F31000047
:102F4000FD30000027310000FB78023B072B00F228
:102F5000228101A252F823F0792F0000832F000074
:102F60008D2F0000D72F000097310000973100000F
:102F700097310000973100000423FB610023FB76AA
:102F800039E00323FB610123FB7634E00223FB617C
:102F90000223FB76FFF790FA03465C1CFFF78CFADE
:102FA000034620461946FFF7C3FA02F09DFA02468F
:102FB0007C4B9A4206D97C4B7B4A126842F06002F5
:102FC0001A6018E0784B784A126822F0600242F0EA
:102FD00020021A600FE00123FB610323FB76FFF759
:102FE0006BFA03465C1CFFF767FA03462046194656
:102FF000FFF79EFA00BFFB7E18460121012200F078
:10300000F7F8FFF79DFB684BFA695A626748FFF7CC
:10301000DBFD0446FFF750FA034620461946FFF74A
:1030200087FA00F01DFD02F0BBF9B860B868FFF741
:103030002BFBADE0FB78013B082B00F2AE8001A238
:1030400052F823F0693000006F3000007F3000003C
:103050009B3100009B3100008F3000009B3100004D
:103060009B310000B330000000237B6126E000208C
:103070000121012200F0BCF802237B611EE0012047
:103080000121012200F0B4F801237B6116E002F077
:1030900087F9B860FFF710FA0346B8681946FFF7DA
:1030A00047FA434804210122FFF7A2F903237B6179
:1030B00004E000237B6101233B6100BFFB68022B1E
:1030C0000DD1394A384B9B6A23F4803323F0030334
:1030D000796919433B691B040B43936258E0324AF8
:1030E000314B9B6A23F4801323F00C037969890028
:1030F00019433B691B050B43936249E0FB78072B9F
:1031000002D0082B07D049E0274B274A126822F04B
:1031100080521A6006E0244B234A126842F0805223
:103120001A6000BF34E0FB78032B14D0082B22D0A8
:10313000022B00D032E000200121012200F058F8DB
:10314000194B40225A6200BF174BDB6A03F48033ED
:10315000002BF9D01AE001200121012200F048F8EB
:10316000114B60225A6200BF0F4BDB6A03F400333D
:10317000002BF9D00AE00C4B20225A6200BF0A4B08
:10318000DB6A03F40043002BF9D000BF00E000BF6E
:10319000FFF7ECF902E000BF00E000BF2437BD46B6
:1031A00090BD00BF0048E80100800C4000430200D1
:1031B00040800C4080B483B000AF78600B4B9B6DB7
:1031C00003F00803002B00D00BE07B6803F007033B
:1031D0007B60064B054AD26F22F007017A680A43EA
:1031E000DA670C37BD465DF8047B704700800C4001
:1031F00080B586B000AF13460246FA710A46BA712E
:103200007B71FB79042B4AD801A252F823F000BF4E
:103210005D3200004F3200003332000025320000E2
:103220004132000001233B610223FB6001237B61EB
:103230001DE004233B610823FB6003237B6116E050
:1032400010233B612023FB6005237B610FE04023BB
:103250003B618023FB6007237B6108E04FF48073B0
:103260003B614FF40073FB6009237B6100BFBB79B6
:10327000002B0ED00C4B3A691A627B79002B0BD0D5
:1032800000BF0A487969FFF7C9F80346002BF8D058
:1032900002E0054BFA681A6200F0E2FB00E000BFB2
:1032A0001837BD4680BD00BF00800C402C800C400C
:1032B00080B483B000AF0346FB71084B97F9072039
:1032C0005209F97901F01F01012000FA01F143F8D8
:1032D00022100C37BD465DF8047B704700E100E02A
:1032E00080B483B000AF0346FB71094B97F9072008
:1032F0005209F97901F01F01012000FA01F1203291
:1033000043F822100C37BD465DF8047B704700BFC0
:1033100000E100E080B483B000AF0346FB71094BCD
:1033200097F907205209F97901F01F01012000FAED
:1033300001F1603243F822100C37BD465DF8047B82
:10334000704700BF00E100E080B487B000AFF860D4
:10335000B9607A60FB6803F10473DA00BB68134458
:103360009B007B617B697A681A601C37BD465DF8FB
:10337000047B704780B489B000AF7860F970BA7090
:103380007B707B681A013C4B9B681344BB61BB7824
:10339000002B02D0BB69FB6105E07B681A01364B4C
:1033A000DB681344FB61BB69DB687B617B69002BD5
:1033B00002D0BA787B691A72FB6A002B14D0FB69C1
:1033C0009B6803F040639B0E3B613B69032B03D179
:1033D000FB69FA6A1A6007E03B693A6B9A40FB6A3C
:1033E00013441A46FB691A60BB6A002B12D0FB69B2
:1033F0009B689B0F3B613B69032B03D1FB69BA6A56
:103400005A6007E03B693A6B9A40BB6A13441A461C
:10341000FB695A607B68012202FA03F3FB607B7848
:10342000002B03D0144BFA689A6102E0124BFA6841
:10343000DA61BB78002B03D00F4BFA685A6302E0C5
:103440000D4BFA681A63FB699B6823F47F5323F0E2
:103450003703BB603B6B1B01BA681343BB60FB784F
:10346000BA681343BB60FB69BA689A602437BD46EB
:103470005DF8047B704700BF00200C4080B58AB027
:1034800000AF334B03F580531B68BB61304B03F532
:1034900080530C331B68BA691340BB612C4B9B6B88
:1034A0007B61BA697B6913403B620023FB6149E0A1
:1034B00000237B623BE03B6A03F00103002B30D02A
:1034C000234B9B683B6101227B6A02FA03F3FB609A
:1034D0001F4B03F580530833FA681A607B6A1B019F
:1034E0003A691344DB68BB60BB68002B19D0BB682A
:1034F0001B7A7B60BB681B7A83F00103DAB2BB687E
:103500001A72BB681B68002B0BD0BB681B68786AFB
:103510007A68002A0CBF00220122D1B2BA68526830
:1035200098473B6A5B083B627B6A01337B623B6A7C
:10353000002BC0D17B69DA43BB6913403B62FB6956
:103540000133FB61FB69012BB2DD2837BD4680BD2D
:1035500000200C4080B588B004AFF8607B600B465B
:10356000FB721346BB72FA7ABB7A79680091B9692B
:103570000191F9690291F8680121FFF7FBFE044B04
:10358000FA68012101FA02F29A621037BD4680BD45
:1035900000200C4080B584B000AF786039601F4BCC
:1035A0009B68FB607B681B01FA6813443A68926869
:1035B000DA603B681B78002B06D0184B7A68012133
:1035C00001FA02F29A6305E0144B7A68012101FACC
:1035D00002F2DA63114B3A6851687A6802F5886240
:1035E00043F822103B685B78002B0ED00B4B7A68B7
:1035F000012101FA02F203F5805308331A600848EA
:1036000079680122FFF7A0FE04E0054879680022EE
:10361000FFF79AFE1037BD4680BD00BF00200C406A
:103620000C300C4080B487B000AFF8600B467A6075
:10363000FB72FB7A002B03D0154B9B687B6102E089
:10364000134BDB687B61FB681B017A6913447B6168
:103650007B681B789A077B689B781B071A437B68FB
:103660005B789B061A437B689B781B0613431A46BC
:103670007B681B799B041A437B68DB789B031A43A6
:103680007B699A601C37BD465DF8047B704700BFBC
:1036900000200C4080B582B000AF78601048012156
:1036A000FFF726FA00F020F80020FFF733FE002095
:1036B000FFF7FEFD0B4B03F580530C334FF0004238
:1036C0001A60084B7A6852689A60064B7A681278DA
:1036D000520142F001025A600837BD4680BD00BF6A
:1036E0000003020000200C4080B582B000AF002033
:1036F000FFF7F6FD1C4B00225A601B4B40F6FF7291
:10370000DA61194B40F6FF725A62174B40F6FF72AE
:10371000DA62154B40F6FF725A63134B40F6FF72A4
:10372000DA63114B0122DA640F4B03F580530C333B
:1037300000221A600C4B03F5805308330B4A1A60C1
:1037400000237B6009E0084B7A6802F5886200215B
:1037500043F822107B6801337B607B680B2BF2DD22
:103760000837BD4680BD00BF00200C40FF0F008021
:1037700080B500AF01F014FE80BD00BF80B400AF83
:10378000034B0022C3F88420BD465DF8047B7047DC
:1037900000800C4080B400AF044B45F60E02C3F825
:1037A0008420BD465DF8047B704700BF00800C405C
:1037B00080B582B000AF384BD3F8843003F00103FA
:1037C0007B60FFF7E7FF00233B60344B1B6803F08F
:1037D00001033A6813433B60304B1B6803F010034E
:1037E0003A6813433B602D4B1B6803F040033A6873
:1037F00013433B60294B1B6803F004033A681343EF
:103800003B60264B1B6803F480733A6813433B60AC
:10381000214B3A681A62214B1B6803F47053B3F5CD
:10382000805F06D0B3F5005F0ED0B3F5006F16D001
:1038300020E000BF184BDB6A03F08003002BF9D0B7
:10384000154B03225A6215E000BF134BDB6A03F4E9
:103850000073002BF9D0104B04225A620AE000BF1B
:103860000D4BDB6A03F00803002BF9D00A4B022250
:103870005A6200BF094B1B6803F00103002B02D101
:10388000054B02221A627B68002B01D0FFF776FFFE
:103890000837BD4680BD00BF00800C4030030020CB
:1038A00080B483B000AF174B1B699BB203F03F039A
:1038B0009BB21B02FB80134B9B699BB203F0F0038E
:1038C0009AB2FB881343FB800E4BDB6903F0F003D5
:1038D0001B099AB2FB881343FB80FB88B3F5827FF8
:1038E00003D3FB88B3F5017F01D1012300E000235E
:1038F00003F00103DBB218460C37BD465DF8047BCC
:10390000704700BFD0FF0FE080B586B000AF034620
:10391000FB711F4BDA6A1F4B1A601F4B1E4A12695C
:1039200042F004021A61FFF7BBFF0346FB75FB7D03
:10393000002B11D0194B1A68194B1340FB60174B21
:10394000FA68C3F88020154B5B6823F046033B619F
:10395000124B3A69C3F8842030BFFB7D002B05D0A1
:103960000E4BFA681A600D4B3A695A60FB79002BCE
:1039700002D0FFF71DFF07E0064B1B6803F48063CE
:10398000002B01D1FFF7F4FE1837BD4680BD00BF04
:1039900000800C403003002000ED00E000E100E07A
:1039A0009CF1FD0080B586B000AF0346FB71274B4C
:1039B000DA6A274B1A60254BD3F8843003F00103F1
:1039C0007B61FFF7E7FE214B4FF420721A627B699F
:1039D000002B01D0FFF7D2FE1E4B1E4A126942F0A7
:1039E00004021A61FFF75CFF0346FB74FB7C002BAB
:1039F00011D0194B1A68194B1340BB60164BBA68AB
:103A0000C3F88020144B5B6823F04603FB60124B25
:103A1000FA68C3F8842030BFFB7C002B05D00E4B26
:103A2000BA681A600C4BFA685A60FB79002B02D016
:103A3000FFF7BEFE07E0064B1B6803F48063002B14
:103A400001D1FFF795FE1837BD4680BD00800C40C0
:103A50003003002000ED00E000E100E09CF1FD00FB
:103A600080B400AF034BDA6A034B1A60BD465DF8C1
:103A7000047B704700800C403003002080B483B08A
:103A800000AF03463960FB71FB79002B0DD0FB7949
:103A9000012B0AD0FB79022B07D0FB79032B04D032
:103AA000FB79042B01D0FB79052B0948FA793B6897
:103AB000012101FA03F319461346DB0013449B006E
:103AC0000344103359600C37BD465DF8047B7047E2
:103AD0000060004080B483B000AF03463960FB71E2
:103AE000FB79002B0DD0FB79012B0AD0FB79022B3F
:103AF00007D0FB79032B04D0FB79042B01D0FB7991
:103B0000052B0948FA793B68012101FA03F31946AC
:103B10001346DB0013449B000344103319600C3739
:103B2000BD465DF8047B70470060004090B482B0F1
:103B300000AF02460B46FA71BB71FB79002B0ED029
:103B4000FB79012B0BD0FB79022B08D0FB79032BDF
:103B500005D0FB79042B02D0FB79052B03D1BB796F
:103B6000032B00D800BF0C48FA790B4CF9790B46AF
:103B7000DB000B449B0023441B6823F00301BB794B
:103B800019431346DB0013449B00034419600837B4
:103B9000BD4690BC704700BF0060004090B585B046
:103BA00000AFB9607B600346FB731346BB73FB7BBE
:103BB000002B0DD0FB7B012B0AD0FB7B022B07D007
:103BC000FB7B032B04D0FB7B042B01D0FB7B052B61
:103BD000BB7B002B0DD07B68002B05D0FB7B1846F0
:103BE000B968FFF777FF04E0FB7B1846B968FFF779
:103BF00045FFBB68072B1DD82B48FA7B2A4CF97B65
:103C00000B46DB000B449B0023445968BB689B00B8
:103C10000F2404FA03F3DB431940BC7BBB689B0011
:103C200004FA03F319431346DB0013449B000344D7
:103C3000596024E01C48FA7B1B4CF97B0B46DB00E7
:103C40000B449B00234408331968BB6803F180438D
:103C5000083B9B000F2404FA03F3DB431940BC7BB1
:103C6000BB6803F18043083B9B0004FA03F319434C
:103C70001346DB0013449B00034408331960BB7BED
:103C8000002B0DD17B68002B05D0FB7B1846B96853
:103C9000FFF720FF04E0FB7B1846B968FFF7EEFE54
:103CA0001437BD4690BD00BF0060004080B489B0AD
:103CB00000AF78607A689D4B9A4203D07A689C4B3B
:103CC0009A4200D100BF7A68984B9A4202D1994B30
:103CD000BB6108E07A68964B9A4202D1964BBB6171
:103CE00001E0FC2300E2BB699B687B617B689B6A07
:103CF0003B613B6903F4C063002B14D03B6903F4C0
:103D00000073002B03D0BB69FD225A7007E03B69AA
:103D100003F48063002B02D0BB69FE225A70BB699A
:103D200009221A70CCE1BB691B78082B00F2C08114
:103D300001A252F823F000BF5D3D0000AF3D00003E
:103D4000353E0000873E0000D93E00003D3F0000A8
:103D5000C53F000003400000954000007B695B8880
:103D600003F01003002B09D07B691B881B0A9BB250
:103D700003F0060343F0F003FB610EE07B691B8850
:103D800003F0FE03FB617B695B8803F00203002BF9
:103D900003D0FB6943F00103FB61BB6901221A7088
:103DA0007B68FA695A627B6801225A6088E13B6944
:103DB00003F08003002B0CD07B6880221A63BB6960
:103DC000FF225A70BB6908221A707B6802225A606F
:103DD0002FE03B6903F04003002B2AD07B68402290
:103DE0001A637B695B8803F01003002B08D0BB6962
:103DF00002221A707B691B88DAB27B685A6218E06B
:103E00007B695B8803F00203002B0ED0BB6907229D
:103E10001A70BB691B797A69DB0013441B89012B7B
:103E200007D17B6808225A604AE1BB6905221A70F3
:103E300045E145E13B6903F08003002B0CD07B6832
:103E400080221A63BB69FF225A70BB6908221A706C
:103E50007B6802225A6015E03B6903F04003002BA7
:103E600010D07B6840221A637B695B8803F00203F1
:103E7000002B03D0BB6903221A7020E1BB69052225
:103E80001A701CE11CE17B695B8803F01003002BB6
:103E900009D07B691B881B0A9BB203F0060343F021
:103EA000F003FB6104E07B691B8803F0FE03FB6108
:103EB0007B695B8803F00403002B03D0FB6943F0AC
:103EC0000103FB61BB6904221A707B6801225A60FE
:103ED0007B68FA695A62F3E03B6903F08003002BC8
:103EE0000CD07B6880221A63BB69FF225A70BB69C1
:103EF00008221A707B6802225A6015E03B6903F0C1
:103F00004003002B10D07B6840221A637B695B88DA
:103F100003F00403002B03D0BB6907221A7003E0EF
:103F2000BB6905221A70CAE0CAE000BF00A00040C9
:103F300000A400403403002040030020BB695A88DD
:103F4000BB691B797969DB000B441B899A4224D336
:103F5000BB6900225A80BB691B790133DAB2BB69A5
:103F60001A717B695B8803F00403002B03D0BB69E3
:103F700003221A70A3E07B695B8803F00103002B26
:103F800003D1BB691B79012B06D9BB6908221A70C2
:103F90007B6802225A6093E091E0BB691B797A69E1
:103FA000DB0013445A68BB695B88591C88B2B96945
:103FB000488013441B781A467B685A62BB69062204
:103FC0001A707DE03B6903F08003002B0CD07B6806
:103FD00080221A63BB69FF225A70BB6908221A70DB
:103FE0007B6802225A600BE03B6903F04003002B20
:103FF00006D07B6840221A63BB6905221A705EE016
:104000005EE03B6903F02003002B42D0BB691B79C3
:104010007A69DB0013441B89FB607B68DB69FB72F8
:10402000BB695B881A46FB689A420ED2BB691B7952
:104030007A69DB0013445A68BB695B88591C88B2F3
:10404000B96948801344FA7A1A70BB695B881A46CA
:10405000FB689A420CD3FB68012B02D17B680822D3
:104060005A60BB6908221A707B6802225A6010E00D
:104070007B6804225A60FB68012B0AD9BB695B8804
:104080001A46FB68013B9A4203D17B6808225A60BA
:1040900016E015E03B6903F48073002B07D07B68C2
:1040A0004FF480721A63BB6909221A7008E007E0B6
:1040B000BB69FB225A70BB6909221A7000E015E641
:1040C000BB691B78092B0BD17B6800225A63BB6943
:1040D0005B785BB2012B05D1BB6900225A7001E00D
:1040E000012301E0BB695B785BB218462437BD460B
:1040F0005DF8047B704700BF80B584B000AF786086
:1041000039607A68304B9A4203D07A682F4B9A42D2
:1041100000D100BF7A682C4B9A4202D12C4BFB6035
:1041200008E07A68294B9A4202D12A4BFB6001E0F1
:10413000FC2343E07B689B6803F00103002B02D063
:104140007B6820225A603B685B8803F00203002BE7
:1041500003D03B681B89002B09D03B685B8803F0C8
:104160000403002B05D03B681B8A002B01D1FC23E4
:1041700024E0FB6800221A70FB6801225A70FB6879
:1041800000225A80FB6800221A71FB683A689A6024
:104190007B68C0225A607B689B6A03F02003002B77
:1041A00001D07B68DB697B680B4A1A637B684FF43C
:1041B000FC625A637868FFF779FD03465BB21846E4
:1041C0001037BD4680BD00BF00A0004000A40040E5
:1041D0003403002040030020CFFF010080B483B0EF
:1041E00000AF0346FB71FB79002B06D0084B084A51
:1041F000126842F001021A6005E0054B044A126899
:1042000022F001021A600C37BD465DF8047B70474E
:1042100000A0084080B483B000AF0346FB71FB7977
:10422000002B06D0084B084AD26842F00402DA603C
:1042300005E0054B044AD26822F00402DA600C372C
:10424000BD465DF8047B704700A0084080B483B091
:1042500000AF0346FB71FB79002B06D0084B084AE0
:10426000D26842F48072DA6005E0054B044AD268F5
:1042700022F48072DA600C37BD465DF8047B70472B
:1042800000A0084080B487B000AFF860B9607A60E1
:10429000FB6803F10473DA00BB6813449B007B6185
:1042A0007B697A681A601C37BD465DF8047B7047ED
:1042B00080B584B000AF7860184B5B68FB6000206D
:1042C000FFF78CFFFB6823F4830323F01F03FB60DD
:1042D0007B685B68FA681343FB607B681B7AFA684B
:1042E0001343FB607B685B7AFA681343FB607B686F
:1042F000DB68FA681343FB607B681B8AFA68134328
:10430000FB60064BFA685A607B681B78002B02D072
:104310000120FFF763FF1037BD4680BD00A00840B5
:1043200080B485B000AF78600D4B5B68FB60FB68C4
:1043300023F48033FB607B68002B08D0B3F5803F0B
:1043400000D005E0FB6843F48033FB6000E000BF71
:10435000034BFA685A601437BD465DF8047B70471A
:1043600000A0084080B584B000AF78600E4BDB68D9
:10437000FB60FB6823F47F03FB607B685B689B0446
:10438000FA681343FB607B689B68FA681343FB6021
:10439000054BFA68DA607B681B781846FFF756FF12
:1043A0001037BD4680BD00BF00A0084080B584B076
:1043B00000AF78601D4BDB68FB601C4B7A6852686D
:1043C0005A611A4B7A68D2689A61FB6823F0F80345
:1043D000FB607B681B7ADB00FA681343FB607B6839
:1043E0001B7C5B01FA681343FB607B685B7CFA68AB
:1043F0001343FB60FB6823F08053FB607B685B69C1
:10440000002B07D07B685B69082B03D1FB6843F066
:104410008053FB60054BFA68DA607B681B781846AE
:10442000FFF7F8FE1037BD4680BD00BF00A0084072
:1044300080B483B000AF02460B46FA807B717B7973
:10444000002B06D0094B094A9168FA880A439A6002
:1044500006E0064B054A9168FA88D2430A409A6002
:104460000C37BD465DF8047B704700BF00A00840D4
:1044700080B584B000AFF860B9601346FB71FB688B
:10448000072B00F2C38001A252F823F0AD440000D4
:10449000D944000005450000314500005D4500009D
:1044A00089450000B5450000E1450000BB681F2BB1
:1044B00007DCBA68FB79574811461A46FFF7E2FE57
:1044C000A5E0BB68203BBB60BA68FB795248114647
:1044D0001A46FFF7D7FE9AE0BB681F2B07DCBA68C5
:1044E000FB794E4811461A46FFF7CCFE8FE0BB68B9
:1044F000203BBB60BA68FB79494811461A46FFF772
:10450000C1FE84E0BB681F2B07DCBA68FB79454815
:1045100011461A46FFF7B6FE79E0BB68203BBB6048
:10452000BA68FB79404811461A46FFF7ABFE6EE0C9
:10453000BB681F2B07DCBA68FB793C4811461A465A
:10454000FFF7A0FE63E0BB68203BBB60BA68FB7965
:10455000374811461A46FFF795FE58E0BB681F2BF7
:1045600007DCBA68FB79334811461A46FFF78AFE22
:104570004DE0BB68203BBB60BA68FB792E48114612
:104580001A46FFF77FFE42E0BB681F2B07DCBA68C4
:10459000FB792A4811461A46FFF774FE37E0BB68DC
:1045A000203BBB60BA68FB79254811461A46FFF7E5
:1045B00069FE2CE0BB681F2B07DCBA68FB79214839
:1045C00011461A46FFF75EFE21E0BB68203BBB6048
:1045D000BA68FB791C4811461A46FFF753FE16E0ED
:1045E000BB681F2B07DCBA68FB79184811461A46CE
:1045F000FFF748FE0BE0BB68203BBB60BA68FB7965
:10460000134811461A46FFF73DFE00E000BF103781
:10461000BD4680BD40A0084050A0084044A00840CE
:1046200054A0084048A0084058A008404CA00840AA
:104630005CA00840CCA00840B4A00840D0A008402E
:10464000B8A00840D4A00840BCA00840D8A00840AA
:10465000C0A0084080B487B000AFF860B9607A604D
:10466000FB68072B00F2AC8001A252F823F000BFD8
:1046700091460000B5460000D9460000FD46000006
:10468000214700004947000071470000994700009A
:104690004E4B1B6C7B61BB68DB437A6913407B61CB
:1046A000BA687B6813407A6913437B61474B7A6928
:1046B0001A6486E0454B5B6C7B61BB68DB437A69BF
:1046C00013407B61BA687B6813407A6913437B614E
:1046D0003E4B7A695A6474E03C4B9B6C7B61BB68CF
:1046E000DB437A6913407B61BA687B6813407A695F
:1046F00013437B61354B7A699A6462E0334BDB6C20
:104700007B61BB68DB437A6913407B61BA687B6875
:1047100013407A6913437B612C4B7A69DA6450E069
:104720002A4BD3F8CC307B61BB68DB437A691340FA
:104730007B61BA687B6813407A6913437B61234BC2
:104740007A69C3F8CC203CE0204BD3F8D0307B61B1
:10475000BB68DB437A6913407B61BA687B681340AE
:104760007A6913437B61194B7A69C3F8D02028E03A
:10477000164BD3F8D4307B61BB68DB437A691340B6
:104780007B61BA687B6813407A6913437B610F4B86
:104790007A69C3F8D42014E00C4BD3F8D8307B618D
:1047A000BB68DB437A6913407B61BA687B6813405E
:1047B0007A6913437B61054B7A69C3F8D82000E01E
:1047C00000BF1C37BD465DF8047B704700A0084061
:1047D00080B487B000AFF860B9607A60FB68072BDF
:1047E00000F2AC8001A252F823F000BF0D48000097
:1047F0003148000055480000794800009D480000FD
:10480000C5480000ED480000154900004E4B1B6DE7
:104810007B61BB68DB437A6913407B61BA687B6864
:1048200013407A6913437B61474B7A691A6586E0C6
:10483000454B5B6D7B61BB68DB437A6913407B61F1
:10484000BA687B6813407A6913437B613E4B7A698F
:104850005A6574E03C4B9B6D7B61BB68DB437A69B6
:1048600013407B61BA687B6813407A6913437B61AC
:10487000354B7A699A6562E0334BDB6D7B61BB68CF
:10488000DB437A6913407B61BA687B6813407A69BD
:1048900013437B612C4B7A69DA6550E02A4BD3F8DD
:1048A000B4307B61BB68DB437A6913407B61BA68D3
:1048B0007B6813407A6913437B61234B7A69C3F8A1
:1048C000B4203CE0204BD3F8B8307B61BB68DB43BD
:1048D0007A6913407B61BA687B6813407A69134335
:1048E0007B61194B7A69C3F8B82028E0164BD3F8DE
:1048F000BC307B61BB68DB437A6913407B61BA687B
:104900007B6813407A6913437B610F4B7A69C3F864
:10491000BC2014E00C4BD3F8C0307B61BB68DB4398
:104920007A6913407B61BA687B6813407A691343E4
:104930007B61054B7A69C3F8C02000E000BF1C37DB
:10494000BD465DF8047B704700A0084080B483B08A
:1049500000AF7860064B064A526822F4F8517A6834
:1049600012020A435A600C37BD465DF8047B70475B
:1049700000A0084080B483B000AF7860064B064AC0
:10498000526822F4E0117A680A435A600C37BD4637
:104990005DF8047B704700BF00A0084080B487B07A
:1049A00000AFF860B9607A60FB6803F10473DA0065
:1049B000BB6813449B007B617B697A681A601C3773
:1049C000BD465DF8047B704780B582B000AF78606B
:1049D0000B46FB70FB78002B01D000F0A5FA7B683A
:1049E0001B7D184600F020F9504B7A6852789100F0
:1049F0007A68927811437A68926811437A68D2682B
:104A000011437A68D278520211437A68127992027D
:104A100011437A685279520311437A6892795204A9
:104A200011437A68D279120411437A68527C920554
:104A30000A431A607B681B781846002100F0D6F8FC
:104A40003A4B7A68127E11467A68527E9200114380
:104A50007A68927E920111437A68D27E52001143A5
:104A60007A68127F120111437A68527F1202114351
:104A70007A68927F920211437A68126A11437A68C7
:104A800092F82420120511437A6892F825209205A5
:104A900011437A68926A0A439A60244B7A68928D2D
:104AA00011467A6892F83B20920211437A6892F894
:104AB0003C20920311437A6892F83D2092041143FE
:104AC0007A6892F83E20920511437A6892F8342071
:104AD000520011437A6892F83520920011437A68A7
:104AE00092F83620D20011437A6892F837201201EA
:104AF00011437A6892F83820520111437A6892F88B
:104B00003920920111437A6892F83A20D2010A437F
:104B1000DA607B681B6B184600F0DCF9034B7A689F
:104B2000127C1A610837BD4680BD00BF00C0084036
:104B300080B588B000AF786039600023FB61012345
:104B4000BB613F237B617B68002B03D12548FEF7C7
:104B50003BF878603B68002B04D03A687B689A4247
:104B600000D808E007E0FB690133FB61FB69012223
:104B700002FA03F3BB613B68BA6902FB03F37A688C
:104B8000B2FBF3F27B6901339A4202D9FB69062B2F
:104B9000E9D93B68BA6902FB03F37A68B2FBF3F325
:104BA000013B7B61104B5B6823F47F2323F4E063BC
:104BB0003B61FB691A027B691B0313433A69134388
:104BC0003B61094B3A695A607B690133BA6902FB60
:104BD00003F37A68B2FBF3F3FB60FB6818462037F7
:104BE000BD4680BD6006280000C0084080B584B086
:104BF00000AF02460B46FA71BB710A4B1B6823F0EB
:104C00000303FB60FB79FA681343FB60054BFA680A
:104C10001A60BB79002B01D000F06CF91037BD464B
:104C200080BD00BF00C0084080B485B000AF03461F
:104C3000FB71094B5B6823F44003FB60FB799B0528
:104C4000FA681343FB60044BFA685A601437BD4698
:104C50005DF8047B704700BF00C0084080B485B099
:104C600000AF02460B46FA71BB71FB79002B0FD0E7
:104C7000012B00D01AE0104B5B6823F00303FB60AC
:104C8000BB79FA681343FB600B4BFA685A600DE07E
:104C9000094B5B6823F07003FB60BB791B01FA686A
:104CA0001343FB60044BFA685A6000BF1437BD46DB
:104CB0005DF8047B704700BF00C0084080B584B039
:104CC00000AF786039607B685B68B3F5C03F0BD19B
:104CD0003B68022B08D03B68032B05D03B68042BB4
:104CE00002D03B68052B00D100BF7B681B7A032BE9
:104CF0000BD13B680C2B08D03B680D2B05D03B68D3
:104D00000E2B02D03B680F2B00D100BF7B681B7AB3
:104D1000032B0BD13B68002B08D03B68012B05D03F
:104D20003B68022B02D03B68032B00D100BF394BFC
:104D30009A6B3B685B00032101FA03F3DB431340EA
:104D4000FB607B681B7A1A463B685B0002FA03F340
:104D5000FA681343FB602F4BFA689A633B68D8B23A
:104D60007B68D97B7B681A7C7B685B7C00F05AF897
:104D700028497B685B7B5A047B689B7B9B041A43B6
:104D80007B689B8A1A437B68DB8A1A437B685B6873
:104D90001A437B685B7ADB041A433B682C331B01A4
:104DA0000B445A601B497B68DA697B689B7A5B0419
:104DB0001A437B681B7B9B041A437B68DB7ADB040A
:104DC0001A433B681B010B4403F532731A603B68BE
:104DD000D9B27B685A8A7B681B8B084611461A46F3
:104DE00000F03CF87B689B780B4839681A46FFF75F
:104DF000D5FD7B685B78094839681A46FFF7CEFD18
:104E00007B681B78064839681A46FFF7C7FD1037DC
:104E1000BD4680BD00C008404CC0084054C008409A
:104E200018C0084080B483B000AFF871B9717A71CE
:104E30003B710949FB79B8797A79920110433A7943
:104E4000520302432C331B010B441A600C37BD463E
:104E50005DF8047B704700BF00C0084080B485B097
:104E600000AF13460246FA710A46BA807B80184AA0
:104E7000FB792C331B0113445B6823F47F6323F01D
:104E80000F03FB60BB88FA681343FB60104AFB7991
:104E90002C331B011344FA685A600D4AFB791B013D
:104EA000134403F532731B681B0C1B04FB607B88E7
:104EB000FA681343FB60064AFB791B01134403F5B0
:104EC0003273FA681A601437BD465DF8047B704788
:104ED00000C0084080B483B000AF7860044B7A68AB
:104EE00002F00F021A630C37BD465DF8047B704771
:104EF00000C0084080B400AF00BF0A4B1B6D03F038
:104F00002003002BF9D1074B01225A6100BF054B4A
:104F10001B6D03F02003002BF9D1BD465DF8047B27
:104F2000704700BF00C0084080B483B000AF374B6B
:104F30000022DA64354B364A5A64344B334AD2681D
:104F400042F00102DA6000BF304B1B6D03F020031A
:104F5000002BF9D12D4B0A225A612C4B00221A60EA
:104F60002A4B00229A60294B0022DA60274B00224C
:104F70001A61264B00229A61244B00229A63234B2C
:104F80000022DA63214B00225A6500237B6018E07F
:104F90001E4A7B682C331B01134400221A601B4AF3
:104FA0007B682C331B01134400225A60174A7B682C
:104FB0001B01134403F5327300221A607B6801332E
:104FC0007B607B680F2BE3D900237B600FE00F4BE6
:104FD0007A684032002143F832100C4A7B68403333
:104FE000DB00134400225A607B6801337B607B68DE
:104FF0000F2BECD900BF054B1B6D03F02003002BDA
:10500000F9D10C37BD465DF8047B704700C00840FD
:10501000FFFF7F0080B487B000AFF860B9607A60AE
:10502000FA68114B9A4208D1BB68012B05D87B68FE
:105030001B0C1B04002B00D100BFBB68002B02D04F
:10504000012B04D00AE0FB6810337B6103E0FB68AE
:1050500014337B6100BF7B697A681A601C37BD46D8
:105060005DF8047B704700BF0020084080B483B027
:1050700000AF78600B46FB70FB78002B03D07B6899
:1050800001225A6002E07B6802225A600C37BD465A
:105090005DF8047B704700BF80B485B000AF7860D6
:1050A00039600023FB603B681B7883F00103DBB2AF
:1050B000002B08D07B689B6803F00103002B02D013
:1050C0007B6802225A603B685B78002B03D0FB6848
:1050D00043F48053FB603B689B78002B03D0FB6854
:1050E00043F48063FB603B68DB78002B03D0FB68F4
:1050F00043F40063FB603B681B79002B03D0FB6823
:1051000043F40073FB603B685B79002B03D0FB68C2
:1051100043F48073FB603B689B79002B03D0FB68F2
:1051200043F04003FB603B68DB79002B03D0FB6856
:1051300043F08003FB603B681B7A9B00FA681343D3
:10514000FB603B685B7A1B01FA681343FB603B68BA
:105150009B7AFA681343FB607B68FA681A603B68C5
:105160001B78002B08D07B689B6803F00103002BA1
:1051700002D17B6801225A601437BD465DF8047B7A
:10518000704700BF80B483B000AF786039607B683F
:105190001B6C03F00103002B00D006E000BF7B680E
:1051A0005A6C3B681340002BF9D10C37BD465DF8B3
:1051B000047B704780B582B000AF78600B46FB700F
:1051C00000BF7B689B6803F01003002BF9D0786860
:1051D0004021FFF7D7FFFA787B689A620837BD460F
:1051E00080BD00BF80B487B000AFF860B9607A605E
:1051F000FB6803F10473DA00BB6813449B007B6116
:105200007B697A681A601C37BD465DF8047B70477D
:1052100080B485B000AF786039607B68012B05D819
:105220003B6803F07F43002B00D100BF7B68002B5D
:1052300002D0012B03D008E0064BFB6002E0064BD6
:10524000FB6000BFFB683A681A601437BD465DF822
:10525000047B7047080008400C00084080B582B00D
:1052600000AF0346FB71FB79034800211A46FFF7A4
:10527000B9FF0837BD4680BD0000084080B485B046
:1052800000AF78607B681B78002B02D00123FB60A5
:1052900001E00023FB607B685B78002B03D0FB6898
:1052A00043F00203FB607B689B78002B03D0FB6814
:1052B00043F00403FB60044BFA681A601437BD46E0
:1052C0005DF8047B704700BF0000084080B500AF68
:1052D0000020FFF7C3FF0120FFF7C0FF80BD00BF24
:1052E00080B485B000AF7860194B5B69DBB203F026
:1052F0000F03DBB29B00FB73154B1B6903F0C0036C
:105300009B09DAB2FB7B1343FB737B68FA7B9A70D1
:105310000F4B1B69DBB203F03F03DAB27B685A70B4
:105320000B4B9B69DBB223F00F03FB73084BDB696C
:1053300003F0F0031B09DAB2FB7B1343FB737B68BA
:10534000FA7B1A701437BD465DF8047B704700BFC6
:10535000D0FF0FE0064880470649074A074B9A42AC
:10536000BEBF51F8040B42F8040BF8E7FAF7E2FE6F
:10537000015500001C68000000000020780000209B
:10538000FEE700BF80B400AF044BDB6C1B0EDBB24A
:105390001846BD465DF8047B704700BFB081E00F42
:1053A00080B582B000AF00F01FF87860074B5B68F3
:1053B00003F00F037A6822FA03F37B60044B7A68E8
:1053C0001A607B6818460837BD4680BD00800C40D7
:1053D000240E002080B400AF024B1846BD465DF895
:1053E000047B7047006CDC0280B582B000AF334BA9
:1053F000DB6A03F47053B3F5805F0AD0B3F5005F46
:1054000003D0B3F5006F08D00BE02D4B1B687B6019
:1054100047E04FF400437B6043E02A4B1B687B600E
:105420003FE0264BDB6803F4E063B3F5007F1BD05D
:10543000B3F5007F05D8002B24D0B3F5807F16D0BC
:105440002BE0B3F5806F09D0B3F5A06F03D0B3F5AF
:10545000407F06D021E01C4B7B6021E01B4B7B6032
:105460001EE01B4B7B601BE01A4B7B6018E0FFF7D4
:1054700089FF0346122B02D9174B7B6010E0174BB4
:105480007B600DE0FFF77EFF0346122B02D9144B21
:105490007B6005E0134B7B6002E000237B6000BF74
:1054A00000BF064B1B6803F4E0339B0B01337A68A3
:1054B000B2FBF3F318460837BD4680BD00800C40B0
:1054C0000800002004000020003FAB01406F4001B5
:1054D000809FD500C0D8A70040B56400C0CF6A0047
:1054E000804F120040420F0080B400AF034B1B6896
:1054F0001846BD465DF8047B704700BF04000020DD
:1055000080B400AFBD465DF8047B704780B400AF47
:105510004FF400431846BD465DF8047B704700BF5A
:1055200080B400AF4FF47A731846BD465DF8047B33
:10553000704700BF80B400AF034B1B681846BD46E0
:105540005DF8047B704700BF0800002081F0004137
:1055500002E000BF83F0004330B54FEA41044FEA58
:10556000430594EA050F08BF90EA020F1FBF54EAF3
:10557000000C55EA020C7FEA645C7FEA655C00F08F
:10558000E2804FEA5454D4EB5555B8BF6D420CDD60
:105590002C4480EA020281EA030382EA000083EAE3
:1055A000010180EA020281EA0303362D88BF30BD83
:1055B00011F0004F4FEA01314FF4801C4CEA1131D9
:1055C00002D0404261EB410113F0004F4FEA033338
:1055D0004CEA133302D0524263EB430394EA050FC3
:1055E00000F0A780A4F10104D5F1200E0DDB02FA32
:1055F0000EFC22FA05F2801841F1000103FA0EF2C6
:10560000801843FA05F359410EE0A5F120050EF18B
:10561000200E012A03FA0EFC28BF4CF0020C43FABC
:1056200005F3C01851EBE37101F0004507D54FF0C9
:10563000000EDCF1000C7EEB00006EEB0101B1F519
:10564000801F1BD3B1F5001F0CD349085FEA30005F
:105650004FEA3C0C04F101044FEA445212F5800F6A
:1056600080F09A80BCF1004F08BF5FEA500C50F107
:10567000000041EB045141EA050130BD5FEA4C0CEA
:10568000404141EB010111F4801FA4F10104E9D173
:1056900091F0000F04BF01460020B1FA81F308BF6A
:1056A0002033A3F10B03B3F120020CDA0C3208DD36
:1056B00002F1140CC2F10C0201FA0CF021FA02F111
:1056C0000CE002F11402D8BFC2F1200C01FA02F181
:1056D00020FA0CFCDCBF41EA0C019040E41AA2BFA6
:1056E00001EB0451294330BD6FEA04041F3C1CDA6E
:1056F0000C340EDC04F11404C4F1200220FA04F08E
:1057000001FA02F340EA030021FA04F345EA030137
:1057100030BDC4F10C04C4F1200220FA02F001FAF9
:1057200004F340EA0300294630BD21FA04F029467B
:1057300030BD94F0000F83F4801306BF81F4801114
:105740000134013D4EE77FEA645C18BF7FEA655C87
:1057500029D094EA050F08BF90EA020F05D054EA59
:10576000000C04BF1946104630BD91EA030F1EBF5E
:105770000021002030BD5FEA545C05D14000494162
:1057800028BF41F0004130BD14F580043CBF01F555
:10579000801130BD01F0004545F0FE4141F470013B
:1057A0004FF0000030BD7FEA645C1ABF1946104616
:1057B0007FEA655C1CBF0B46024650EA013406BF17
:1057C00052EA033591EA030F41F4002130BD00BFD6
:1057D00090F0000F04BF0021704730B54FF4806493
:1057E00004F132044FF000054FF0000150E700BF14
:1057F00090F0000F04BF0021704730B54FF4806473
:1058000004F1320410F0004548BF40424FF000015F
:105810003EE700BF42004FEAE2014FEA31014FEAA2
:1058200002701FBF12F07F4393F07F4F81F06051F1
:10583000704792F0000F14BF93F07F4F704730B560
:105840004FF4607401F0004521F0004120E700BFF3
:1058500050EA010208BF704730B54FF000050AE07A
:1058600050EA010208BF704730B511F0004502D57B
:10587000404261EB41014FF4806404F132045FEA7D
:10588000915C3FF4DCAE4FF003025FEADC0C18BF22
:1058900003325FEADC0C18BF033202EBDC02C2F118
:1058A000200300FA03FC20FA02F001FA03FE40EAAA
:1058B0000E0021FA02F11444C1E600BF70B54FF0AA
:1058C000FF0C4CF4E06C1CEA11541DBF1CEA13558C
:1058D00094EA0C0F95EA0C0F00F0DEF82C4481EAF4
:1058E000030621EA4C5123EA4C5350EA013518BF14
:1058F00052EA033541F4801143F4801338D0A0FB01
:1059000002CE4FF00005E1FB02E506F00042E0FBAD
:1059100003E54FF00006E1FB03569CF0000F18BFB3
:105920004EF0010EA4F1FF04B6F5007F64F540745B
:1059300004D25FEA4E0E6D4146EB060642EAC621EE
:1059400041EA55514FEAC52040EA5E504FEACE2E5B
:10595000B4F1FD0C88BFBCF5E06F1ED8BEF1004F5E
:1059600008BF5FEA500E50F1000041EB045170BDDA
:1059700006F0004646EA010140EA020081EA03011E
:10598000B4EB5C04C2BFD4EB0C0541EA045170BD1A
:1059900041F480114FF0000E013C00F3AB8014F194
:1059A000360FDEBF002001F0004170BDC4F10004DD
:1059B000203C35DA0C341BDC04F11404C4F120055E
:1059C00000FA05F320FA04F001FA05F240EA0200B9
:1059D00001F0004221F0004110EBD37021FA04F6EF
:1059E00042EB06015EEA430E08BF20EAD37070BDA9
:1059F000C4F10C04C4F1200500FA04F320FA05F008
:105A000001FA04F240EA020001F0004110EBD37009
:105A100041F100015EEA430E08BF20EAD37070BD79
:105A2000C4F1200500FA05F24EEA020E20FA04F352
:105A300001FA05F243EA020321FA04F001F0004101
:105A400021FA04F220EA020000EBD3705EEA430E72
:105A500008BF20EAD37070BD94F0000F0FD101F0A1
:105A60000046400041EB010111F4801F08BF013CDA
:105A7000F7D041EA060195F0000F18BF704703F018
:105A80000046520043EB030313F4801F08BF013D9F
:105A9000F7D043EA0603704794EA0C0F0CEA13555B
:105AA00018BF95EA0C0F0CD050EA410618BF52EA15
:105AB0004306D1D181EA030101F000414FF000001B
:105AC00070BD50EA410606BF1046194652EA430629
:105AD00019D094EA0C0F02D150EA013613D195EA9D
