:1000000000800020613D00008D3D00008D3D00001E
:100010008D3D00008D3D00008D3D00008D3D0000B8
:100020008D3D00008D3D00008D3D00008D3D0000A8
:100030008D3D00008D3D00008D3D00008D3D000098
:10004000012C00008D3D0000110F00008D3D0000CF
:100050008D3D00008D3D0000510D00008D3D0000E4
:100060008D3D00008D3D00008D3D00008D3D000068
:100070008D3D00008D3D00008D3D00008D3D000058
:100080008D3D00003D0700008D3D00008D3D0000CE
:100090008D3D00008D3D00008D3D00008D3D000038
:1000A000D51700008D3D0000250500008D3D0000A6
:1000B0008D3D00008D3D0000791900008D3D000050
:1000C0008D3D00008D3D00008D3D00008D3D000008
:1000D0008D3D00008D3D00008D3D00008D3D0000F8
:1000E00010B5054C237833B9044B13B10448AFF372
:1000F00000800123237010BD0001002000000000DB
:100100003846000008B5064B1BB106480649AFF358
:1001100000800648036813B1054B03B1984708BD3A
:100120000000000038460000040100208400002088
:1001300000000000154B002B08BF134B9D46A3F594
:10014000803A00218B460F461348144A121A04F0D5
:1001500057FA0F4B002B00D098470E4B002B00D0C6
:1001600098470020002104000D000D48002802D00F
:100170000C48AFF3008004F01DFA2000290001F0C4
:100180007DFB04F003FA00BF00000800008000209F
:10019000000000000000000000010020340C0020DE
:1001A000000000000000000080B483B000AF0346F0
:1001B0003960FB71FB79002B0DD0FB79012B0AD044
:1001C000FB79022B07D0FB79032B04D0FB79042B9E
:1001D00001D0FB79052B0948FA793B68012101FA26
:1001E00003F319461346DB0013449B00034410330A
:1001F00059600C37BD465DF8047B704700600040D5
:1002000080B483B000AF03463960FB71FB79002BEB
:100210000DD0FB79012B0AD0FB79022B07D0FB799B
:10022000032B04D0FB79042B01D0FB79052B094863
:10023000FA793B68012101FA03F319461346DB0002
:1002400013449B000344103319600C37BD465DF81E
:10025000047B70470060004080B483B000AF034669
:100260003960FB71FB79002B0DD0FB79012B0AD093
:10027000FB79022B07D0FB79032B04D0FB79042BED
:1002800001D0FB79052B0948FA793B68012101FA75
:1002900003F319461346DB0013449B000344183351
:1002A00019600C37BD465DF8047B70470060004064
:1002B00080B582B000AF0346FB712F48012101F0E9
:1002C000F7FF022006210022002303F029F8042072
:1002D00002210422002303F023F804200321042236
:1002E000002303F01DF8022005210822012303F05A
:1002F00017F8022004210822012303F011F801203D
:100300000C210822012303F00BF801200B21082205
:10031000012303F005F8032001210122002302F04C
:10032000FFFF032000210422002302F0F9FF032035
:1003300007210B22012302F0F3FF032006210B22E9
:10034000012302F0EDFF0420012102F0B1FF0320A0
:10035000012102F0ADFF032004210422012302F059
:10036000DFFF032005210422012302F0D9FF00232F
:1003700018460837BD4680BD00D2040080B582B063
:1003800000AF0B463A600246FA71BB71FB79002B55
:1003900005D1BB7918463968FFF732FF13E0FB79C6
:1003A000012B05D1BB7918463968FFF7FDFE0AE03D
:1003B000FB79022B05D1BB7918463968FFF74CFF52
:1003C00001E0012300E0002318460837BD4680BD48
:1003D00080B485B000AF786039607B6803F1047346
:1003E000DA003B6813449B00FB60FB681B681846FF
:1003F0001437BD465DF8047B704700BF80B582B0FE
:1004000000AF03463960FB71FB79002B0DD0FB79FF
:10041000012B0AD0FB79022B07D0FB79032B04D0E8
:10042000FB79042B01D0FB79052BFA791346DB000D
:1004300013449B000C3303F1804303F5C04318467B
:100440003968FFF7C5FF034618460837BD4680BD2B
:1004500080B400AF72B6084B1B68B3F1FF3F04D005
:10046000054B1B685A1C044B1A60034B1B6818464B
:10047000BD465DF8047B70478401002080B483B0E2
:1004800000AF0C4B1B68002B0DD00A4B1B685A1E8B
:10049000084B1A60074B1B687B607B68002B00D100
:1004A00062B67B6800E0002318460C37BD465DF855
:1004B000047B70478401002080B483B000AF786073
:1004C00039607B683A689A620C37BD465DF8047BF8
:1004D000704700BF80B483B000AF78600B46FB70FC
:1004E000FA787B685A600C37BD465DF8047B70472C
:1004F00080B483B000AF7860034B7A685A640C37DD
:10050000BD465DF8047B704700C0084080B400AF72
:10051000034B1B6C1846BD465DF8047B704700BF5B
:1005200000C0084080B584B002AF00237B60FFF7B5
:100530008FFF022001F0A0FA31480121FFF7BCFF34
:10054000304B9B6803F002035A082F4B1A602F4B65
:100550001B68002B29D12D4B01221A60284B002249
:10056000DA602B4B00221A602A4B1B78002B03D138
:10057000284B01221A7011E0264B1B78012B03D166
:10058000244B02221A7009E0224B1B78022B05D162
:10059000032001F071FA1F4B00221A701848002145
:1005A0004FF6DE7203F016FB0FE0184B1B68012BB1
:1005B0000BD1164B00221A60114B0022DA60104852
:1005C000002143F61F0203F005FB104B1B68012BB3
:1005D00011D1012001F050FA0F4B009340F2F313B8
:1005E00001930020012100220C4B02F075FB0C4806
:1005F0000121FFF76FFFFFF741FF0837BD4680BDC0
:100600000020084000100040880100202401002044
:100610002001002028010020242000408C0100201F
:100620000020004080B588B000AFF8600B467A60CB
:10063000FB7200237B610023FB614FF000033B61F1
:10064000364B364A526842F002025A60012001F0ED
:1006500029FA0023BB610BE0314BBA6933F8123041
:100660009BB21BB2FA691344FB61BB690133BB61E6
:10067000BB69B3F5FA7FEFDBFB692A4A82FB031201
:100680005211DB17D31AFB61F86900F04FFC386197
:100690003869254903F00CFF0346002B06D1386961
:1006A000224903F023FF0346002B05D0002004213C
:1006B0000322FFF763FE04E0012004210322FFF779
:1006C0005DFE38691A4903F055FD0346184603F0EC
:1006D0003DFF0146174BA3FB0123DA0813469B009D
:1006E00013445B00CA1A7A6104200221FFF786FED8
:1006F0000246114B1A60386903F002FF0346DBB271
:100700005BB2184601F03CF80B4B1B687869194640
:1007100001F046F82037BD4680BD00BF00200040F4
:100720008C010020D34D62100000704100000C428B
:1007300000002041CDCCCCCC1C01002080B586B07F
:1007400000AFFFF785FE00237B826F4B1B880133D0
:100750009AB26D4B1A806C4B1B88032B05D16A4BE8
:1007600000221A80FFF78AFECBE0684BDA6C684BF8
:100770001A60FFF7CBFEF860F868FFF7B9FE0023B8
:10078000FB750BE0FB7DFA6822FA03F303F001032B
:10079000002B00D005E0FB7D0133FB75FB7D0F2BAB
:1007A000F0D95A4B9B69BB60584BFA7D012101FA85
:1007B00002F29A6101237B750023BB7519E003F0F7
:1007C000EFF900BF514B1B6A03F01003002BF9D166
:1007D0004E4BDB697B60FB7D012202FA03F31A4674
:1007E0007B681340002B01D100237B75BB7D013357
:1007F000BB75BB7D092BE2D9444BBA689A617B7DFE
:10080000002B6BD0414AFB7D1B01134403F532736F
:100810001B6803F48033002B31D0FB7D012202FAE8
:1008200003F39BB2DB439AB23A4B1B889BB2134053
:100830009BB29AB2374B1A803449FB7D3348FA7D1C
:100840001201024402F53272126822F480321B0156
:100850000B4403F532731A602C4AFB7D1B011344D1
:1008600003F532731B687B807B88013B7B80FA7DBC
:100870007B88104600211A4603F056F92EE0FB7DD6
:10088000012202FA03F39AB2224B1B889BB2134354
:100890009BB29AB21F4B1A801C49FB7D1B48FA7D04
:1008A0001201024402F53272126842F480321B01D6
:1008B0000B4403F532731A60144AFB7D1B01134489
:1008C00003F532731B687B807B8801337B80FA7D64
:1008D0007B88104600211A4603F026F90D4B1B8831
:1008E0007B827B8A002B05D0002004210222FFF7A7
:1008F00045FD04E0012004210222FFF73FFDFFF740
:10090000BDFD1837BD4680BD2A01002000C008404B
:10091000280C00202C01002080B584B000AFF860C6
:10092000B9607A607B68012B0ED1FB68DAB2104B9C
:100930001A70BB68DAB20E4B5A700D4801210222C0
:10094000012300F05DFE10E07B68002B0DD1FB68F9
:10095000DAB2074B1A70BB68DAB2054B5A7004481A
:1009600001210222022300F04BFE1037BD4680BD5C
:100970003001002080B584B000AF786039603B68FA
:10098000012B0AD17B68DAB20F4B1A700E48002196
:100990000122012300F034FE0CE03B68002B09D15A
:1009A0007B68DAB2084B1A70074800210122022343
:1009B00000F026FE00F096FE0346FB60FB6818463A
:1009C0001037BD4680BD00BF3401002080B584B023
:1009D00000AF786020200021FFF7CCFFF860FB68B3
:1009E00023F01C03FB607A68FB6813437B607B6821
:1009F000202019460022FFF78FFF1037BD4680BD2B
:100A000080B584B000AF786021200021FFF7B2FFED
:100A1000F860FB6823F06003FB607A68FB681343AF
:100A20007B607B68212019460022FFF775FF103795
:100A3000BD4680BD80B584B000AF78602420002121
:100A4000FFF798FFF860FB6823F04003FB607A68CB
:100A5000FB6813437B607B68242019460022FFF764
:100A60005BFF1037BD4680BD80B584B000AF7860B5
:100A700020200021FFF77EFFF860FB6823F0600371
:100A8000FB607A68FB6813437B607B682020194613
:100A90000022FFF741FF1037BD4680BD80B584B00E
:100AA00000AF786023200021FFF764FFF860FB6847
:100AB00023F00C03FB607A68FB6813437B607B6860
:100AC000232019460022FFF727FF1037BD4680BDBF
:100AD00080B584B000AF786022200021FFF74AFF84
:100AE000F860FB6823F00303FB607A68FB6813433C
:100AF0007B607B68222019460022FFF70DFF10372C
:100B0000BD4680BD80B584B000AF78602320012150
:100B1000FFF730FFF860FB6823F03003FB607A6872
:100B2000FB6813437B607B68232019460122FFF793
:100B3000F3FE1037BD4680BD80B584B000AF78604D
:100B400020200121FFF716FFF860FB6823F008035F
:100B5000FB607A68FB6813437B607B682020194642
:100B60000122FFF7D9FE1037BD4680BD80B584B0A5
:100B700000AF786020200121FFF7FCFEF860FB68E1
:100B800023F00703FB607A68FB6813437B607B6894
:100B9000202019460122FFF7BFFE1037BD4680BD59
:100BA00080B584B000AF786020200121FFF7E2FE1D
:100BB000F860FB6823F06003FB607A68FB6813430E
:100BC0007B607B68202019460122FFF7A5FE1037C5
:100BD000BD4680BD80B500AF1820FFF7F7FE60204E
:100BE000FFF70EFF4020FFF725FF4020FFF73CFFF7
:100BF0000820FFF753FF0020FFF76AFF0020FFF7F0
:100C000081FF0820FFF798FF0720FFF7AFFF302094
:100C1000FFF7C6FF80BD00BF80B400AF1846BD46D9
:100C20005DF8047B704700BF80B582B000AF002341
:100C3000FB710023BB7128200121FFF79BFE0346B7
:100C4000BB7129200121FFF795FE0346FB7197F93F
:100C500007301B029AB297F906309BB213439AB23F
:100C6000194B1A802A200121FFF784FE0346BB712D
:100C70002B200121FFF77EFE0346FB7197F9073019
:100C80001B029AB297F906309BB213439AB20E4BED
:100C90005A802C200121FFF76DFE0346BB712D20E9
:100CA0000121FFF767FE0346FB7197F907301B022E
:100CB0009AB297F906309BB213439AB2024B9A80CC
:100CC0000837BD4680BD00BF5C09002080B483B0FA
:100CD00000AF786039607B683A689A610C37BD462E
:100CE0005DF8047B704700BF80B400AF72B6084B5C
:100CF0001B68B3F1FF3F04D0054B1B685A1C044B23
:100D00001A60034B1B681846BD465DF8047B7047AC
:100D10008401002080B483B000AF0C4B1B68002B13
:100D20000DD00A4B1B685A1E084B1A60074B1B68F4
:100D30007B607B68002B00D162B67B6800E00023FB
:100D400018460C37BD465DF8047B704784010020CF
:100D500080B500AFFFF7C8FF03480121FFF7B6FFDA
:100D6000FFF7D8FF80BD00BF0010004080B586B0FF
:100D700000AF2548012101F09BFA2448012101F030
:100D800097FA00233B7400237B740023BB741F235A
:100D9000FB7400233B7500237B7500233B7100230C
:100DA0007B710023BB710023FB7100233B72002386
:100DB0007B720023BB720023FB7200233B73144839
:100DC000002100F0ABFF03463B75002000F0D8FF88
:100DD0000346FB7407F110030E48194600F00EFF9E
:100DE00008233B720023BB710023FB7100237B713E
:100DF00001233B733B1D0748194600F043FF0023C6
:100E000018461837BD4680BD408104000002050029
:100E100020D613000020004080B483B000AF78607B
:100E200039607B683A689A610C37BD465DF8047B8F
:100E3000704700BF80B400AF72B6084B1B68B3F1B7
:100E4000FF3F04D0054B1B685A1C044B1A60034B30
:100E50001B681846BD465DF8047B7047840100207E
:100E600080B483B000AF0C4B1B68002B0DD00A4B35
:100E70001B685A1E084B1A60074B1B687B607B6817
:100E8000002B00D162B67B6800E0002318460C37C7
:100E9000BD465DF8047B70478401002080B582B0B8
:100EA00000AF0346FB71FB79002B05D0FB79012BCA
:100EB00002D0FB79022B09D100200121012201F08F
:100EC00059FD1048022101F0F9FB0EE0FB79032BDC
:100ED00009D105200121012201F04CFD0948092119
:100EE00001F0ECFB01E0012308E00748012101F0DB
:100EF000DFF90648012101F0DBF900231846083725
:100F0000BD4680BD020018000043020060261200AA
:100F100080B500AFFFF78EFF03480121FFF77CFF8C
:100F2000FFF79EFF80BD00BF0000014080B586B086
:100F300000AF7860164B1B6803F47F031B0C184648
:100F400003F0C0F803467B61124B1B681B0D18466B
:100F500003F0B8F803463B610F4BFB60786803F081
:100F6000B5F803463869194602F0FAFF03461846F9
:100F7000F96803F0B3F903467869194602F0F0FF07
:100F80000346BB60BB6818461837BD4680BD00BF2E
:100F9000B081E00FBC81E00FD7A3C8C080B588B096
:100FA00000AF1D48012101F083F900233B761B4B64
:100FB000FB6107F11803184601F02EFF00233B7177
:100FC00001237B714FF40023BB60154BFB60144B76
:100FD000144A1A60124B01221A72114B00225A60F5
:100FE0003B1D0020194601F097FE01233B740323AB
:100FF0007B740123BB740023FB7400233B7507F152
:101000001003002001211A4601F0CEFE00231846ED
:101010002037BD4680BD00BF00030200000A00204B
:101020006C0900202506000080B582B000AFD74BC8
:1010300080221A70D54B00225A70D4480121022216
:10104000042300F0DDFAD14B83221A70CF4BFF222C
:101050005A70CE4801210222042300F0D1FACB4B72
:101060008E221A70C94B87225A70C8480121022269
:10107000042300F0C5FAC54B9D221A70C34B002211
:101080005A70C24801210222042300F0B9FABF4B72
:101090009E221A70BD4B00225A70BC4801210222C8
:1010A000042300F0ADFAB94B8D221A70B74B6022C1
:1010B0005A70B64801210222042300F0A1FA00234D
:1010C000FB71FB7903F00303FB71FB799B01FB715F
:1010D000BB7903F03F03BB71BA79FB791343BB7152
:1010E000AA4B8F221A70A94BBA795A70A7480121CE
:1010F0000222042300F084FA0023BB710223FB7157
:10110000FB7903F00303FB71FB799B01FB71BB7956
:1011100003F03F03BB71BA79FB791343BB719B4B5F
:101120008F221A70994BBA795A709848012102227D
:10113000042300F065FA0023BB710123FB71FB79E6
:1011400003F00303FB71BB7923F00303BB71BA798E
:10115000FB791343BB718D4B8F221A708B4BBA797D
:101160005A708A4801210222042300F049FA874B71
:1011700089221A70854B00225A708448012102226C
:10118000042300F03DFA814B8B221A707F4B3222F0
:101190005A707E4801210222042300F031FA7B4B71
:1011A0008C221A70794B11225A7078480121022240
:1011B000042300F025FA0023BB717B7903F00303BD
:1011C0007B717B791B017B71BB7923F03003BB7191
:1011D000BA797B791343BB716C4B90221A706B4BBD
:1011E000BA795A70694801210222042300F008FAF2
:1011F000664B9F221A70654B00225A70634801218A
:101200000222042300F0FCF9604BA0221A705F4B0D
:1012100028225A705D4801210222042300F0F0F9CF
:101220005A4BA1221A70594B1E225A70574801215D
:101230000222042300F0E4F9544BA2221A70534B0B
:1012400040225A70514801210222042300F0D8F9AB
:101250000023BB7102233B713B7903F003033B7115
:101260003B795B013B71BB7923F06003BB71BA79B9
:101270003B791343BB71454BA3221A70434BBA7998
:101280005A70424801210222042300F0B9F90023D8
:10129000BB710023FB71FB7903F00303FB71FB7946
:1012A000DB00FB71BB7923F01803BB71BA79FB79C2
:1012B0001343BB71354BA3221A70344BBA795A7061
:1012C000324801210222042300F09AF90023BB7165
:1012D0000123FB71FB7803F00703FB70BB7923F05C
:1012E0000703BB71BA79FB781343BB71274BA32269
:1012F0001A70264BBA795A7024480121022204231D
:1013000000F07EF9214BA4221A70204B00225A7063
:101310001E4801210222042300F072F91B4BA52272
:101320001A701A4B00225A70184801210222042315
:1013300000F066F9154BA7221A70144B00225A7060
:10134000124801210222042300F05AF90F4BA9226E
:101350001A700E4B00225A700C48012102220423FD
:1013600000F04EF9094BA6221A70084BC9225A7098
:10137000064801210222042300F042F9034BAA226D
:101380001A70024B00225A7002E000BF38010020A0
:10139000184801210222042300F032F90023BB7116
:1013A0000123BB70BB7803F00103BB70BB7923F052
:1013B0000103BB71BA79BB781343BB710D4BAB22F0
:1013C0001A700C4BBA795A700A4801210222042380
:1013D00000F016F9074B80221A70064B6D225A70E6
:1013E000044801210222042300F00AF90837BD460F
:1013F00080BD00BF3801002080B483B000AF7860AA
:1014000039607B683A681A630C37BD465DF8047B27
:10141000704700BF80B500AF2748012100F048FFAA
:101420002648012100F044FF2548012100F040FF3B
:1014300024482549FFF7E0FF24482349FFF7DCFF54
:10144000204B03229A63214B40F203129A631D48FA
:101450001F4902F095F81D481D4902F091F8194BFB
:101460009B68002B03D1194B9B68002B05D0154BB3
:1014700020225A60154B20225A60164B00221A7007
:10148000154B00221A70154B00221A700D4B722258
:101490005A610C4B0B4A126842F017021A600B4B50
:1014A0003A225A61094B094A126842F017021A603F
:1014B0000023184680BD00BF4081040000B2040034
:1014C00000C2040000A400402400010000A000406D
:1014D00004000020010C0020020C0020000C002061
:1014E00080B582B000AF0346FB71194B01225A80D0
:1014F000174B184A5A60184B1B781A46144B1A811E
:10150000134B164ADA60164B1B781A46104B1A8298
:10151000FB79002B0BD113480D4902F093FA00BF61
:10152000104802F069F80346012BF9D00DE0FB7971
:10153000012B0AD10C48064902F084FA00BF0A4880
:1015400002F05AF80346012BF9D00837BD4680BD9A
:10155000040C00203C010020000000204401002079
:101560000200002000A0004000A4004080B584B02C
:1015700000AF0346FB711B4B04225A80194B1A4AD9
:101580005A601A4B1B781A46164B1A81154B184A8B
:10159000DA60184B1B781A46124B1A82FB79002B23
:1015A0000DD115480F4902F04DFA0346FB7300BFF9
:1015B000114802F021F80346012BF9D00FE0FB7926
:1015C000012B0CD10D48074902F03CFA0346FB738E
:1015D00000BF0A4802F010F80346012BF9D010377B
:1015E000BD4680BD040C0020400100200100002009
:1015F000440100200200002000A0004000A40040A0
:1016000080B584B000AF7860F970BA707B707B7879
:10161000012B08D12C4B3A225A612C4B3A221A80CA
:101620000023FB7322E07B78022B08D1264B3C225F
:101630005A61264B3C221A800023FB7316E07B780C
:10164000032B08D1224BEC225A61204BEC221A804A
:101650000123FB730AE07B78042B07D11C4B722219
:101660005A611A4B72221A800123FB73FB78002BFC
:101670000BD17B681A78174B1A70174BBA781A700F
:10168000FB7B1846FFF772FF1BE0FB78012B18D19C
:101690000023BB600AE0BB687A6813441A780F49DC
:1016A000BB680B441A70BB680133BB60BA78BB6877
:1016B0009A42F0DC0A4BBA781A70FB7B1846FFF7A7
:1016C0000FFF1037BD4680BD00A00040040C002075
:1016D00000A4004040010020010000203C01002047
:1016E0000000002080B400AF034B1B781846BD46B5
:1016F0005DF8047B704700BF4401002080B400AF58
:1017000072B6084B1B68B3F1FF3F04D0054B1B6852
:101710005A1C044B1A60034B1B681846BD465DF803
:10172000047B70478401002080B483B000AF0C4B71
:101730001B68002B0DD00A4B1B685A1E084B1A6001
:10174000074B1B687B607B68002B00D162B67B680F
:1017500000E0002318460C37BD465DF8047B704757
:101760008401002080B483B000AF786039607B686A
:101770003A685A630C37BD465DF8047B704700BF7A
:1017800080B582B000AF0346FB71FB790348194670
:1017900002F064FA0837BD4680BD00BF0040084033
:1017A00080B483B000AF78603960074B7A681A6004
:1017B000064B3A681A60064B01221A600C37BD4688
:1017C0005DF8047B704700BF240C00201C0C002037
:1017D000200C002080B500AFFFF790FF12480121D8
:1017E000FFF7C0FF114B1B68002B19D0104B1B6873
:1017F000002B07D10C4B0F4A12689A620C4B012246
:101800001A600DE00A4B1B68012B09D1064B0A4AEE
:1018100012689A62064B00221A60044B00221A607A
:10182000FFF782FF80BD00BF00400840200C002071
:1018300050010020240C00201C0C002080B582B038
:1018400000AF0C4B1B687B603B46184602F04EFA1B
:101850007B681B0E0F2B0AD93B78032B07D1064B55
:10186000054A126822F0500242F010021A6008374E
:10187000BD4680BDFC81E00FC0800C4080B582B0C9
:1018800000AF4FF000037B60FFF7D8FF032000F0AC
:10189000F3F80220FFF702FB38600220FEF708FD94
:1018A0003860FFF7B7FD3860FFF760FA3860FFF780
:1018B00075FB3860FFF78EF9FFF7AEF903463B6022
:1018C000FFF7B2F9FFF7B0FB00F0B6F8FCE700BF96
:1018D00080B483B000AF7860034B7A689A610C37AC
:1018E000BD465DF8047B70470000084080B483B0BB
:1018F00000AF7860054B054AD16C7A680A43DA6418
:101900000C37BD465DF8047B704700BF00C008403F
:1019100080B400AF72B6084B1B68B3F1FF3F04D030
:10192000054B1B685A1C044B1A60034B1B68184676
:10193000BD465DF8047B70478401002080B483B00D
:1019400000AF0C4B1B68002B0DD00A4B1B685A1EB6
:10195000084B1A60074B1B687B607B68002B00D12B
:1019600062B67B6800E0002318460C37BD465DF880
:10197000047B70478401002080B500AFFFF7C8FFEB
:101980000220FFF7A5FF084B1B68002B07D0074B71
:101990001B681846FFF7AAFF034B00221A6002F0EB
:1019A0009BF9FFF7CBFF80BD54010020280C0020DD
:1019B00080B400AF054B054A126922F004021A6197
:1019C00030BFBD465DF8047B704700BF00ED00E00E
:1019D00080B400AF72B6084B1B68B3F1FF3F04D070
:1019E000054B1B685A1C044B1A60034B1B681846B6
:1019F000BD465DF8047B70478401002080B483B04D
:101A000000AF0C4B1B68002B0DD00A4B1B685A1EF5
:101A1000084B1A60074B1B687B607B68002B00D16A
:101A200062B67B6800E0002318460C37BD465DF8BF
:101A3000047B70478401002080B500AF0D4B1B680C
:101A4000002B00DD15E00B4B5B68002B02DDFFF780
:101A5000AFFF0EE0074B9B68002B03DD012001F078
:101A600015FB06E0034BDB68002B02DD012001F0D3
:101A70005BFB80BD5801002080B582B000AF0346FB
:101A8000FB71FFF7A5FFFB79054A52F82320511C93
:101A9000034A42F82310FFF7B1FF0837BD4680BD67
:101AA0005801002080B582B000AF0346FB71FFF7FC
:101AB0008FFFFA79084B53F82230002B07DDFB79B2
:101AC000054A52F82320511E034A42F82310FFF71B
:101AD00095FF0837BD4680BD5801002080B487B00F
:101AE00000AF786013460A46FA70BB70BB78002BD3
:101AF00004D01023FB603E4B3B6103E00023FB60FE
:101B00003C4B3B617B685A6B3B691340BB600023D5
:101B10007B61FB78062B5BD801A252F823F000BF53
:101B20003D1B00005B1B00007F1B00009D1B000095
:101B3000D11B0000D11B0000C11B00002E4B5B68B5
:101B400003F4FE437A6913437B612B4B5B6803F01C
:101B50007F037A6913437B613DE0274B5B6803F0A9
:101B6000FE431B0E1B027A6913437B61224B5B68A9
:101B700003F4FE031B0C7A6913437B612BE01E4BBD
:101B80009B6803F4FE437A6913437B611A4B9B689D
:101B900003F07F037A6913437B611CE0164B9B685B
:101BA00003F0FE431B0E1B027A6913437B61124B49
:101BB0009B6803F4FE031B0C7A6913437B610AE004
:101BC0000D4BDB6803F07F037A6913437B6102E00E
:101BD00000237B6100BFFB687A699A40BB681A43A7
:101BE0007B685A631C37BD465DF8047B704700BFB5
:101BF000FFFF80808080FFFFB081E00F80B584B060
:101C000000AF786039603B681B79FB72FB7A002B70
:101C100006D11B48002100F081F80346FB7208E062
:101C20001748002100F07AF84FF4FA40002100F044
:101C300075F87B680A225A603B681B781A063B6875
:101C4000DB781B0403F4FE031A43FB7A1B0203F444
:101C5000FE431A433B685B781B011A433B689B7841
:101C60001343FB603B685B79002B03D0FB6843F0B8
:101C70000803FB607B68FA681A601037BD4680BDB8
:101C8000405DC60080B584B000AF786039607B6885
:101C900002225A603B689B78786819460022FFF759
:101CA0001DFF3B681B781A073B685B781B051A43CE
:101CB0003B681B791B0213431A463B68DB781B0108
:101CC0001343FB603B689B79002B03D0FB6843F018
:101CD0008073FB603B68DB79002B03D0FB6843F02B
:101CE0000403FB603B685B79002B03D0FB6843F087
:101CF0000203FB603B681B7A002B03D0FB6843F0B8
:101D00000103FB603B689B781B04FA681343FB608C
:101D10007B68FA68DA601037BD4680BD80B584B054
:101D200000AF786039607A68134B9A4202D9124B3F
:101D30007B6006E07B68B3F5FA4F02D24FF4FA43BA
:101D40007B603B68002B03D10C4800F01DFB386022
:101D50003A687B6813445A1E7B68B2FBF3F3FB605E
:101D6000FB68002B02D0FB68013BFB60FB68DBB229
:101D700018461037BD4680BD405DC6004081040056
:101D800080B582B000AF78607B68002B08D1114825
:101D900000F0FAFA78607B68002B01D101237B60A8
:101DA0007A680D4B9A4201D90B4B7B607B6803F537
:101DB000742303F23F237B607A68084BA3FB021372
:101DC0009B0C7B607B68DBB2013BDBB218460837BB
:101DD000BD4680BD408104000048E80183DE1B430E
:101DE00080B487B000AFF860B9607A60FB6803F137
:101DF0000473DA00BB6813449B007B617B697A68DB
:101E00001A601C37BD465DF8047B704780B485B00E
:101E100000AF786039607B6803F10473DA003B68D7
:101E200013449B00FB60FB681B6818461437BD46D3
:101E30005DF8047B704700BF80B485B000AF786068
:101E40007B68002B04D07B68B3F5004F00D800BF3F
:101E50007B68B3FA83F3C3F11F03FB60FB6818468A
:101E60001437BD465DF8047B704700BF80B400AFF7
:101E7000044BDB6C1B0EDBB21846BD465DF8047BE1
:101E8000704700BFB081E00F80B400AF054BDB6C42
:101E900003F47F031B0CDBB21846BD465DF8047BE0
:101EA000704700BFB081E00F80B582B000AFFFF790
:101EB000EBFF03464A2B04D0792B02D0482B22D0CB
:101EC00023E0144B1B699BB203F03F039BB21B0240
:101ED000FB80104B9B699BB203F0F0039AB2FB8826
:101EE0001343FB800B4BDB6903F0F0031B099AB231
:101EF000FB881343FB80FB88B3F5017F01D3064BBE
:101F000004E0064B02E0054B00E0002318460837CA
:101F1000BD4680BDD0FF0FE000366E010048E801ED
:101F200080B584B000AF786039607A683B689A42C7
:101F300094BF00230123DBB2FB6006481E21FA6830
:101F4000FFF74EFF04480821FA68FFF749FF1037F2
:101F5000BD4680BD00800C4004800C4080B582B03E
:101F600000AF07481E21FFF751FF786005480821A0
:101F7000FFF74CFF38607B6818460837BD4680BDC8
:101F800000800C4004800C4080B582B000AF214B33
:101F90005B6903F4E063B3F5007F1CD0B3F5007F09
:101FA00005D8002B25D0B3F5807F1FD02AE0B3F5EC
:101FB000C06F24D0B3F5E06F1ED0B3F5407F21D1C0
:101FC000FFF754FF0346122B02D9134B7B601CE032
:101FD000124B7B6019E0FFF749FF0346122B02D931
:101FE0000F4B7B6011E00F4B7B600EE00E4B7B6074
:101FF0000BE00E4B7B6008E00D4B7B6005E00D4B6A
:102000007B6002E000237B6000BF7B6818460837D6
:10201000BD4680BD00800C40804F120040420F0042
:1020200040B56400C0CF6A00C0D8A700809FD5002B
:10203000406F4001003FAB0180B582B000AF0D485A
:1020400000F08EFA0346FB70FB78072B05D0082BB7
:1020500007D101F0CFFE786006E0FFF795FF7860CA
:1020600002E000237B6000BF7B6818460837BD464E
:1020700080BD00BF06000C0080B485B000AF786062
:10208000284BDB6B002B0CBF00230123BB72254BBD
:1020900041F67132DA63234B5B6803F00703FB60A0
:1020A000FB68012B01D9042B02D10023FB7202E053
:1020B0000123FB7200BF7A681B4B9A4207D9FB7A57
:1020C000002B01D0052300E00423FB6016E07A68B2
:1020D000154B9A420BD87A68144B9A4207D9FB7A6F
:1020E000002B01D0032300E00123FB6006E0FB7A14
:1020F000002B01D0022300E00023FB60094B094ABA
:10210000526822F00701FA680A435A60BB7A002B32
:1021100002D0044B0022DA631437BD465DF8047B1D
:10212000704700BF00000C400048E8010024F400A4
:1021300080B500AF01F054FE03461846FFF79CFF40
:1021400080BD00BF90B585B000AF78600023BB6054
:102150007B68344A934203D0334A934200D000E074
:1021600000BF786800F0FCF90346FB607B682D4AED
:10217000934203D02C4A934206D00CE02B4B9B6A2F
:1021800003F00303FB6006E0284B9B6A03F00C039B
:102190009B08FB6000BFFB68032B3AD801A252F8F2
:1021A00023F000BFDB210000B5210000BD210000AD
:1021B000C521000001F0B0FEB8602DE001F0C0FEC6
:1021C000B86029E001F0F2FD0446FFF7C7FE0346C0
:1021D000013324FA03F3BB601EE00023BB607A687E
:1021E000104B9A4203D07A680F4B9A4210D10F4B92
:1021F0009A6A79680B4B994201D1102300E01423AD
:1022000022FA03F3002B03D001F090FEB86003E044
:1022100002E00023BB6000BFBB6818461437BD4610
:1022200090BD00BF0200180003001A0000800C409F
:1022300080B483B000AF7860094B5B6D03F001039D
:10224000002B00D006E000BF054B1A6D7B681340E1
:10225000002BF9D10C37BD465DF8047B704700BFF9
:1022600000800C4080B582B000AF104800F078F9D3
:102270000346FB70FB78032B07D0082B09D0022BF9
:102280000BD101F05DFE78600AE001F045FE786058
:1022900006E001F0AFFD786002E000237B6000BF44
:1022A0007B6818460837BD4680BD00BF0723200065
:1022B00090B587B000AF78600B46FB7000233B61A0
:1022C0007B681B0A03F00F03013B092B49D801A2CD
:1022D00052F823F0192300001F230000FD22000004
:1022E0006323000063230000252300002F23000048
:1022F0006323000063230000392300001B4B7B6134
:102300001B4800F041F80446FFF7CEFD0346204687
:102310001946FFF705FE12E0164B7B610FE0164BE6
:102320007B610CE0154B7B6101233B6107E0144BA3
:102330007B6110233B6102E0124B7B6100BF7B6835
:102340001B0B03F01F03FB603B69002B02D03869B5
:10235000FFF76EFFFB787869F9681A46FFF740FDD2
:1023600000E000BF1C37BD4690BD00BF40800C4060
:102370000043020008800C4044800C4058800C4010
:1023800060800C4078800C4090B585B000AF7860DC
:102390007B6803F47813B3F5A01F00F0AB80B3F5AE
:1023A000A01F1AD8B3F5402F00F0BF80B3F5402F1F
:1023B00008D8B3F5003F3CD0B3F5802F2DD0002BCB
:1023C00027D0BEE0B3F5801F3CD0B3F5901F47D0B7
:1023D000B3F5602F00F0AD80B3E0B3F5001F00F05F
:1023E000AC80B3F5001F0AD8B3F5C01F25D0B3F5F4
:1023F000D01F7AD0B3F5B01F00F08980A1E0B3F50B
:10240000181F4ED0B3F5201F62D0B3F5101F35D082
:1024100097E001F0EFFCF86096E001F0EBFCF8606B
:102420004C4B9B6803F00F03FA6822FA03F3FB603E
:102430008AE001F0BBFCF86086E04748FFF782FEC7
:10244000F86081E04448FFF77DFEF860414B9B6EE9
:1024500003F0F0031B09FA6822FA03F3FB6073E050
:102460003D48FFF76FFEF8603A4B9B6E03F47063D4
:102470001B0AFA6822FA03F3FB6065E03648FFF7AF
:1024800061FEF860334B9B6E03F440531C0B10202D
:10249000FFF7D2FC03462344FA6822FA03F3FB60F9
:1024A00052E02D48FFF74EFEF8602A4B9B6E03F476
:1024B00040531B0BFA6822FA03F3FB60254BDB6FDA
:1024C00003F007030133FA68B2FBF3F3FB603BE070
:1024D0002148FFF737FEF8601E4B9B6E03F00303A5
:1024E000FA6822FA03F3FB602EE01C48FFF72AFE8D
:1024F000F86029E01948FFF725FEF860154B1B6FBF
:1025000003F00303FA6822FA03F3FB601CE01348AC
:10251000FFF718FEF8600F4B1B6F03F030031B0929
:10252000FA6822FA03F3FB600EE0FFF785FDF8601E
:102530000AE0FFF729FDF86006E0FFF793FEF86078
:1025400002E00023FB6000BFFB6818461437BD465D
:1025500090BD00BF00800C400200180003001A006C
:1025600080B485B000AF78600123FB737B6803F013
:102570000F03BB60BB68013B062B00F2938001A2F6
:1025800052F823F0A1250000D725000013260000F3
:10259000A5260000A52600004F2600007126000099
:1025A000454BDB6A03F47053B3F5805F09D0B3F594
:1025B000005F03D0B3F5006F06D008E00223FB7381
:1025C00008E00323FB7305E00423FB7302E005230B
:1025D000FB7300BF69E0384B9B6A03F00303022BD7
:1025E00006D0032B07D0012B08D10323FB730FE088
:1025F0000223FB730CE00623FB7309E02E4B9B6A5E
:1026000003F48033002B02D00923FB7300E000BFEA
:102610004BE0294B9B6A03F00C03082B06D00C2BD4
:1026200007D0042B08D10323FB730FE00223FB73B5
:102630000CE00623FB7309E01F4B9B6A03F4801335
:10264000002B02D00923FB7300E000BF2DE01A4BE2
:102650001B6803F08053002B03D0B3F1805F03D0DD
:1026600023E00723FB7302E00823FB7300BF1CE099
:10267000114BDB6A03F46033B3F5803F08D0B3F548
:10268000003F08D0B3F5004F08D10823FB7308E0E2
:102690000223FB7305E00323FB7302E00123FB73BA
:1026A00000BF02E00023FB7300BFFB7B184614371A
:1026B000BD465DF8047B704700800C4090B589B042
:1026C00000AF78600B46FB700323FB610323FB76AE
:1026D00000233B617B6803F00F03FB60FB68013B59
:1026E000062B00F2348101A252F823F009270000E2
:1026F000F5270000F52700004F2900004F290000B2
:10270000BD280000E7280000FB78023B072B00F201
:10271000228101A252F823F039270000432700004C
:102720004D27000097270000572900005729000077
:1027300057290000572900000423FB610023FB7682
:1027400039E00323FB610123FB7634E00223FB61C4
:102750000223FB76FFF7A8FB03465C1CFFF7A4FBF4
:10276000034620461946FFF7DBFB01F0C3FB024698
:102770007C4B9A4206D97C4B7B4A126842F060023D
:102780001A6018E0784B784A126822F0600242F032
:1027900020021A600FE00123FB610323FB76FFF7A1
:1027A00083FB03465C1CFFF77FFB0346204619466C
:1027B000FFF7B6FB00BFFB7E18460121012200F0A7
:1027C000D9F8FFF7B5FC684BFA695A626748FFF71A
:1027D000DBFD0446FFF768FB034620461946FFF77A
:1027E0009FFB00F0FFFC01F0E1FAB860B868FFF76A
:1027F00043FCADE0FB78013B082B00F2AE8001A268
:1028000052F823F0292800002F2800003F2800005C
:102810005B2900005B2900004F2800005B290000B5
:102820005B2900007328000000237B6126E0002064
:102830000121012200F09EF802237B611EE00120AD
:102840000121012200F096F801237B6116E001F0DE
:10285000ADFAB860FFF728FB0346B8681946FFF7E2
:102860005FFB434804210122FFF7BAFA03237B618F
:1028700004E000237B6101233B6100BFFB68022B66
:102880000DD1394A384B9B6A23F4803323F003037C
:10289000796919433B691B040B43936258E0324A40
:1028A000314B9B6A23F4801323F00C037969890070
:1028B00019433B691B050B43936249E0FB78072BE7
:1028C00002D0082B07D049E0274B274A126822F094
:1028D00080521A6006E0244B234A126842F080526C
:1028E0001A6000BF34E0FB78032B14D0082B22D0F1
:1028F000022B00D032E000200121012200F03AF842
:10290000194B40225A6200BF174BDB6A03F4803335
:10291000002BF9D01AE001200121012200F02AF851
:10292000114B60225A6200BF0F4BDB6A03F4003385
:10293000002BF9D00AE00C4B20225A6200BF0A4B50
:10294000DB6A03F40043002BF9D000BF00E000BFB6
:10295000FFF704FB02E000BF00E000BF2437BD46E4
:1029600090BD00BF0048E80100800C400043020019
:1029700040800C4080B586B000AF13460246FA7125
:102980000A46BA717B71FB79042B4AD801A252F82E
:1029900023F000BFE1290000D3290000B72900007F
:1029A000A9290000C529000001233B610223FB6027
:1029B00001237B611DE004233B610823FB600323AB
:1029C0007B6116E010233B612023FB6005237B61C4
:1029D0000FE040233B618023FB6007237B6108E01D
:1029E0004FF480733B614FF40073FB6009237B61FC
:1029F00000BFBB79002B0ED00C4B3A691A627B7971
:102A0000002B0BD000BF0A487969FFF7FFF9034696
:102A1000002BF8D002E0054BFA681A6200F0E2FBE6
:102A200000E000BF1837BD4680BD00BF00800C40ED
:102A30002C800C4080B483B000AF0346FB71084B80
:102A400097F907205209F97901F01F01012000FAD6
:102A500001F143F822100C37BD465DF8047B704746
:102A600000E100E080B483B000AF0346FB71094B86
:102A700097F907205209F97901F01F01012000FAA6
:102A800001F1203243F822100C37BD465DF8047B7B
:102A9000704700BF00E100E080B483B000AF0346A0
:102AA000FB71094B97F907205209F97901F01F01D1
:102AB000012000FA01F1603243F822100C37BD46C4
:102AC0005DF8047B704700BF00E100E080B487B090
:102AD00000AFF860B9607A60FB6803F10473DA0054
:102AE000BB6813449B007B617B697A681A601C3762
:102AF000BD465DF8047B704780B489B000AF786054
:102B0000F970BA707B707B681A013C4B9B68134468
:102B1000BB61BB78002B02D0BB69FB6105E07B6821
:102B20001A01364BDB681344FB61BB69DB687B61D0
:102B30007B69002B02D0BA787B691A72FB6A002B82
:102B400014D0FB699B6803F040639B0E3B613B69BB
:102B5000032B03D1FB69FA6A1A6007E03B693A6B01
:102B60009A40FB6A13441A46FB691A60BB6A002B41
:102B700012D0FB699B689B0F3B613B69032B03D120
:102B8000FB69BA6A5A6007E03B693A6B9A40BB6AD4
:102B900013441A46FB695A607B68012202FA03F368
:102BA000FB607B78002B03D0144BFA689A6102E03B
:102BB000124BFA68DA61BB78002B03D00F4BFA682E
:102BC0005A6302E00D4BFA681A63FB699B6823F4B1
:102BD0007F5323F03703BB603B6B1B01BA68134381
:102BE000BB60FB78BA681343BB60FB69BA689A6044
:102BF0002437BD465DF8047B704700BF00200C40C1
:102C000080B58AB000AF334B03F580531B68BB61BE
:102C1000304B03F580530C331B68BA691340BB611A
:102C20002C4B9B6B7B61BA697B6913403B62002331
:102C3000FB6149E000237B623BE03B6A03F0010358
:102C4000002B30D0234B9B683B6101227B6A02FA48
:102C500003F3FB601F4B03F580530833FA681A60D7
:102C60007B6A1B013A691344DB68BB60BB68002BBD
:102C700019D0BB681B7A7B60BB681B7A83F00103A9
:102C8000DAB2BB681A72BB681B68002B0BD0BB683A
:102C90001B68786A7A68002A0CBF00220122D1B230
:102CA000BA68526898473B6A5B083B627B6A0133AB
:102CB0007B623B6A002BC0D17B69DA43BB6913405E
:102CC0003B62FB690133FB61FB69012BB2DD2837F5
:102CD000BD4680BD00200C4080B588B004AFF860D0
:102CE0007B600B46FB721346BB72FA7ABB7A79683B
:102CF0000091B9690191F9690291F8680121FFF722
:102D0000FBFE044BFA68012101FA02F29A621037C5
:102D1000BD4680BD00200C4080B584B000AF786017
:102D200039601F4B9B68FB607B681B01FA6813448A
:102D30003A689268DA603B681B78002B06D0184B23
:102D40007A68012101FA02F29A6305E0144B7A686D
:102D5000012101FA02F2DA63114B3A6851687A688C
:102D600002F5886243F822103B685B78002B0ED096
:102D70000B4B7A68012101FA02F203F58053083304
:102D80001A60084879680122FFF7A0FE04E00548B0
:102D900079680022FFF79AFE1037BD4680BD00BF5C
:102DA00000200C400C300C4080B487B000AFF860BD
:102DB0000B467A60FB72FB7A002B03D0154B9B68A5
:102DC0007B6102E0134BDB687B61FB681B017A6966
:102DD00013447B617B681B789A077B689B781B0791
:102DE0001A437B685B789B061A437B689B781B06BB
:102DF00013431A467B681B799B041A437B68DB7874
:102E00009B031A437B699A601C37BD465DF8047BBF
:102E1000704700BF00200C4080B582B000AF7860E2
:102E200010480121FFF744FA00F020F80020FFF7D6
:102E300033FE0020FFF7FEFD0B4B03F580530C33F0
:102E40004FF000421A60084B7A6852689A60064B4D
:102E50007A681278520142F001025A600837BD4682
:102E600080BD00BF0003020000200C4080B582B08E
:102E700000AF0020FFF7F6FD1C4B00225A601B4BF1
:102E800040F6FF72DA61194B40F6FF725A62174B37
:102E900040F6FF72DA62154B40F6FF725A63134B2D
:102EA00040F6FF72DA63114B0122DA640F4B03F52F
:102EB00080530C3300221A600C4B03F58053083307
:102EC0000B4A1A6000237B6009E0084B7A6802F520
:102ED0008862002143F822107B6801337B607B68A5
:102EE0000B2BF2DD0837BD4680BD00BF00200C4033
:102EF000FF0F008080B500AF00F058FF80BD00BF1D
:102F000080B400AF034B0022C3F88420BD465DF8B7
:102F1000047B704700800C4080B400AF044B45F642
:102F20000E02C3F88420BD465DF8047B704700BFE5
:102F300000800C4080B582B000AF384BD3F88430AD
:102F400003F001037B60FFF7E7FF00233B60344B96
:102F50001B6803F001033A6813433B60304B1B6866
:102F600003F010033A6813433B602D4B1B6803F0DA
:102F700040033A6813433B60294B1B6803F004038A
:102F80003A6813433B60264B1B6803F480733A682E
:102F900013433B60214B3A681A62214B1B6803F4D0
:102FA0007053B3F5805F06D0B3F5005F0ED0B3F574
:102FB000006F16D020E000BF184BDB6A03F08003DF
:102FC000002BF9D0154B03225A6215E000BF134BBA
:102FD000DB6A03F40073002BF9D0104B04225A6211
:102FE0000AE000BF0D4BDB6A03F00803002BF9D0A9
:102FF0000A4B02225A6200BF094B1B6803F001030F
:10300000002B02D1054B02221A627B68002B01D0F3
:10301000FFF776FF0837BD4680BD00BF00800C403B
:103020006801002080B483B000AF174B1B699BB2CE
:1030300003F03F039BB21B02FB80134B9B699BB2C7
:1030400003F0F0039AB2FB881343FB800E4BDB695D
:1030500003F0F0031B099AB2FB881343FB80FB8843
:10306000B3F5827F03D3FB88B3F5017F01D1012340
:1030700000E0002303F00103DBB218460C37BD4625
:103080005DF8047B704700BFD0FF0FE080B586B0CD
:1030900000AF0346FB711F4BDA6A1F4B1A601F4BD0
:1030A0001E4A126942F004021A61FFF7BBFF034691
:1030B000FB75FB7D002B11D0194B1A68194B13407F
:1030C000FB60174BFA68C3F88020154B5B6823F050
:1030D00046033B61124B3A69C3F8842030BFFB7D45
:1030E000002B05D00E4BFA681A600D4B3A695A60F6
:1030F000FB79002B02D0FFF71DFF07E0064B1B6892
:1031000003F48063002B01D1FFF7F4FE1837BD46AE
:1031100080BD00BF00800C406801002000ED00E091
:1031200000E100E09CF1FD0080B586B000AF0346F1
:10313000FB71274BDA6A274B1A60254BD3F8843092
:1031400003F001037B61FFF7E7FE214B4FF4207290
:103150001A627B69002B01D0FFF7D2FE1E4B1E4A7C
:10316000126942F004021A61FFF75CFF0346FB7428
:10317000FB7C002B11D0194B1A68194B1340BB6014
:10318000164BBA68C3F88020144B5B6823F04603E3
:10319000FB60124BFA68C3F8842030BFFB7C002B25
:1031A00005D00E4BBA681A600C4BFA685A60FB796E
:1031B000002B02D0FFF7BEFE07E0064B1B6803F4AE
:1031C0008063002B01D1FFF795FE1837BD4680BD07
:1031D00000800C406801002000ED00E000E100E00C
:1031E0009CF1FD0080B400AF034BDA6A034B1A6018
:1031F000BD465DF8047B704700800C4068010020EC
:1032000080B483B000AF03463960FB71FB79002BBB
:103210000DD0FB79012B0AD0FB79022B07D0FB796B
:10322000032B04D0FB79042B01D0FB79052B094833
:10323000FA793B68012101FA03F319461346DB00D2
:1032400013449B000344103359600C37BD465DF8AE
:10325000047B70470060004080B483B000AF034639
:103260003960FB71FB79002B0DD0FB79012B0AD063
:10327000FB79022B07D0FB79032B04D0FB79042BBD
:1032800001D0FB79052B0948FA793B68012101FA45
:1032900003F319461346DB0013449B000344103329
:1032A00019600C37BD465DF8047B70470060004034
:1032B00090B482B000AF02460B46FA71BB71FB7945
:1032C000002B0ED0FB79012B0BD0FB79022B08D001
:1032D000FB79032B05D0FB79042B02D0FB79052B5E
:1032E00003D1BB79032B00D800BF0C48FA790B4CF3
:1032F000F9790B46DB000B449B0023441B6823F049
:103300000301BB7919431346DB0013449B000344BC
:1033100019600837BD4690BC704700BF0060004090
:1033200090B585B000AFB9607B600346FB73134670
:10333000BB73FB7B002B0DD0FB7B012B0AD0FB7BEF
:10334000022B07D0FB7B032B04D0FB7B042B01D08B
:10335000FB7B052BBB7B002B0DD07B68002B05D0A6
:10336000FB7B1846B968FFF777FF04E0FB7B184644
:10337000B968FFF745FFBB68072B1DD82B48FA7BC0
:103380002A4CF97B0B46DB000B449B002344596815
:10339000BB689B000F2404FA03F3DB431940BC7B9A
:1033A000BB689B0004FA03F319431346DB00134484
:1033B0009B000344596024E01C48FA7B1B4CF97BBA
:1033C0000B46DB000B449B00234408331968BB68A1
:1033D00003F18043083B9B000F2404FA03F3DB4313
:1033E0001940BC7BBB6803F18043083B9B0004FA97
:1033F00003F319431346DB0013449B0003440833D3
:103400001960BB7B002B0DD17B68002B05D0FB7BAB
:103410001846B968FFF720FF04E0FB7B1846B9683F
:10342000FFF7EEFE1437BD4690BD00BF00600040C0
:1034300080B487B000AFF860B9607A60FB6803F1D0
:103440000473DA00BB6813449B007B617B697A6874
:103450001A601C37BD465DF8047B704780B485B0A8
:1034600000AFF860B9607A60FB681A68BB68DB433C
:103470001A407B681A43FB681A601437BD465DF832
:10348000047B704780B588B000AFF860B9607A609F
:10349000FB707B68002B00D15EE0FB681B6823F4A7
:1034A0004072FB681A60FA68FB781B0210464FF402
:1034B00040711A46FFF7D2FFBB68002B03D12848A2
:1034C000FEF762FFB8604FF0FF33BB61FB681B681B
:1034D00003F00203002B11D0FB78012B07D0022B45
:1034E00008D0002B00D019E01E4BBB6105E01E4B3D
:1034F000BB6102E01D4BBB6100BF0FE0FB78012BFD
:1035000006D0022B07D0002B08D1194BBB6105E078
:10351000184BBB6102E0184BBB6100BFFB78174A38
:10352000D35C7B617B689B00BA68D21A7B6979683F
:1035300001FB03F3B2FBF3F3013BFB61FB681B6888
:1035400003F00203002B04D0FB69002B01D10123FF
:10355000FB61FA69FB681A612037BD4680BD00BF78
:103560004081040040164000C0D8A700805074017C
:1035700080841E0040548900002D31012C4600003B
:1035800080B582B000AF786039607A68174B9A4294
:1035900003D07A68164B9A4200D100BF7B680022A4
:1035A0005A637B68134A1A637A683B685B78002B1E
:1035B00001D0002300E00123104601211A46FFF745
:1035C00037FF3B6859683B689A683B681B7B7868A3
:1035D000FFF758FF7A683B681B78104600211A46AF
:1035E000FFF726FF0837BD4680BD00BF00A00040A2
:1035F00000A40040CFFF010080B489B000AF786024
:103600007A689D4B9A4203D07A689C4B9A4200D1CB
:1036100000BF7A68984B9A4202D1994BBB6108E08F
:103620007A68964B9A4202D1964BBB6101E0FC232B
:1036300000E2BB699B687B617B689B6A3B613B697D
:1036400003F4C063002B14D03B6903F40073002B18
:1036500003D0BB69FD225A7007E03B6903F4806325
:10366000002B02D0BB69FE225A70BB6909221A7076
:10367000CCE1BB691B78082B00F2C08101A252F893
:1036800023F000BFA9360000FB36000081370000A0
:10369000D3370000253800008938000011390000B8
:1036A0004F390000E13900007B695B8803F01003AB
:1036B000002B09D07B691B881B0A9BB203F0060311
:1036C00043F0F003FB610EE07B691B8803F0FE030F
:1036D000FB617B695B8803F00203002B03D0FB696D
:1036E00043F00103FB61BB6901221A707B68FA6930
:1036F0005A627B6801225A6088E13B6903F08003CB
:10370000002B0CD07B6880221A63BB69FF225A70A1
:10371000BB6908221A707B6802225A602FE03B695D
:1037200003F04003002B2AD07B6840221A637B6998
:103730005B8803F01003002B08D0BB6902221A70CB
:103740007B691B88DAB27B685A6218E07B695B8808
:1037500003F00203002B0ED0BB6907221A70BB696D
:103760001B797A69DB0013441B89012B07D17B6825
:1037700008225A604AE1BB6905221A7045E145E119
:103780003B6903F08003002B0CD07B6880221A6316
:10379000BB69FF225A70BB6908221A707B6802223B
:1037A0005A6015E03B6903F04003002B10D07B68A2
:1037B00040221A637B695B8803F00203002B03D06D
:1037C000BB6903221A7020E1BB6905221A701CE153
:1037D0001CE17B695B8803F01003002B09D07B6937
:1037E0001B881B0A9BB203F0060343F0F003FB6146
:1037F00004E07B691B8803F0FE03FB617B695B8847
:1038000003F00403002B03D0FB6943F00103FB61C9
:10381000BB6904221A707B6801225A607B68FA69CE
:103820005A62F3E03B6903F08003002B0CD07B6805
:1038300080221A63BB69FF225A70BB6908221A7082
:103840007B6802225A6015E03B6903F04003002BBD
:1038500010D07B6840221A637B695B8803F0040305
:10386000002B03D0BB6907221A7003E0BB69052255
:103870001A70CAE0CAE000BF00A0004000A40040E7
:103880006C01002078010020BB695A88BB691B7954
:103890007969DB000B441B899A4224D3BB6900225F
:1038A0005A80BB691B790133DAB2BB691A717B6933
:1038B0005B8803F00403002B03D0BB6903221A705A
:1038C000A3E07B695B8803F00103002B03D1BB6994
:1038D0001B79012B06D9BB6908221A707B6802226A
:1038E0005A6093E091E0BB691B797A69DB0013446D
:1038F0005A68BB695B88591C88B2B969488013440F
:103900001B781A467B685A62BB6906221A707DE0F2
:103910003B6903F08003002B0CD07B6880221A6384
:10392000BB69FF225A70BB6908221A707B680222A9
:103930005A600BE03B6903F04003002B06D07B6824
:1039400040221A63BB6905221A705EE05EE03B69A3
:1039500003F02003002B42D0BB691B797A69DB009E
:1039600013441B89FB607B68DB69FB72BB695B8866
:103970001A46FB689A420ED2BB691B797A69DB0052
:1039800013445A68BB695B88591C88B2B96948807E
:103990001344FA7A1A70BB695B881A46FB689A422C
:1039A0000CD3FB68012B02D17B6808225A60BB69EB
:1039B00008221A707B6802225A6010E07B68042299
:1039C0005A60FB68012B0AD9BB695B881A46FB6801
:1039D000013B9A4203D17B6808225A6016E015E049
:1039E0003B6903F48073002B07D07B684FF480722F
:1039F0001A63BB6909221A7008E007E0BB69FB2261
:103A00005A70BB6909221A7000E015E6BB691B7881
:103A1000092B0BD17B6800225A63BB695B785BB2D0
:103A2000012B05D1BB6900225A7001E0012301E09E
:103A3000BB695B785BB218462437BD465DF8047BF2
:103A4000704700BF80B584B000AF786039607A6895
:103A5000304B9A4203D07A682F4B9A4200D100BF74
:103A60007A682C4B9A4202D12C4BFB6008E07A68B2
:103A7000294B9A4202D12A4BFB6001E0FC2343E030
:103A80007B689B6803F00103002B02D07B68202237
:103A90005A603B685B8803F00203002B03D03B684D
:103AA0001B89002B09D03B685B8803F00403002BC3
:103AB00005D03B681B8A002B01D1FC2324E0FB6866
:103AC00000221A70FB6801225A70FB6800225A809B
:103AD000FB6800221A71FB683A689A607B68C02212
:103AE0005A607B689B6A03F02003002B01D07B683F
:103AF000DB697B680B4A1A637B684FF4FC625A638C
:103B00007868FFF779FD03465BB218461037BD466B
:103B100080BD00BF00A0004000A400406C01002058
:103B200078010020CFFF010080B485B000AF1346BC
:103B30000246FA710A46BA807B80184AFB792C3318
:103B40001B0113445B6823F47F6323F00F03FB60C6
:103B5000BB88FA681343FB60104AFB792C331B01C6
:103B60001344FA685A600D4AFB791B01134403F5AC
:103B700032731B681B0C1B04FB607B88FA681343C1
:103B8000FB60064AFB791B01134403F53273FA68A4
:103B90001A601437BD465DF8047B704700C00840CA
:103BA00080B400AF00BF0A4B1B6D03F02003002B55
:103BB000F9D1074B01225A6100BF054B1B6D03F081
:103BC0002003002BF9D1BD465DF8047B704700BF90
:103BD00000C0084080B487B000AFF860B9607A6078
:103BE000FA68114B9A4208D1BB68012B05D87B6853
:103BF0001B0C1B04002B00D100BFBB68002B02D0A4
:103C0000012B04D00AE0FB6810337B6103E0FB6802
:103C100014337B6100BF7B697A681A601C37BD462C
:103C20005DF8047B704700BF0020084080B483B07B
:103C300000AF786039607B681B6C03F00103002BD8
:103C400000D006E000BF7B685A6C3B681340002B35
:103C5000F9D10C37BD465DF8047B704780B582B062
:103C600000AF78600B46FB7000BF7B689B6803F079
:103C70001003002BF9D078684021FFF7D7FFFA78BE
:103C80007B689A620837BD4680BD00BF80B487B0AC
:103C900000AFF860B9607A60FB6803F10473DA0082
:103CA000BB6813449B007B617B697A681A601C3790
:103CB000BD465DF8047B704780B582B000AF034617
:103CC000FB71FB79034800211A46FFF7DFFF083735
:103CD000BD4680BD0000084080B500AF0020FFF762
:103CE000EBFF0120FFF7E8FF80BD00BF80B485B087
:103CF00000AF7860194B5B69DBB203F00F03DBB2F6
:103D00009B00FB73154B1B6903F0C0039B09DAB2E0
:103D1000FB7B1343FB737B68FA7B9A700F4B1B6929
:103D2000DBB203F03F03DAB27B685A700B4B9B693E
:103D3000DBB223F00F03FB73084BDB6903F0F003E6
:103D40001B09DAB2FB7B1343FB737B68FA7B1A70A7
:103D50001437BD465DF8047B704700BFD0FF0FE00D
:103D6000064880470649074A074B9A42BEBF51F8AA
:103D7000040B42F8040BF8E7FCF7DCF90D3F0000F8
:103D8000444600000000002088000020FEE700BF3D
:103D900080B400AF044BDB6C1B0EDBB21846BD4693
:103DA0005DF8047B704700BFB081E00F80B582B042
:103DB00000AF00F01FF87860074B5B6803F00F035B
:103DC0007A6822FA03F37B60044B7A681A607B6896
:103DD00018460837BD4680BD00800C40300C0020DE
:103DE00080B400AF024B1846BD465DF8047B7047B7
:103DF000006CDC0280B582B000AF334BDB6A03F4A9
:103E00007053B3F5805F0AD0B3F5005F03D0B3F50C
:103E1000006F08D00BE02D4B1B687B6047E04FF430
:103E200000437B6043E02A4B1B687B603FE0264BEE
:103E3000DB6803F4E063B3F5007F1BD0B3F5007FCC
:103E400005D8002B24D0B3F5807F16D02BE0B3F536
:103E5000806F09D0B3F5A06F03D0B3F5407F06D0D3
:103E600021E01C4B7B6021E01B4B7B601EE01B4B69
:103E70007B601BE01A4B7B6018E0FFF789FF03466D
:103E8000122B02D9174B7B6010E0174B7B600DE0C3
:103E9000FFF77EFF0346122B02D9144B7B6005E02F
:103EA000134B7B6002E000237B6000BF00BF064B2A
:103EB0001B6803F4E0339B0B01337A68B2FBF3F326
:103EC00018460837BD4680BD00800C401800002011
:103ED00014000020003FAB01406F4001809FD500DF
:103EE000C0D8A70040B56400C0CF6A00804F120060
:103EF00040420F0080B400AF034B1B681846BD461C
:103F00005DF8047B704700BF1400002080B400AF50
:103F1000BD465DF8047B704780B400AF4FF40043AA
:103F20001846BD465DF8047B704700BF80B400AF03
:103F30004FF47A731846BD465DF8047B704700BFA6
:103F400080B400AF034B1B681846BD465DF8047B88
:103F5000704700BF1800002080F0004002E000BF62
:103F600081F0004142001FBF5FEA410392EA030F64
:103F70007FEA226C7FEA236C6AD04FEA1262D2EBAE
:103F80001363C1BFD218414048404140B8BF5B42B3
:103F9000192B88BF704710F0004F40F4000020F04C
:103FA0007F4018BF404211F0004F41F4000121F062
:103FB0007F4118BF494292EA030F3FD0A2F10102AC
:103FC00041FA03FC10EB0C00C3F1200301FA03F1EA
:103FD00000F0004302D5494260EB4000B0F5000F0D
:103FE00013D3B0F1807F06D340084FEA310102F1CC
:103FF0000102FE2A51D2B1F1004F40EBC25008BF7E
:1040000020F0010040EA03007047490040EB000047
:1040100010F4000FA2F10102EDD1B0FA80FCACF176
:10402000080CB2EB0C0200FA0CF0AABF00EBC25075
:1040300052421843BCBFD0401843704792F0000F63
:1040400081F4000106BF80F400000132013BB5E7B6
:104050004FEA41037FEA226C18BF7FEA236C21D02C
:1040600092EA030F04D092F0000F08BF0846704791
:1040700090EA010F1CBF0020704712F07F4F04D15F
:10408000400028BF40F00040704712F100723CBF72
:1040900000F50000704700F0004343F0FE4040F49C
:1040A000000070477FEA226216BF08467FEA23635A
:1040B0000146420206BF5FEA412390EA010F40F445
:1040C000800070474FF0000304E000BF10F0004391
:1040D00048BF40425FEA000C08BF704743F0964378
:1040E00001464FF000001CE050EA010208BF704793
:1040F0004FF000030AE000BF50EA010208BF70471A
:1041000011F0004302D5404261EB41015FEA010C2E
:1041100002BF84460146002043F0B64308BFA3F126
:104120008053A3F50003BCFA8CF2083AA3EBC25308
:1041300010DB01FA02FC634400FA02FCC2F1200227
:10414000BCF1004F20FA02F243EB020008BF20F05E
:104150000100704702F1200201FA02FCC2F12002C4
:1041600050EA4C0021FA02F243EB020008BF20EAB9
:10417000DC7070474FF0FF0C1CEAD0521EBF1CEAE7
:10418000D15392EA0C0F93EA0C0F6FD01A4480EAD5
:10419000010C400218BF5FEA41211ED04FF00063BE
:1041A00043EA501043EA5111A0FB01310CF00040EA
:1041B000B1F5000F3EBF490041EAD3715B0040EA10
:1041C000010062F17F02FD2A1DD8B3F1004F40EBE0
:1041D000C25008BF20F00100704790F0000F0CF0B3
:1041E000004C08BF49024CEA502040EA51207F3A77
:1041F000C2BFD2F1FF0340EAC250704740F4000052
:104200004FF00003013A5DDC12F1190FDCBF00F042
:1042100000407047C2F10002410021FA02F1C2F1F0
:10422000200200FA02FC5FEA310040F1000053EA8C
:104230004C0308BF20EADC70704792F0000F00F0DA
:10424000004C02BF400010F4000F013AF9D040EAE0
:104250000C0093F0000F01F0004C02BF490011F474
:10426000000F013BF9D041EA0C018FE70CEAD15372
:1042700092EA0C0F18BF93EA0C0F0AD030F0004CF2
:1042800018BF31F0004CD8D180EA010000F00040A6
:10429000704790F0000F17BF90F0004F084691F064
:1042A000000F91F0004F14D092EA0C0F01D142029E
:1042B0000FD193EA0C0F03D14B0218BF084608D167
:1042C00080EA010000F0004040F0FE4040F40000B1
:1042D000704740F0FE4040F4400070474FF0FF0C44
:1042E0001CEAD0521EBF1CEAD15392EA0C0F93EA8B
:1042F0000C0F69D0A2EB030280EA010C49024FEADD
:10430000402037D04FF0805343EA111143EA101395
:104310000CF000408B4238BF5B0042F17D024FF44D
:10432000000C8B4224BF5B1A40EA0C00B3EB510F28
:1043300024BFA3EB510340EA5C00B3EB910F24BF11
:10434000A3EB910340EA9C00B3EBD10F24BFA3EB96
:10435000D10340EADC001B0118BF5FEA1C1CE0D15E
:10436000FD2A3FF650AF8B4240EBC25008BF20F011
:10437000010070470CF0004C4CEA50207F32C2BF65
:10438000D2F1FF0340EAC250704740F400004FF002
:104390000003013A37E792F0000F00F0004C02BF33
:1043A000400010F4000F013AF9D040EA0C0093F0FD
:1043B000000F01F0004C02BF490011F4000F013B57
:1043C000F9D041EA0C0195E70CEAD15392EA0C0FBF
:1043D00008D142027FF47DAF93EA0C0F7FF470AFF7
:1043E000084676E793EA0C0F04D14B023FF44CAF3A
:1043F00008466EE730F0004C18BF31F0004CCAD1CF
:1044000030F000427FF45CAF31F000437FF43CAF0A
:104410005FE700BF4FF0FF3C06E000BF4FF0010C2C
:1044200002E000BF4FF0010C4DF804CD4FEA40020E
:104430004FEA41037FEA226C18BF7FEA236C11D058
:1044400001B052EA530C18BF90EA010F58BFB2EB0B
:10445000030088BFC81738BF6FEAE17018BF40F08B
:10446000010070477FEA226C02D15FEA402C05D13F
:104470007FEA236CE4D15FEA412CE1D05DF8040BC4
:10448000704700BF844608466146FFE70FB5FFF757
:10449000C9FF002848BF10F1000F0FBD4DF808ED0F
:1044A000FFF7F4FF0CBF012000205DF808FB00BF00
:1044B0004DF808EDFFF7EAFF34BF012000205DF85A
:1044C00008FB00BF4DF808EDFFF7E0FF94BF0120A7
:1044D00000205DF808FB00BF4DF808EDFFF7D2FFA4
:1044E00094BF012000205DF808FB00BF4DF808EDE7
:1044F000FFF7C8FF34BF012000205DF808FB00BFB4
:104500004FEA4002B2F1FE4F0FD34FF09E03B3EBE0
:1045100012620DD94FEA002343F0004310F0004F20
:1045200023FA02F018BF404270474FF00000704776
:1045300012F1610F01D1420205D110F0004008BF15
:104540006FF0004070474FF00000704742000ED2FD
:10455000B2F1FE4F0BD34FF09E03B3EB126209D4BE
:104560004FEA002343F0004323FA02F070474FF074
:104570000000704712F1610F01D1420202D14FF0E9
:10458000FF3070474FF00000704700BF08B5074B81
:10459000044613B10021AFF30080054B1868836A0D
:1045A00003B19847204600F033F800BF0000000038
:1045B0003446000070B50E4B0E4D0024ED1AAD10C0
:1045C0001E46AC4204D056F8242090470134F8E748
:1045D00000F020F8084D094B0024ED1AAD101E46DE
:1045E000AC4204D056F8242090470134F8E770BD5F
:1045F0007C0000207C000020800000207C00002047
:1046000002440346934202D003F8011BFAE77047C5
:10461000FEE700BFF8B500BFF8BC08BC9E46704777
:10462000F8B500BFF8BC08BC9E46704708091108E1
:0C463000430000001C00002000000000FF
:08463C00F8BAFF7F0100000045
:1046440002010A000101000000000000606701008F
:1046540000000000006CDC0200800000000000008C
:104664000000000000000000000000000000000046
:1046740000000000000000000000000030460000C0
:104684000000000000000000000000000000000026
:104694000000000000000000000000000000000016
:1046A4000000000000000000000000000000000006
:1046B40000000000000000000000000005010000F0
:0846C400E1000000000000000D
:0400000300003D615B
:00000001FF
