:1000000000800020A5720000D1720000D1720000B3
:10001000D1720000D1720000D1720000D1720000D4
:10002000D1720000D1720000D1720000D1720000C4
:10003000D1720000D1720000D1720000D1720000B4
:100040003D4F0000F52100004D200000D17200005E
:10005000D1720000D1720000B5160000D17200000C
:10006000D1720000D1720000D1720000D172000084
:10007000D1720000D1720000D1720000D172000074
:10008000D17200002D100000D1720000D17200006A
:10009000D1720000D1720000D1720000D172000054
:1000A0001D340000D1720000090E0000D172000062
:1000B000D1720000D172000025360000D17200001C
:1000C000D1720000D1720000D1720000D172000024
:1000D000D1720000D1720000D1720000D172000014
:1000E00010B5054C237833B9044B13B10448AFF372
:1000F00000800123237010BD0001002000000000DB
:1001000058A1000008B5064B1BB106480649AFF3DD
:1001100000800648036813B1054B03B1984708BD3A
:100120000000000058A10000040100208C00002005
:1001300000000000154B002B08BF134B9D46A3F594
:10014000803A00218B460F461348144A121A09F0D0
:10015000BFFD0F4B002B00D098470E4B002B00D05B
:1001600098470020002104000D000D48002802D00F
:100170000C48AFF3008009F085FD2000290003F052
:10018000A1F909F06BFD00BF00000800008000200D
:10019000000000000000000000010020D80E002038
:1001A000000000000000000080B584B000AF0346EE
:1001B000FB71094BFA791A700748002101220323C9
:1001C00002F0E0FF03F050F80346FB73FB7B184698
:1001D0001037BD4680BD00BF200100202DE9B04F83
:1001E000A4B000AFF720FFF7DFFF03461C03F820A1
:1001F000FFF7DAFF03461B011C43F920FFF7D4FF8A
:1002000003461B09DBB203F00F032343C7F88C300E
:100210006B4B1B681A464FEAE273B2F5FA3243F1B0
:10022000FF33C7E92023D7F88420D7F8803003FBB9
:1002300002F1D7F88420D7F8803003FB02F3194489
:10024000D7F88020D7F88030A2FB03454B191D4614
:100250005C4B1B8A1AB24FEAE27302FB05F004FB07
:1002600003F10144A4FB022319440B46C7E91E23F2
:10027000C7E91E23534BDB891AB24FEAE273D7F862
:10028000801003FB01F0D7F8841002FB01F1084451
:10029000D7F88010A1FB0223C1180B464FEA43494F
:1002A00049EAD2394FEA4248D7E91E2312EB080245
:1002B00043EB0903C7E91E23424B9B891AB24FEA5D
:1002C000E273D000F8660021B966D7E91E23D7E9AA
:1002D0001A45121943EB0503C7E91E23D7F88420FA
:1002E000D7F8803003FB02F1D7F88420D7F88030AC
:1002F00003FB02F31944D7F88020D7F88030A2FB23
:1003000003454B191D462F4B5B891AB24FEAE27326
:1003100002FB05F004FB03F10144A4FB0223194492
:100320000B46150A3D66D7F860C04CEA036CC7F867
:1003300060C018127866234B1B891AB24FEAE27329
:10034000D7F8801003FB01F0D7F8841002FB01F10D
:100350000844D7F88010A1FB0223C1180B464FEACE
:10036000033B4BEA125B4FEA023AD7E9182312EB40
:100370000A0243EB0B03C7E92023D7E92023101C13
:1003800043F500410F4BDB889AB24FF0000302FBAC
:1003900001F500FB03F42C44A0FB0223E1180B46FB
:1003A00059103963DC177C63D7E90C45C7E9204550
:1003B000D7E9202352EA030506D14FF0000301E1FB
:1003C0009003002060030020D7F88C30C3F5801321
:1003D0001A464FEAE273C7E91C23D7E91C234FEA08
:1003E000C37CC7F85CC0F86D40EA5200F865D107DD
:1003F000B965D7E91E23D7E91601801A61EB03011D
:1004000002460B46921843EB0303121843EB010319
:100410009C01FC62FD6A45EA9265FD624FEA821C1E
:10042000C7F828C0D7E90A45121943EB05039D0018
:100430007D62D7F824C04CEA927CC7F824C09400AF
:100440003C62D7E90823121843EB01039D00FD61CC
:10045000D7F81CC04CEA927CC7F81CC09400BC6161
:10046000D7E90623121843EB010310461946D7E9D2
:10047000202309F003F902460B46C7E91C23544B1D
:10048000DB8A18B24FEAE071D7E91C23550B3D65B2
:10049000D7F850C04CEAC34CC7F850C05C137C6519
:1004A0003D6D05FB01F2D7F854C000FB0CF313447B
:1004B0003A6DA0FB02452B441D46D7E91C234FEAA9
:1004C000523CC7F848C0B86C40EAC340B8645913FE
:1004D000F964BB6C03FB05F2D7F84CC004FB0CF3CA
:1004E000D118B86CA4FB002319440B46510E396196
:1004F0003C6944EAC3143C615D167D61D7E904455B
:10050000C7E92045324B9B8A1AB24FEAE273396F32
:1005100003FB01F0796F02FB01F10144386FA0FB8E
:10052000022319440B46D50CBD60D7F808C04CEA2D
:10053000433CC7F808C0D814F860D7E90245C7E9BA
:100540001E45D7E91C01D7E92023801841EB0301A0
:10055000D7E91E23121843EB0103150A3D64D7F8AF
:1005600040C04CEA036CC7F840C018127864184BBE
:100570005B8A1AB24FEAE2731901F963FC6B44EA31
:100580001274FC631501BD63D7E91023D7E90E454A
:10059000121943EB0503C7E91C23D7E91C23150AED
:1005A0003D60D7F800C04CEA036CC7F800C01812D1
:1005B0007860D7E90045C7E91C45D7E91C0108F078
:1005C00013FE034618469037BD46BDE8B08F00BF06
:1005D000600300200000000080B582B000AF4FF043
:1005E00000037B60FFF7FAFD034618461C4908F03C
:1005F000EDFE0346184608F0A1F902460B461046E8
:10060000194613A3D3E9002306F048FF02460B4620
:10061000104619464FF00002124B08F02FF8024620
:100620000B46104619460CA3D3E9002308F0DAF96B
:1006300002460B461046194608F0B6FC03467B609E
:100640007B6818460837BD4680BD00BFAFF3008009
:10065000C5C551B9895AC83F00000060C662E6C0EE
:1006600080E6C5470000F03F90B589B000AFFA20A2
:10067000FFF79AFD03461C03FB20FFF795FD034699
:100680001B011C43FB20FFF78FFD03461B09DBB258
:1006900003F00F032343FB61FB69DA10214B1B8836
:1006A0005B00D31A1F4A528812B202FB03F3DB121B
:1006B0001A464FEAE273C7E90423FB691A11194B82
:1006C0001B88D31AFA691111164A12888A1A02FB7A
:1006D00003F31B13134A928812B202FB03F39B131A
:1006E0001A464FEAE273C7E902233A69BB6813442A
:1006F0001A460D4B1A600C4B1A6813469B001344A4
:1007000080331B12184608F059FD03467B60786859
:10071000064908F05BFE03467B607B681846243779
:10072000BD4690BD60030020900300200000C84239
:1007300090B583B000AFFD20FFF736FD03461C02E5
:10074000FE20FFF731FD034623437B602C4B1B68E3
:10075000A3F596333B607B689A032A4BDB8B1BB275
:100760001B05D21A274B1B8C1BB2396801FB03F304
:10077000D31A03F58043DB13224A92F8222039680A
:1007800001FB02F292121F49097F386800FB01F158
:10079000C91201F5004101FB02F2921202F50012AA
:1007A0001849498B09B201FB02F202F5005292137B
:1007B00002FB03F33B603B68DB133A68D21302FB96
:1007C00003F3DB110F4A127E02FB03F31B113A689D
:1007D000D31A3B603B6823EAE3733B603B68B3F1A9
:1007E000C85FA8BF4FF0C8533B603B689B151846D5
:1007F00008F0E4FC034618460C37BD4690BD00BF28
:10080000900300206003002080B582B000AF1C4B35
:10081000F4221A701A4B00225A7019480121022240
:10082000032302F0AFFC164BF5221A700023FB7174
:10083000134BFA795A70124801210222032302F065
:10084000A1FC0F4BF2221A700023FB710C4BFA79BA
:100850005A700B4801210222032302F093FC084B3B
:10086000F4221A700023FB71054BFA795A70044880
:1008700001210222032302F085FC0837BD4680BD1A
:100880001C01002080B483B000AF03463960FB71C7
:10089000FB79002B0DD0FB79012B0AD0FB79022BC1
:1008A00007D0FB79032B04D0FB79042B01D0FB7913
:1008B000052B0948FA793B68012101FA03F319462F
:1008C0001346DB0013449B000344103359600C377C
:1008D000BD465DF8047B70470060004080B483B083
:1008E00000AF03463960FB71FB79002B0DD0FB791B
:1008F000012B0AD0FB79022B07D0FB79032B04D004
:10090000FB79042B01D0FB79052B0948FA793B6868
:10091000012101FA03F319461346DB0013449B003F
:100920000344103319600C37BD465DF8047B7047F3
:100930000060004080B483B000AF03463960FB71B3
:10094000FB79002B0DD0FB79012B0AD0FB79022B10
:1009500007D0FB79032B04D0FB79042B01D0FB7962
:10096000052B0948FA793B68012101FA03F319467E
:100970001346DB0013449B000344183319600C3703
:10098000BD465DF8047B70470060004080B582B0D2
:1009900000AF0346FB713248012103F009FE02203B
:1009A00006210022002304F0E9FE04200221042293
:1009B000002304F0E3FE042003210422002304F0BA
:1009C000DDFE022005210822012304F0D7FE0220CB
:1009D00004210822012304F0D1FE01200C21082269
:1009E000012304F0CBFE01200B210822012304F097
:1009F000C5FE032001210122002304F0BFFE0320D5
:100A000000210422002304F0B9FE032007210B2259
:100A1000012304F0B3FE032006210B22012304F07E
:100A2000ADFE0420012104F00BFE0320012104F09F
:100A300007FE032004210422012304F09FFE03206B
:100A400005210422012304F099FE0220062101223F
:100A5000012304F093FE002318460837BD4680BDED
:100A600000D2040080B582B000AF0B463A60024667
:100A7000FA71BB71FB79002B05D1BB791846396837
:100A8000FFF72CFF13E0FB79012B05D1BB7918464A
:100A90003968FFF7F7FE0AE0FB79022B05D1BB7935
:100AA00018463968FFF746FF01E0012300E0002304
:100AB00018460837BD4680BD80B483B000AF0346FA
:100AC000FB71FB79002B06D0084B084AD26842F034
:100AD0000102DA6005E0054B044AD26822F0010207
:100AE000DA600C37BD465DF8047B704700A0084013
:100AF00080B500AF034805F02DFB034805F006FB69
:100B000080BD00BF0C9D0000249D000080B582B018
:100B100000AF7860002002F08FFE786802F0E8FEF7
:100B2000FFF7E6FF0020FFF7C7FF1A2005F0E2FD00
:100B30000837BD4680BD00BF80B483B000AF034618
:100B4000FB71084B97F907205209F97901F01F0151
:100B5000012000FA01F143F822100C37BD465DF880
:100B6000047B704700E100E080B485B000AF78609E
:100B700039607B6803F10473DA003B6813449B001F
:100B8000FB60FB681B6818461437BD465DF8047BA4
:100B9000704700BF80B582B000AF03463960FB717B
:100BA000FB79002B0DD0FB79012B0AD0FB79022BAE
:100BB00007D0FB79032B04D0FB79042B01D0FB7900
:100BC000052BFA791346DB0013449B000C3303F129
:100BD000804303F5C04318463968FFF7C5FF034655
:100BE00018460837BD4680BD80B400AF72B6084BCA
:100BF0001B68B3F1FF3F04D0054B1B685A1C044B24
:100C00001A60034B1B681846BD465DF8047B7047AD
:100C10005C03002080B483B000AF0C4B1B68002B3A
:100C20000DD00A4B1B685A1E084B1A60074B1B68F5
:100C30007B607B68002B00D162B67B6800E00023FC
:100C400018460C37BD465DF8047B70475C030020F6
:100C500080B483B000AF786039607B683A689A628C
:100C60000C37BD465DF8047B704700BF80B483B08D
:100C700000AF786039607B68DA6A3B681A437B684A
:100C8000DA620C37BD465DF8047B704780B483B0F0
:100C900000AF78600B46FB70FA787B685A600C37BF
:100CA000BD465DF8047B704780B483B000AF7860C8
:100CB000034B7A685A640C37BD465DF8047B704775
:100CC00000C0084080B400AF034B1B6C1846BD4603
:100CD0005DF8047B704700BF00C0084000000000C2
:100CE00080B588B000AF0346FB7101233B7300233E
:100CF0007B730023BB730023FB7300233B7400232F
:100D00007B740023BB740023FB7400233B7500231A
:100D10007B750023BB750223FB61FB6903F00F03A6
:100D20001B02FB61344B344A916EFA690A439A669E
:100D3000324B9B6A31481946FFF78AFF2F48012141
:100D4000FFF794FFFB79032B25D12D4B1B68184629
:100D500007F0D2FD02460B461046194624A3D3E9FC
:100D6000002307F03FFE02460B461046194608F0E6
:100D7000D3F80346BB61BB69204800211A4606F040
:100D80001DF8BB69C3F57F43FF331C4800211A4699
:100D900006F014F814E0FB79002B05D0FB79012B49
:100DA00002D0FB79022B09D143F61F03BB61BB695B
:100DB000124800211A4606F001F801E0012310E074
:100DC00007F10C030D48194606F03AF81A20FFF710
:100DD000B3FE0A48012106F01DF8022002F058FE79
:100DE000002318462037BD4680BD00BFAFF300800A
:100DF00096438B6CE7FB184000800C4000200840B5
:100E000094030020AFF3008080B584B002AF0023CC
:100E10007B60FFF7E9FE022002F03AFE3348012131
:100E2000FFF716FF324B9B6803F002035A08314B61
:100E30001A60314B1B68002B29D12F4B01221A60FD
:100E40002A4B0022DA602D4B00221A602C4B1B78B3
:100E5000002B03D12A4B01221A7011E0284B1B787A
:100E6000012B03D1264B02221A7009E0244B1B7878
:100E7000022B05D1032002F00BFE214B00221A7039
:100E80001A4800214FF6DE7205F098FF0FE01A4B6A
:100E90001B68012B0BD1184B00221A60134B002248
:100EA000DA601248002143F61F0205F087FF124B5B
:100EB0001B68012B11D1012002F0EAFD114B0093B8
:100EC00040F2F31301930020012100220E4B04F0A5
:100ED000A1F80E480121FFF7D9FE0D4B00221A7030
:100EE000FFF798FE0837BD4680BD00BF00200840D0
:100EF00000100040980300202C0100202801002051
:100F000030010020242000409C03002000200040ED
:100F10000000002080B588B000AFF8600B467A6012
:100F2000FB7200237B610023FB614FF000033B61F8
:100F3000364B364A526842F002025A60012002F0F3
:100F4000BDFD0023BB610BE0314BBA6933F81230B1
:100F50009BB21BB2FA691344FB61BB690133BB61ED
:100F6000BB69B3F5FA7FEFDBFB692A4A82FB031208
:100F70005211DB17D31AFB61F86901F075F838617B
:100F80003869254908F00CFB0346002B06D1386967
:100F9000224908F023FB0346002B05D00020042142
:100FA0000322FFF75FFD04E0012004210322FFF785
:100FB00059FD38691A4908F055F90346184608F0F2
:100FC0003DFB0146174BA3FB0123DA0813469B00A8
:100FD00013445B00CA1A7A6104200221FFF7DAFD8C
:100FE0000246114B1A60386908F002FB0346DBB277
:100FF0005BB2184602F0E8F90B4B1B68786919469A
:1010000002F0F2F92037BD4680BD00BF002000404D
:101010009C030020D34D62100000704100000C4280
:1010200000002041CDCCCCCC2401002080B586B07E
:1010300000AFFFF7D9FD00237B82784B1B8801337B
:101040009AB2764B1A80754B1B88032B05D1734BD4
:1010500000221A80FFF7DEFDDDE0714BDA6C714B88
:101060001A60FFF72FFEF860F868FFF71DFE0023F7
:10107000FB750BE0FB7DFA6822FA03F303F0010332
:10108000002B00D005E0FB7D0133FB75FB7D0F2BB2
:10109000F0D9634B9B69BB60614BFA7D012101FA7A
:1010A00002F29A6101237B750023BB7519E005F0FC
:1010B000F5FD00BF5A4B1B6A03F01003002BF9D15A
:1010C000574BDB697B60FB7D012202FA03F31A4672
:1010D0007B681340002B01D100237B75BB7D01335E
:1010E000BB75BB7D092BE2D94D4BBA689A617B7DFC
:1010F000002B6BD04A4AFB7D1B01134403F532736E
:101100001B6803F48033002B31D0FB7D012202FAEF
:1011100003F39BB2DB439AB2434B1B889BB2134051
:101120009BB29AB2404B1A803D49FB7D3C48FA7D08
:101130001201024402F53272126822F480321B015D
:101140000B4403F532731A60354AFB7D1B011344CF
:1011500003F532731B687B807B88013B7B80FA7DC3
:101160007B88104600211A4605F04CFD2EE0FB7DE1
:10117000012202FA03F39AB22B4B1B889BB2134352
:101180009BB29AB2284B1A802549FB7D2448FA7DF0
:101190001201024402F53272126842F480321B01DD
:1011A0000B4403F532731A601D4AFB7D1B01134487
:1011B00003F532731B687B807B8801337B80FA7D6B
:1011C0007B88104600211A4605F01CFD164B1B8833
:1011D0007B82164B7A8A1A80144B1B88B3F5806F7A
:1011E00006D91348FFF792FC124B01221A7010E047
:1011F0000E4B1B88B3F5806F0BD20E4B1B78002B68
:1012000007D1012004210222FFF72CFC0A48FFF736
:101210007DFCFFF7FFFC1837BD4680BD3201002082
:1012200000C00840CC0E0020340100203601002010
:10123000309D000000000020389D000080B584B083
:1012400000AFF860B9607A607B68012B0ED1FB6853
:10125000DAB2104B1A70BB68DAB20E4B5A700D48F6
:1012600001210222012301F08DFF10E07B68002B99
:101270000DD1FB68DAB2074B1A70BB68DAB2054BC6
:101280005A70044801210222022301F07BFF10372B
:10129000BD4680BD3801002080B584B000AF7860C5
:1012A00039603B68012B0AD17B68DAB20F4B1A70A8
:1012B0000E4800210122012301F064FF0CE03B688D
:1012C000002B09D17B68DAB2084B1A70074800215D
:1012D0000122022301F056FF01F0C6FF0346FB6026
:1012E000FB6818461037BD4680BD00BF3C0100209A
:1012F00080B584B000AF786020200021FFF7CCFFDC
:10130000F860FB6823F01C03FB607A68FB681343FA
:101310007B607B68202019460022FFF78FFF103783
:10132000BD4680BD80B584B000AF7860212000212B
:10133000FFF7B2FFF860FB6823F06003FB607A6898
:10134000FB6813437B607B68212019460022FFF76E
:1013500075FF1037BD4680BD80B584B000AF7860A2
:1013600024200021FFF798FFF860FB6823F040037A
:10137000FB607A68FB6813437B607B682420194616
:101380000022FFF75BFF1037BD4680BD80B584B0FB
:1013900000AF786020200021FFF77EFFF860FB6837
:1013A00023F06003FB607A68FB6813437B607B6813
:1013B000202019460022FFF741FF1037BD4680BDAF
:1013C00080B584B000AF786023200021FFF764FF70
:1013D000F860FB6823F00C03FB607A68FB6813433A
:1013E0007B607B68232019460022FFF727FF103718
:1013F000BD4680BD80B584B000AF7860222000215A
:10140000FFF74AFFF860FB6823F00303FB607A688C
:10141000FB6813437B607B68222019460022FFF79C
:101420000DFF1037BD4680BD80B584B000AF786039
:1014300023200121FFF730FFF860FB6823F0300321
:10144000FB607A68FB6813437B607B682320194646
:101450000122FFF7F3FE1037BD4680BD80B584B092
:1014600000AF786020200121FFF716FFF860FB68CD
:1014700023F00803FB607A68FB6813437B607B689A
:10148000202019460122FFF7D9FE1037BD4680BD46
:1014900080B584B000AF786020200121FFF7FCFE0A
:1014A000F860FB6823F00703FB607A68FB6813436E
:1014B0007B607B68202019460122FFF7BFFE1037B2
:1014C000BD4680BD80B584B000AF7860202001218A
:1014D000FFF7E2FEF860FB6823F06003FB607A68C8
:1014E000FB6813437B607B68202019460122FFF7CD
:1014F000A5FE1037BD4680BD80B500AF1820FFF7B0
:10150000F7FE6020FFF70EFF4020FFF725FF402089
:10151000FFF73CFF0820FFF753FF0020FFF76AFFAB
:101520000020FFF781FF0820FFF798FF0720FFF753
:10153000AFFF3020FFF7C6FF00F05CF880BD00BFB2
:1015400080B400AF1846BD465DF8047B704700BF0D
:1015500080B582B000AF0023FB710023BB7128204F
:101560000121FFF799FE0346BB7129200121FFF7F6
:1015700093FE0346FB7197F907301B029AB297F965
:1015800006309BB213439AB2194B1A802A200121CC
:10159000FFF782FE0346BB712B200121FFF77CFE83
:1015A0000346FB7197F907301B029AB297F9063090
:1015B0009BB213439AB20E4B5A802C200121FFF7A5
:1015C0006BFE0346BB712D200121FFF765FE03462C
:1015D000FB7197F907301B029AB297F906309BB25C
:1015E00013439AB2024B9A800837BD4680BD00BFB4
:1015F0006C0B002080B582B000AFEF23FB71FB794C
:10160000302019460022FFF719FE0023FB71FB79F9
:10161000322019460022FFF711FE0123FB71FB79EE
:10162000332019460022FFF709FE0837BD4680BD6A
:1016300080B483B000AF786039607B683A689A61A3
:101640000C37BD465DF8047B704700BF80B400AF27
:1016500072B6084B1B68B3F1FF3F04D0054B1B6803
:101660005A1C044B1A60034B1B681846BD465DF8B4
:10167000047B70475C03002080B483B000AF0C4B48
:101680001B68002B0DD00A4B1B685A1E084B1A60B2
:10169000074B1B687B607B68002B00D162B67B68C0
:1016A00000E0002318460C37BD465DF8047B704708
:1016B0005C03002080B500AFFFF7C8FF034801219D
:1016C000FFF7B6FFFFF7D8FF80BD00BF0010004056
:1016D00080B586B000AF2548012102F069FF24489B
:1016E000012102F065FF00233B7400237B7400237B
:1016F000BB741F23FB7400233B7500237B75002301
:101700003B7100237B710023BB710023FB7100231D
:101710003B7200237B720023BB720023FB72002309
:101720003B731448002102F061FB03463B75002027
:1017300002F08EFB0346FB7407F110030E481946B6
:1017400002F0C4FA08233B720023BB710023FB7133
:1017500000237B7101233B733B1D0748194602F0B0
:10176000F9FA002318461837BD4680BD40810400B1
:101770000002050020D613000020004080B584B090
:1017800000AF0346FB71094BFA791A700748002134
:101790000122032301F0F6FC01F066FD0346FB7312
:1017A000FB7B18461037BD4680BD00BF40010020BE
:1017B00098B500AF8920FFF7E1FF03461B029CB2FA
:1017C0008820FFF7DBFF034623449AB2784B1A8048
:1017D0008B20FFF7D3FF03461B029CB28A20FFF742
:1017E000CDFF034623449BB29AB2714B5A808D20A1
:1017F000FFF7C4FF03461B029CB28C20FFF7BEFF1D
:10180000034623449BB29AB2694B9A808F20FFF71C
:10181000B5FF03461B029CB28E20FFF7AFFF0346C5
:1018200023449AB2624BDA809120FFF7A7FF034668
:101830001B029CB29020FFF7A1FF034623449BB2FA
:101840009AB25B4B1A819320FFF798FF03461B0265
:101850009CB29220FFF792FF034623449BB29AB2B8
:10186000534B5A819520FFF789FF03461B029CB218
:101870009420FFF783FF034623449BB29AB24C4B5C
:101880009A819720FFF77AFF03461B029CB29620AD
:10189000FFF774FF034623449BB29AB2444BDA81AC
:1018A0009920FFF76BFF03461B029CB29820FFF7BD
:1018B00065FF034623449BB29AB23D4B1A829B209C
:1018C000FFF75CFF03461B029CB29A20FFF756FF0E
:1018D000034623449BB29AB2354B5A829D20FFF7B0
:1018E0004DFF03461B029CB29C20FFF747FF0346B7
:1018F00023449BB29AB22E4B9A829F20FFF73EFF61
:1019000003461B029CB29E20FFF738FF0346234488
:101910009BB29AB2264BDA82A120FFF72FFF034633
:101920001A46234B1A76E220FFF728FF03461B02D4
:101930009CB2E120FFF722FF034623449BB29AB2F8
:101940001B4B5A83E320FFF719FF03461A46184B37
:101950001A77E420FFF712FF03461B019CB2E52033
:10196000FFF70CFF034603F00F039BB223449BB227
:101970009AB20F4BDA83E620FFF700FF03461B0104
:101980009CB2E520FFF7FAFE03461B09DBB203F029
:101990000F039BB223449BB29AB2054B1A84E720F3
:1019A000FFF7ECFE03461A46014B83F8222098BD50
:1019B0006003002080B483B000AF0346FB71084B86
:1019C00097F907205209F97901F01F01012000FA67
:1019D00001F143F822100C37BD465DF8047B7047D7
:1019E00000E100E080B500AF05F082FC80BD00BFE3
:1019F00080B400AF72B6084B1B68B3F1FF3F04D050
:101A0000054B1B685A1C044B1A60034B1B68184695
:101A1000BD465DF8047B70475C03002080B483B052
:101A200000AF0C4B1B68002B0DD00A4B1B685A1ED5
:101A3000084B1A60074B1B687B607B68002B00D14A
:101A400062B67B6800E0002318460C37BD465DF89F
:101A5000047B70475C03002080B483B000AF7860E3
:101A6000064B7A6802F00F02A03253F82230184673
:101A70000C37BD465DF8047B704700BF00C00840CE
:101A800080B584B000AF7860304B00221A80304BB4
:101A900000221A700023FB7336E0FA7B2D4B0021E5
:101AA00023F81210FA7B2C4B4FF6FF7123F812101B
:101AB000FB7B9B007A6813441B6818464FF00001BB
:101AC00007F064FD0346002B1BD1FA7BFB7B9B00D8
:101AD00079680B441968214B43F82210FB7B0122E3
:101AE00002FA03F39AB2194B1B889BB213439BB2C1
:101AF0009AB2164B1A80164B1B780133DAB2144B8C
:101B00001A70FB7B0133FB73FB7B0F2BC5D9FFF7EF
:101B10006FFF00F031F800F0ADF800F063F800F06E
:101B200073F80023FB7306E005F0B8F800F0C4F882
:101B3000FB7B0133FB73FB7B632BF5D901F07EFD4F
:101B4000FFF76CFF1037BD4680BD00BFC802002004
:101B5000CA02002088020020A8020020CC02002037
:101B600080B400AF034B1B889BB21846BD465DF89E
:101B7000047B70478402002080B500AFFFF732FF7E
:101B80001048012102F014FD0F48012102F010FD60
:101B90000E48012102F00CFD0D48022102F00EFF5B
:101BA0000C48012102F004FD0B48012102F000FD68
:101BB0000A48012102F0FCFC0948012102F0FEFE66
:101BC00080BD00BF0092040000A2040000D2040007
:101BD0000200180000430200600628006016100092
:101BE00003001A0080B500AF0448054901F098FFD2
:101BF0000448034901F094FF80BD00BF001000407D
:101C0000809D00000014004080B582B000AF1648EF
:101C1000012104F0ADFD0023FB7111E0134B1B8883
:101C20001A46FB7942FA03F303F00103002B04D0B8
:101C3000FB790F48194604F015FFFB790133FB715E
:101C4000FB790F2BEAD90020052104F045FE002086
:101C5000002104F0D7FE1120FFF7ACFE05F01EF8BE
:101C60000837BD4680BD00BF949D0000C80200201B
:101C7000D49D000080B582B000AF00237B6012E0ED
:101C80000C4B1B881A467B6842FA03F303F00103EE
:101C9000002B05D0022079680022002303F06EFD9E
:101CA0007B6801337B607B680F2BE9D90837BD4621
:101CB00080BD00BFC8020020F0B585B000AF00BFF6
:101CC000624B1B6A03F01003002BF9D15F4B5B6A78
:101CD00003F4F0735B09BB605D4B1B781A46BB686D
:101CE0009A4205DC5A4B1B78BA68D31ABB6005E0F0
:101CF000574B1B78BA68D31A1033BB600023FB60C4
:101D000021E0544B1B881A46FB6842FA03F303F0A8
:101D10000103002B14D0504B1B781C46BB685A1C87
:101D2000BA601846FFF798FE034698B24B49FA6826
:101D300013469B0013445B002344024621F8132002
:101D4000FB680133FB60FB680F2BDADD424B1B782D
:101D50000133DAB2404B1A703F4B1B78092B02D982
:101D60003D4B00221A700023FB6068E0394B1B8852
:101D70001A46FB6842FA03F303F00103002B5BD021
:101D8000FA6813469B0013449B00344A13441846D8
:101D90000A2100F06DF803461946314BFA6823F822
:101DA0001210FA6813469B0013449B002B4A1344FD
:101DB00018460A2100F084F803461946294BFA68B0
:101DC00023F81210264BFA6833F81230FB80FB68B8
:101DD000DEB2FB88184606F09FFD04460D46FB88E0
:101DE000184607F0EBF902461F4BF96853F821300B
:101DF0001046194607F036FA0346184606F09EFDCF
:101E000002460B46104619464FF00002174B06F0EB
:101E100013FF02460B462046294606F02FFC0246D9
:101E20000B461046194607F09FF803469BB2304612
:101E300000211A4604F0E6FEFB680133FB60FB68F4
:101E40000F2B93DD1437BD46F0BD00BF00C0084026
:101E5000CA020020C80200200C0300204401002018
:101E600088020020A8020020CC0200200000594077
:101E700080B485B000AF78600B467B8000237B8107
:101E80000023FB6011E0FB685B007A6813441B8849
:101E90009BB27A899A4205D2FB685B007A68134448
:101EA0001B887B81FB680133FB607A88FB689A4260
:101EB000E9DC7B8918461437BD465DF8047B704722
:101EC00080B485B000AF78600B467B804FF6FF731F
:101ED0007B810023FB6011E0FB685B007A681344A0
:101EE0001B889BB27A899A4205D9FB685B007A68A5
:101EF00013441B887B81FB680133FB607A88FB6895
:101F00009A42E9DC7B8918461437BD465DF8047BAC
:101F1000704700BFB0B590B000AF0D4B3C461D46BA
:101F20000FCD0FC40FCD0FC40FCD0FC495E80F0018
:101F300084E80F003B461846FFF7A2FD00BFFFF7FD
:101F40000FFE0346002BFAD14037BD46B0BD00BF9F
:101F5000409D000080B483B000AF786039607B683A
:101F60003A689A610C37BD465DF8047B704700BF44
:101F700080B400AF72B6084B1B68B3F1FF3F04D0CA
:101F8000054B1B685A1C044B1A60034B1B68184610
:101F9000BD465DF8047B70475C03002080B483B0CD
:101FA00000AF0C4B1B68002B0DD00A4B1B685A1E50
:101FB000084B1A60074B1B687B607B68002B00D1C5
:101FC00062B67B6800E0002318460C37BD465DF81A
:101FD000047B70475C03002080B582B000AF0346ED
:101FE000FB71FB79002B05D0FB79012B02D0FB792B
:101FF000022B09D100200121012202F059FE1048D4
:10200000022102F0DBFC0EE0FB79032B09D1052055
:102010000121012202F04CFE0948092102F0CEFC08
:1020200001E0012308E00748012102F0C1FA064857
:10203000012102F0BDFA002318460837BD4680BDD5
:1020400002001800004302006026120080B500AFB5
:10205000FFF78EFF03480121FFF77CFFFFF79EFF8C
:1020600080BD00BF0000014080B586B000AF786041
:10207000164B1B6803F47F031B0C184607F09AF8F5
:1020800003467B61124B1B681B0D184607F092F844
:1020900003463B610F4BFB60786807F08FF80346FF
:1020A0003869194606F0D4FF03461846F96807F068
:1020B0008DF903467869194606F0CAFF0346BB60EE
:1020C000BB6818461837BD4680BD00BFB081E00F21
:1020D000BC81E00FD7A3C8C080B588B000AF1D4851
:1020E000012102F065FA00233B761B4BFB6107F1EF
:1020F0001803184603F02EF800233B7101237B716F
:102100004FF40023BB60154BFB60144B144A1A605C
:10211000124B01221A72114B00225A603B1D002003
:10212000194602F097FF01233B7403237B740123BC
:10213000BB740023FB7400233B7507F110030020E0
:1021400001211A4602F0CEFF002318462037BD4673
:1021500080BD00BF00030200000C00207C0B0020AB
:10216000150F000080B483B000AF0346FB71084B2D
:1021700097F907205209F97901F01F01012000FAAF
:1021800001F143F822100C37BD465DF8047B70471F
:1021900000E100E080B483B000AF0346FB71094B5F
:1021A00097F907205209F97901F01F01012000FA7F
:1021B00001F1603243F822100C37BD465DF8047B14
:1021C000704700BF00E100E080B584B002AF396025
:1021D0000146F971BA717B71FA79BB79797900910D
:1021E000397C0191104639683A6803F061FA083782
:1021F000BD4680BD80B500AF00F0C2FD80BD00BF10
:1022000080B582B002AF0123009302200621002294
:102210000123FFF7D9FF0120FFF7BCFF0120FFF7E3
:10222000A1FFBD4680BD00BF80B584B000AF0346AE
:10223000FB71094BFA791A70074800210122042327
:1022400000F0A0FF01F010F80346FB73FB7B18467B
:102250001037BD4680BD00BF1403002080B582B09A
:1022600000AFD64B80221A70D44B00225A70D3484C
:1022700001210222042300F085FFD04B81221A7035
:10228000CE4BDB225A70CD4801210222042300F0FC
:1022900079FFCA4B83221A70C84BFF225A70C74875
:1022A00001210222042300F06DFFC44B8E221A701C
:1022B000C24B89225A70C14801210222042300F036
:1022C00061FFBE4B9D221A70BC4B00225A70BB4866
:1022D00001210222042300F055FFB84B9E221A7000
:1022E000B64B00225A70B54801210222042300F0A7
:1022F00049FFB24B8D221A70B04B60225A70AF4822
:1023000001210222042300F03DFF0023FB71FB7931
:1023100003F00303FB71FB799B01FB718F20FFF737
:1023200083FF0346BB71BB7903F03F03BB71BA79EE
:10233000FB791343BB71A14B8F221A709F4BBA7963
:102340005A709E4801210222042300F01BFF022341
:10235000FB71FB7903F00303FB71FB799B01FB71BC
:102360008F20FFF761FF0346BB71BB7903F03F038A
:10237000BB71BA79FB791343BB71904B8F221A70F2
:102380008E4BBA795A708D4801210222042300F045
:10239000F9FE0123FB71FB7903F00303FB718F202E
:1023A000FFF742FF0346BB71BB7923F00303BB7108
:1023B000BA79FB791343BB71804B8F221A707F4B24
:1023C000BA795A707D4801210222042300F0DAFE16
:1023D0007A4B89221A70794B00225A707748012172
:1023E0000222042300F0CEFE744B8B221A70734B32
:1023F00032225A70714801210222042300F0C2FEE9
:10240000FF237B71FF233B716C4B84221A706B4B53
:102410007A795A70694801210222042300F0B2FE41
:10242000664B85221A70654B3A795A7063480121D0
:102430000222042300F0A6FE00237B7100233B71DF
:102440005E4B86221A705D4B7A795A705B48012187
:102450000222042300F096FE584B87221A70574B35
:102460003A795A70554801210222042300F08AFE6D
:10247000524B8C221A70514BA1225A704F480121A5
:102480000222042300F07EFE4C4B90221A704B4B2C
:1024900001225A70494801210222042300F072FEF1
:1024A000464B9F221A70454B00225A704348012127
:1024B0000222042300F066FE404BA0221A703F4B1C
:1024C00028225A703D4801210222042300F05AFEBE
:1024D0003A4BA1221A70394B1E225A7037480121FB
:1024E0000222042300F04EFE344BA2221A70334B1A
:1024F00040225A70314801210222042300F042FE9A
:102500000223FB70FB7803F00303FB70FB785B0195
:10251000FB70A320FFF788FE0346BB71BB7923F055
:102520006003BB71BA79FB781343BB71234BA322C1
:102530001A70224BBA795A702048012102220423D2
:1025400000F020FE0023FB71FB7903F00303FB7115
:10255000FB79DB00FB71A320FFF766FE0346BB712E
:10256000BB7923F01803BB71BA79FB791343BB71B4
:10257000124BA3221A70114BBA795A700F480121DD
:102580000222042300F0FEFD0123FB71FB7903F01E
:102590000703FB71A320FFF747FE0346BB71BB791E
:1025A00023F00703BB71BA79FB791343BB71034B6B
:1025B000A3221A70014BBA795A7001E0100300206F
:1025C000714801210222042300F0DCFD6E4BA4229D
:1025D0001A706D4B00225A706B48012102220423AD
:1025E00000F0D0FD684BA5221A70674B00225A708C
:1025F000654801210222042300F0C4FD624BA7229A
:102600001A70614B00225A705F4801210222042394
:1026100000F0B8FD5C4BA9221A705B4B00225A7087
:10262000594801210222042300F0ACFD564BA6229A
:102630001A70554BC9225A705348012102220423B3
:1026400000F0A0FD504BAA221A704F4B00225A7086
:102650004D4801210222042300F094FD0023FB7168
:10266000FB7903F00103FB71FB795B00FB71AB208D
:10267000FFF7DAFD0346BB71BB7923F00203BB71A0
:10268000BA79FB791343BB713F4BAB221A703E4BB7
:10269000BA795A703C4801210222042300F072FDED
:1026A0000023BB710323FB71FB7903F00303FB7170
:1026B000FB791B01FB719020FFF7B6FD0346BB7150
:1026C000BB7923F03003BB71BA79FB791343BB713B
:1026D0002D4B90221A702C4BBA795A702A4801213E
:1026E0000222042300F04EFD0123FB71FB7903F06D
:1026F0000103FB71FB795B00FB71AB20FFF794FDDD
:102700000346BB71BB7923F00203BB71BA79FB7935
:102710001343BB711C4BAB221A701B4BBA795A7016
:10272000194801210222042300F02CFD0123FB7132
:10273000FB7903F00103FB71AB20FFF775FD034646
:10274000BB71BB7923F00103BB71BA79FB791343E9
:10275000BB710D4BAB221A700B4BBA795A700A48F9
:1027600001210222042300F00DFD074B80221A7084
:10277000054B4D225A70044801210222042300F027
:1027800001FD0837BD4680BD1003002098B500AF9D
:10279000774B1B68012B07D1764B05221A607648D0
:1027A000FEF7B4F90123E0E0714B1B68022B07D15F
:1027B000704B06221A607148FEF7A8F90123D4E095
:1027C0006F4B1B68B3F1FF3F0AD16E4B1B68002BA8
:1027D00006D1684B03221A606B48FEF797F9C3E0F5
:1027E000674B1B68012B0AD1664B1B68002B06D177
:1027F000604B04221A606548FEF788F9B4E0604B2C
:102800001B68002B0AD15F4B1B68012B06D1594B6B
:1028100002221A605E48FEF779F9A5E0584B1B6862
:10282000002B0BD1574B1B68B3F1FF3F06D1514B27
:1028300001221A605748FEF769F995E0504B1B6872
:10284000B3F1FF3F1FD14F4B1B68012B1BD1524BE4
:102850001B68184607F0F8F90446504B1B681846E9
:1028600007F0F2F903469C4206DD424B03221A6050
:102870004548FEF74BF977E03E4B02221A60444888
:10288000FEF744F970E03E4B1B68012B20D13D4B15
:102890001B68B3F1FF3F1BD13F4B1B68184607F085
:1028A000D3F904463D4B1B68184607F0CDF90346A3
:1028B0009C4206DD2F4B04221A603448FEF726F9AD
:1028C00052E02C4B01221A603248FEF71FF94BE010
:1028D0002B4B1B68B3F1FF3F20D12A4B1B68B3F190
:1028E000FF3F1BD12C4B1B68184607F0ADF904467F
:1028F0002A4B1B68184607F0A7F903469C4206DDE1
:102900001C4B03221A602048FEF700F92CE0194BFB
:1029100001221A601F48FEF7F9F825E0184B1B68E2
:10292000012B1FD1174B1B68012B1BD11A4B1B68A6
:10293000184607F089F90446184B1B68184607F03B
:1029400083F903469C4206DD0A4B04221A600F48B5
:10295000FEF7DCF808E0074B02221A600C48FEF78D
:10296000D5F801E0002300E00123184698BD00BF20
:10297000A00E0020980E0020F49D0000FC9D000099
:102980009C0E00200C0E0020009E0000049E000003
:102990000C9E0000149E0000040E0020000E00207B
:1029A00080B58AB000AF002387F82730002387F86E
:1029B0002630002387F82530002387F824300023B1
:1029C00087F82330002387F82230002387F821304E
:1029D000002387F82030A54B93F88130042B01D8D1
:1029E0000023A0E1A14B93F88130202B00F29F80BF
:1029F0009E4B93F88130002B00F099800023FB61FF
:102A000039E09A4AFB6913441B780A2B30D9974A5C
:102A1000FB69134420331B780A2B29D9934AFB699D
:102A2000134440331B780A2B22D9904AFB69134484
:102A300060331B780A2B1BD98C4AFB6913441B7823
:102A400087F82730894AFB69134420331B7887F8BD
:102A50002630864AFB69134440331B7887F82530BB
:102A6000824AFB69134460331B7887F8243009E0FD
:102A7000FB690133FB617D4B93F881301A46FB699A
:102A80009A42BEDC97F82730002B0BD097F82630FF
:102A9000002B07D097F82530002B03D097F824306F
:102AA000002B01D100233EE1704B93F88130013BB4
:102AB000FB6139E06D4AFB6913441B780A2B30D95E
:102AC0006A4AFB69134420331B780A2B29D9674AC9
:102AD000FB69134440331B780A2B22D9634AFB69F4
:102AE000134460331B780A2B1BD9604AFB691344DB
:102AF0001B7887F823305D4AFB69134420331B7829
:102B000087F82230594AFB69134440331B7887F811
:102B10002130564AFB69134460331B7887F8203014
:102B200005E0FB69013BFB61FB69002BC2DA97F80A
:102B3000272097F82630D31A642202FB03F297F875
:102B4000271097F826300B4492FBF3F3BB6197F8FC
:102B5000252097F82430D31A642202FB03F297F859
:102B6000251097F824300B4492FBF3F37B6197F820
:102B7000232097F82230D31A642202FB03F297F83D
:102B8000231097F822300B4492FBF3F33B6197F844
:102B9000212097F82030D31A642202FB03F297F821
:102BA000211097F820300B4492FBF3F3FB603A6955
:102BB000BB69D31ABB60FA687B69D31A7B602C4B64
:102BC0001A68BB681A442A4B1A602A4B1A687B6839
:102BD0001A44284B1A60264B1B68312B03DD264B09
:102BE00001221A600CE0224B1B6813F1310F04DA4A
:102BF000214B4FF0FF321A6002E01F4B00221A6097
:102C00001C4B1B68312B03DD1C4B01221A600CE0AE
:102C1000184B1B6813F1310F04DA184B4FF0FF32D9
:102C20001A6002E0154B00221A60134B1B68002B40
:102C300051D1124B1B68002B4DD1B86807F004F836
:102C40000346132B46DC786806F0FEFF0346132B81
:102C500040DCBB68002B15D17B68002B12D1084BE0
:102C60001B685A1C064B1A6017E000BF140E0020A8
:102C7000040E0020000E00209C0E00200C0E0020F0
:102C8000080E0020BB68002B02D17B68002B04D00B
:102C9000274B1B685A1C264B1A60264B1B68092BB6
:102CA00018DD234B1B68012B14DDBB68002B06D1FC
:102CB0007B68002B03D1204B01221A6008E0BB681F
:102CC000002B05D07B68002B02D01B4B02221A6020
:102CD000012328E026E0B86806F0B6FF0346132B70
:102CE00020DC786806F0B0FF0346132B1ADCBB68C3
:102CF000002B07D17B68002B04D10E4B1B685A1C9C
:102D00000C4B1A600B4B1B68092B0BDD0B4B002285
:102D10001A600B4B00221A600A4B00221A600A4B01
:102D200000221A60002318462837BD4680BD00BF28
:102D3000100E0020080E0020A00E00209C0E002087
:102D40000C0E0020040E0020000E002080B485B080
:102D500000AF0346FB710023FB600023FB6002E031
:102D6000FB680133FB60FB79FA7902FB03F2FB6835
:102D70009A42F5DC1437BD465DF8047B704700BF0E
:102D800090B5A3B000AF002387F883301E20FFF773
:102D9000DDFFAF20FFF748FA034687F8823097F847
:102DA000823003F00103002B00F0B880AE20FFF763
:102DB0003BFA034687F8833097F88330042B40F2C0
:102DC000CB800023C7F8843035E0FC20FFF72CFAD5
:102DD00003461A463946D7F884300B441A70D7F8A0
:102DE00084305C1CFD20FFF71FFA03461A4607F1EA
:102DF0008803234403F8882CD7F884309C1CFE20D9
:102E0000FFF712FA03461A4607F18803234403F832
:102E1000882CD7F88430DC1CFF20FFF705FA034626
:102E20001A4607F18803234403F8882CD7F8843026
:102E30000433C7F8843097F883309A00D7F8843089
:102E40009A42C2DC97F88330032B40F2858000233E
:102E5000C7F884304BE0434B93F880303946D7F8BD
:102E600084200A4411783F4AD1543E4B93F8803075
:102E7000D7F88420013207F188010A4412F8882C1F
:102E800038490B4483F82020364B93F88030D7F82C
:102E90008420023207F188010A4412F8882C314953
:102EA0000B4483F840202F4B93F88030D7F88420D0
:102EB000033207F188010A4412F8882C29490B448F
:102EC00083F86020274B93F880300133DAB2254B2A
:102ED00083F88020234B93F881300133DAB2214B01
:102EE00083F88120D7F884300433C7F8843097F80A
:102EF00083309A00D7F884309A42ACDCFFF750FD5B
:102F00000346002B01D0FFF741FC164B002283F84B
:102F10008020144B002283F8812037E71E20FFF722
:102F200015FFFFF733FC0F4B002283F880200D4B79
:102F3000002283F881200C4B00221A600B4B0022E8
:102F40001A600B4B00221A600A4B00221A600A4BCF
:102F500000221A60012300E018E718468C37BD46AE
:102F600090BD00BF140E0020040E0020000E0020B3
:102F70009C0E00200C0E0020980E002080B483B020
:102F800000AF786039607B683A681A630C37BD46D9
:102F90005DF8047B704700BF80B500AF2748012172
:102FA00001F006FB2648012101F002FB2548012122
:102FB00001F0FEFA24482549FFF7E0FF24482349A1
:102FC000FFF7DCFF204B03229A63214B40F20312F0
:102FD0009A631D481F4902F001FD1D481D4902F07A
:102FE000FDFC194B9B68002B03D1194B9B68002BF0
:102FF00005D0154B20225A60154B20225A60164BE3
:1030000000221A70154B00221A70154B00221A70FC
:103010000D4B72225A610C4B0B4A126842F0170298
:103020001A600B4B3A225A61094B094A126842F066
:1030300017021A600023184680BD00BF40810400BB
:1030400000B2040000C2040000A4004024000100FB
:1030500000A0004004000020A50E0020A60E0020C5
:10306000A40E002080B582B000AF0346FB71194B5F
:1030700001225A80174B184A5A60184B1B781A467F
:10308000144B1A81134B164ADA60164B1B781A46FA
:10309000104B1A82FB79002B0BD113480D4902F01B
:1030A000FFFE00BF104802F0D5FC0346012BF9D00B
:1030B0000DE0FB79012B0AD10C48064902F0F0FE25
:1030C00000BF0A4802F0C6FC0346012BF9D00837BE
:1030D000BD4680BDA80E002018030020010000207E
:1030E000200300200300002000A0004000A40040B6
:1030F00080B584B000AF0346FB711B4B04225A809D
:10310000194B1A4A5A601A4B1B781A46164B1A81E9
:10311000154B184ADA60184B1B781A46124B1A8264
:10312000FB79002B0DD115480F4902F0B9FE03467B
:10313000FB7300BF114802F08DFC0346012BF9D050
:103140000FE0FB79012B0CD10D48074902F0A8FED6
:103150000346FB7300BF0A4802F07CFC0346012BC8
:10316000F9D01037BD4680BDA80E00201C030020FA
:1031700002000020200300200300002000A00040E7
:1031800000A4004080B584B000AF7860F970BA70D8
:103190007B707B78012B08D12C4B3A225A612C4B47
:1031A0003A221A800023FB7322E07B78022B08D19D
:1031B000264B3C225A61264B3C221A800023FB738B
:1031C00016E07B78032B08D1224BEC225A61204B6E
:1031D000EC221A800123FB730AE07B78042B07D1D1
:1031E0001C4B72225A611A4B72221A800123FB7304
:1031F000FB78002B0BD17B681A78174B1A70174B92
:10320000BA781A70FB7B1846FFF772FF1BE0FB7859
:10321000012B18D10023BB600AE0BB687A68134415
:103220001A780F49BB680B441A70BB680133BB6046
:10323000BA78BB689A42F0DC0A4BBA781A70FB7B0A
:103240001846FFF70FFF1037BD4680BD00A00040B5
:10325000A80E002000A400401C0300200200002053
:10326000180300200100002080B400AF034B1B783E
:103270001846BD465DF8047B704700BF2003002060
:1032800080B483B000AF0346FB71084B97F9072069
:103290005209F97901F01F01012000FA01F143F808
:1032A00022100C37BD465DF8047B704700E100E05A
:1032B00080B400AF72B6084B1B68B3F1FF3F04D077
:1032C000054B1B685A1C044B1A60034B1B681846BD
:1032D000BD465DF8047B70475C03002080B483B07A
:1032E00000AF0C4B1B68002B0DD00A4B1B685A1EFD
:1032F000084B1A60074B1B687B607B68002B00D172
:1033000062B67B6800E0002318460C37BD465DF8C6
:10331000047B70475C03002080B483B000AF78600A
:1033200039607B683A685A630C37BD465DF8047BA8
:10333000704700BF80B483B000AF786039607B68AD
:103340009A6B3B681A437B689A630C37BD465DF8FD
:10335000047B704790B585B000AF002001210122A9
:1033600001F0A6FC1448022101F028FB13480121BA
:1033700001F01EF9124803F08DFE124B3C460FCBB4
:1033800084E80F003B460E48194603F041FE0C4B03
:1033900003225A650A4B0A4A126842F080021A60F8
:1033A00007480121FFF7C6FF1820FFF769FF002338
:1033B00018461437BD4690BD03001A00700714006C
:1033C000004008401C9E000080B582B000AF03465C
:1033D000FB71FB790348194603F094FE0837BD469C
:1033E00080BD00BF0040084080B483B000AF78606B
:1033F0003960074B7A681A60064B3A681A60064BC8
:1034000001221A600C37BD465DF8047B704700BF8F
:10341000C80E0020C00E0020C40E002080B500AFF2
:10342000FFF746FF12480121FFF776FF114B1B689B
:10343000002B19D0104B1B68002B07D10C4B0F4AE7
:1034400012689A620C4B01221A600DE00A4B1B684D
:10345000012B09D1064B0A4A12689A62064B0022D8
:103460001A60044B00221A60FFF738FF80BD00BFCE
:1034700000400840C40E00202C030020C80E00208D
:10348000C00E002080B582B000AF0C4B1B687B6083
:103490003B46184603F0CCFE7B681B0E0F2B0AD967
:1034A0003B78032B07D1064B054A126822F05002E5
:1034B00042F010021A600837BD4680BDFC81E00F63
:1034C000C0800C4080B582B000AF4FF000037B603D
:1034D000FFF7D8FF032000F0DBFA0220FEF77CFDA7
:1034E00038600220FDF752FA3860FEF713FDFFF74F
:1034F00053FD3860FEF7ECF83860FEF7EDFD3860FC
:10350000FDF7FAFFFEF71CF803463B60FEF720F8D4
:10351000FFF720FF38600220FDF7E2FB3860FEF77E
:103520006FFEFEF745F9FDF76FF9FDF79DF878603E
:10353000FDF7FEF87860FCF751FE7860FDF74CF877
:103540007860FEF78BFE00F083FAFCE780B483B06E
:1035500000AF0346FB71084B97F907205209F97930
:1035600001F01F01012000FA01F143F822100C378D
:10357000BD465DF8047B704700E100E080B483B095
:1035800000AF7860034B7A689A610C37BD465DF8EE
:10359000047B70470000084080B483B000AF7860BF
:1035A000054B054AD1697A680A43DA610C37BD4692
:1035B0005DF8047B704700BF0000084080B400AF96
:1035C00072B6084B1B68B3F1FF3F04D0054B1B6874
:1035D0005A1C044B1A60034B1B681846BD465DF825
:1035E000047B70475C03002080B483B000AF0C4BB9
:1035F0001B68002B0DD00A4B1B685A1E084B1A6023
:10360000074B1B687B607B68002B00D162B67B6830
:1036100000E0002318460C37BD465DF8047B704778
:103620005C03002080B500AFFFF7C8FF0220FFF762
:10363000A5FF03F0F3FDFFF7D7FF80BD80B500AF16
:103640000948012100F0B4FF084803F0BFFD002045
:103650004FF4803103F084FD0220FFF79DFF1E2010
:10366000FFF774FF80BD00BF601610002C9E0000A5
:1036700080B483B000AF0346FB71FB79002B03D00D
:10368000054B01221A6602E0034B00221A660C3732
:10369000BD465DF8047B704700A0084080B483B04D
:1036A00000AF786000BF054B5A6E7B681340002B5B
:1036B000F9D10C37BD465DF8047B704700A0084087
:1036C00080B483B000AF7860054B054A916A7A6890
:1036D000D2430A409A620C37BD465DF8047B7047BE
:1036E00000A0084080B500AF00202849002202F069
:1036F00085FE01202549002202F080FE0220234998
:10370000002202F07BFE03202049002202F076FE18
:1037100004201E49002202F071FE05201B490022F0
:1037200002F06CFE06201949002202F067FE072015
:103730001649002202F062FE0020FF21002202F062
:103740001BFF0120FF21002202F016FF0220FF21B3
:10375000002202F011FF0320FF21002202F00CFFE3
:103760000420FF21002202F007FF0520FF21002294
:1037700002F002FF0620FF21002202F0FDFE0720DA
:10378000FF21002202F0F8FE80BD00BF00F00FF024
:1037900080B500AF07202649002202F02FFE062048
:1037A0002449002202F02AFE05202249002202F0CC
:1037B00025FE04201F49002202F020FE03201D499F
:1037C000002202F01BFE02201A49002202F016FE1F
:1037D00001201849002202F011FE00204FF0204184
:1037E000002202F00BFE07200721002202F0C4FE97
:1037F00006200721002202F0BFFE0520072100223B
:1038000002F0BAFE04200721002202F0B5FE0320D8
:103810000721002202F0B0FE02200721002202F060
:10382000ABFE01200721002202F0A6FE00BF80BDF2
:1038300000E00F5000E00FF080B582B000AF03460B
:10384000FB712548012100F0B3FE2448032101F05B
:10385000B5F82348402100F093FD012001F00AFA59
:103860002048012100F0A4FE4FF0FF30FFF728FFB1
:103870001D4802F0F1FB0820012102F0ADFC1020F0
:10388000012102F0A9FC8020012102F0A5FC4FF4E7
:103890008070012102F0A0FC4FF40070012102F0C1
:1038A0009BFCFB79002B0DD04FF4402002F036FF3B
:1038B0004FF4803002F008FC0C4B0C4AD26F42F0FF
:1038C0000802DA67FFF70EFF4FF0FF30FFF7E6FE62
:1038D0000837BD4680BD00BF00430200020018004B
:1038E0006000240000362600E8A0000000800C40A4
:1038F00080B58AB000AF7860786806F0F1F90346C9
:10390000BB6100233B624FF0FF30FFF7C7FE012091
:10391000FFF7AEFEFFF73CFF00233B6246E03A6A4A
:10392000BB699A4203DA7B681B787B6201E0202343
:103930007B627B6A203B7B62214B7A6A33F81230D0
:10394000FB820023FB6128E01E493A6A1346DB0034
:103950009B1A9B00CA18FB69134408339B793B618F
:1039600018493A6A1346DB009B1A9B00FA69134414
:103970000B441B78FB60FA8AFB6942FA03F303F0FD
:103980000103002B06D0FA683B6910461946012254
:1039900002F042FCFB690133FB61FB690D2BD3DDB7
:1039A0007B6801337B603B6A01333B623B6A062BD9
:1039B000B5DD0020FFF75CFE2837BD4680BD00BFA7
:1039C00030A00000309E000080B400AF054B054AD7
:1039D000126922F004021A6130BFBD465DF8047B13
:1039E000704700BF00ED00E080B400AF72B6084B36
:1039F0001B68B3F1FF3F04D0054B1B685A1C044BF6
:103A00001A60034B1B681846BD465DF8047B70477F
:103A10005C03002080B483B000AF0C4B1B68002B0C
:103A20000DD00A4B1B685A1E084B1A60074B1B68C7
:103A30007B607B68002B00D162B67B6800E00023CE
:103A400018460C37BD465DF8047B70475C030020C8
:103A500080B500AF0D4B1B68002B00DD15E00B4B54
:103A60005B68002B02DDFFF7AFFF0EE0074B9B68A2
:103A7000002B03DD012001F0A7FC06E0034BDB680F
:103A8000002B02DD012001F0EDFC80BD30030020A1
:103A900080B582B000AF0346FB71FFF7A5FFFB794D
:103AA000054A52F82320511C034A42F82310FFF71D
:103AB000B1FF0837BD4680BD3003002080B582B01D
:103AC00000AF0346FB71FFF78FFFFA79084B53F8FD
:103AD0002230002B07DDFB79054A52F82320511EC6
:103AE000034A42F82310FFF795FF0837BD4680BD13
:103AF0003003002080B487B000AFF860B9607A600E
:103B0000FB6803F10473DA00BB6813449B007B611C
:103B10007B697A681A601C37BD465DF8047B704784
:103B200080B582B000AF786039607A681D4B9A42E8
:103B300003D07A681C4B9A4200D100BF3B681B78C7
:103B4000DA073B685B789B0713431A463B685B6860
:103B50001B061A433B681B7A1B021A433B685B7ABD
:103B60001B011A437B681A603B689B7A1B071A4645
:103B70003B68DB7A1B041A433B68DB681B02134378
:103B800043F0807343F0B0037A6853607A683B680F
:103B90001B7C104600211A46FFF7ACFF0837BD46D4
:103BA00080BD00BF001000400014004080B487B00A
:103BB00000AF786013460A46FA70BB70BB78002BE2
:103BC00004D01023FB603E4B3B6103E00023FB600D
:103BD0003C4B3B617B685A6B3B691340BB600023E5
:103BE0007B61FB78062B5BD801A252F823F000BF63
:103BF0000D3C00002B3C00004F3C00006D3C0000E1
:103C0000A13C0000A13C0000913C00002E4B5B68F1
:103C100003F4FE437A6913437B612B4B5B6803F02B
:103C20007F037A6913437B613DE0274B5B6803F0B8
:103C3000FE431B0E1B027A6913437B61224B5B68B8
:103C400003F4FE031B0C7A6913437B612BE01E4BCC
:103C50009B6803F4FE437A6913437B611A4B9B68AC
:103C600003F07F037A6913437B611CE0164B9B686A
:103C700003F0FE431B0E1B027A6913437B61124B58
:103C80009B6803F4FE031B0C7A6913437B610AE013
:103C90000D4BDB6803F07F037A6913437B6102E01D
:103CA00000237B6100BFFB687A699A40BB681A43B6
:103CB0007B685A631C37BD465DF8047B704700BFC4
:103CC000FFFF80808080FFFFB081E00F80B584B06F
:103CD00000AF786039603B681B79FB72FB7A002B80
:103CE00006D11B48002100F081F80346FB7208E072
:103CF0001748002100F07AF84FF4FA40002100F054
:103D000075F87B680A225A603B681B781A063B6884
:103D1000DB781B0403F4FE031A43FB7A1B0203F453
:103D2000FE431A433B685B781B011A433B689B7850
:103D30001343FB603B685B79002B03D0FB6843F0C7
:103D40000803FB607B68FA681A601037BD4680BDC7
:103D5000405DC60080B584B000AF786039607B6894
:103D600002225A603B689B78786819460022FFF768
:103D70001DFF3B681B781A073B685B781B051A43DD
:103D80003B681B791B0213431A463B68DB781B0117
:103D90001343FB603B689B79002B03D0FB6843F027
:103DA0008073FB603B68DB79002B03D0FB6843F03A
:103DB0000403FB603B685B79002B03D0FB6843F096
:103DC0000203FB603B681B7A002B03D0FB6843F0C7
:103DD0000103FB603B689B781B04FA681343FB609C
:103DE0007B68FA68DA601037BD4680BD80B584B064
:103DF00000AF786039607A68134B9A4202D9124B4F
:103E00007B6006E07B68B3F5FA4F02D24FF4FA43C9
:103E10007B603B68002B03D10C4800F035FC386018
:103E20003A687B6813445A1E7B68B2FBF3F3FB606D
:103E3000FB68002B02D0FB68013BFB60FB68DBB238
:103E400018461037BD4680BD405DC6004081040065
:103E500080B582B000AF78607B68002B08D1114834
:103E600000F012FC78607B68002B01D101237B609D
:103E70007A680D4B9A4201D90B4B7B607B6803F546
:103E8000742303F23F237B607A68084BA3FB021381
:103E90009B0C7B607B68DBB2013BDBB218460837CA
:103EA000BD4680BD408104000048E80183DE1B431D
:103EB00080B487B000AFF860B9607A60FB6803F146
:103EC0000473DA00BB6813449B007B617B697A68EA
:103ED0001A601C37BD465DF8047B704780B485B01E
:103EE00000AF786039607B6803F10473DA003B68E7
:103EF00013449B00FB60FB681B6818461437BD46E3
:103F00005DF8047B704700BF80B485B000AF786077
:103F10007B68002B04D07B68B3F5004F00D800BF4E
:103F20007B68B3FA83F3C3F11F03FB60FB68184699
:103F30001437BD465DF8047B704700BF80B400AF06
:103F4000044BDB6C1B0EDBB21846BD465DF8047BF0
:103F5000704700BFB081E00F80B400AF054BDB6C51
:103F600003F47F031B0CDBB21846BD465DF8047BEF
:103F7000704700BFB081E00F80B582B000AFFFF79F
:103F8000EBFF03464A2B04D0792B02D0482B22D0DA
:103F900023E0144B1B699BB203F03F039BB21B024F
:103FA000FB80104B9B699BB203F0F0039AB2FB8835
:103FB0001343FB800B4BDB6903F0F0031B099AB240
:103FC000FB881343FB80FB88B3F5017F01D3064BCD
:103FD00004E0064B02E0054B00E0002318460837DA
:103FE000BD4680BDD0FF0FE000366E010048E801FD
:103FF00080B584B000AF786039607A683B689A42D7
:1040000094BF00230123DBB2FB6006481E21FA683F
:10401000FFF74EFF04480821FA68FFF749FF103701
:10402000BD4680BD00800C4004800C4080B582B04D
:1040300000AF07481E21FFF751FF786005480821AF
:10404000FFF74CFF38607B6818460837BD4680BDD7
:1040500000800C4004800C4080B582B000AF214B42
:104060005B6903F4E063B3F5007F1CD0B3F5007F18
:1040700005D8002B25D0B3F5807F1FD02AE0B3F5FB
:10408000C06F24D0B3F5E06F1ED0B3F5407F21D1CF
:10409000FFF754FF0346122B02D9134B7B601CE041
:1040A000124B7B6019E0FFF749FF0346122B02D940
:1040B0000F4B7B6011E00F4B7B600EE00E4B7B6083
:1040C0000BE00E4B7B6008E00D4B7B6005E00D4B79
:1040D0007B6002E000237B6000BF7B6818460837E6
:1040E000BD4680BD00800C40804F120040420F0052
:1040F00040B56400C0CF6A00C0D8A700809FD5003B
:10410000406F4001003FAB0180B582B000AF0D4869
:1041100000F0A6FB0346FB70FB78072B05D0082BAD
:1041200007D103F009F9786006E0FFF795FF7860A2
:1041300002E000237B6000BF7B6818460837BD465D
:1041400080BD00BF06000C0080B485B000AF786071
:10415000284BDB6B002B0CBF00230123BB72254BCC
:1041600041F67132DA63234B5B6803F00703FB60AF
:10417000FB68012B01D9042B02D10023FB7202E062
:104180000123FB7200BF7A681B4B9A4207D9FB7A66
:10419000002B01D0052300E00423FB6016E07A68C1
:1041A000154B9A420BD87A68144B9A4207D9FB7A7E
:1041B000002B01D0032300E00123FB6006E0FB7A23
:1041C000002B01D0022300E00023FB60094B094AC9
:1041D000526822F00701FA680A435A60BB7A002B42
:1041E00002D0044B0022DA631437BD465DF8047B2D
:1041F000704700BF00000C400048E8010024F400B4
:1042000080B500AF03F08EF803461846FFF79CFF19
:1042100080BD00BF90B585B000AF78600023BB6063
:104220007B68344A934203D0334A934200D000E083
:1042300000BF786800F014FB0346FB607B682D4AE2
:10424000934203D02C4A934206D00CE02B4B9B6A3E
:1042500003F00303FB6006E0284B9B6A03F00C03AA
:104260009B08FB6000BFFB68032B3AD801A252F801
:1042700023F000BFAB420000854200008D420000E9
:104280009542000003F0EAF8B8602DE003F0FAF878
:10429000B86029E003F02CF80446FFF7C7FE034698
:1042A000013324FA03F3BB601EE00023BB607A688D
:1042B000104B9A4203D07A680F4B9A4210D10F4BA1
:1042C0009A6A79680B4B994201D1102300E01423BC
:1042D00022FA03F3002B03D003F0CAF8B86003E01E
:1042E00002E00023BB6000BFBB6818461437BD4620
:1042F00090BD00BF0200180003001A0000800C40AF
:1043000080B483B000AF7860094B5B6D03F00103AC
:10431000002B00D006E000BF054B1A6D7B681340F0
:10432000002BF9D10C37BD465DF8047B704700BF08
:1043300000800C4080B582B000AF104800F090FAC9
:104340000346FB70FB78032B07D0082B09D0022B08
:104350000BD103F097F878600AE003F07FF87860FB
:1043600006E002F0E9FF786002E000237B6000BF16
:104370007B6818460837BD4680BD00BF0723200074
:10438000B0B584B000AF786039607B681B0903F07A
:104390000F03FB60FB68013B062B00F2F68001A2D5
:1043A00052F823F0C14300008B4500008B4500000C
:1043B000F54300001F44000073440000374500002F
:1043C0003B68002B03D03B68082B00D800BFFFF7E9
:1043D00017FF704B6F4A126822F4E0313A68013AD5
:1043E00092030A431A6002F083FFB860B868FFF7CF
:1043F000ABFECBE03B68002B04D03B68B3F5007FFD
:1044000000D800BF3868FFF77FFD3860614B614A14
:10441000926822F00F013A680A439A60B6E03B685E
:10442000002B04D03B68B3F5007F00D800BFFFF736
:10443000E7FE02F081FF02463B68B2FBF3F4FFF7B0
:104440009BFD034620461946FFF7D2FD3868FFF76B
:104450005BFD38604F4B4F4A526822F00F013A68BB
:104460000A435A6002F044FFB860B868FFF76CFE78
:104470008CE07B68484A93421ED0474A934203D857
:10448000464A934207D055E0454A934225D0454AD3
:1044900093423FD04EE00420FFF732FF3868FFF729
:1044A00033FD38603B4B3B4A926E22F0F0013A6894
:1044B00012010A439A663DE00420FFF721FF3868A5
:1044C000FFF722FD3860334B324A926E22F470615E
:1044D0003A6812020A439A662CE03B680F2B03D914
:1044E0003B68802B00D800BF0420FFF709FF386825
:1044F000FFF70AFD3860274C264B9B6E23F440558E
:104500001020FFF701FD03463A68D31A1B032B4323
:10451000A3660FE00420FFF7F3FE3868FFF7F4FC12
:1045200038601C4B1B4A926E22F003013A680A4322
:104530009A6600BF2AE07B681B4A934203D01B4A5D
:10454000934210D020E04020FFF7DAFE3868FFF7F2
:10455000DBFC38600F4B0F4A126F22F003013A6800
:104560000A431A6710E04020FFF7CAFE3868FFF7D9
:10457000CBFC3860074B074A126F22F030013A68D3
:1045800012010A431A6700BF00E000BF1037BD46A2
:10459000B0BD00BF00800C40602612006016100005
:1045A00060002400600628007007140070171600D1
:1045B00090B587B000AF78600B46FB7000233B617D
:1045C0007B681B0A03F00F03013B092B49D801A2AA
:1045D00052F823F0194600001F460000FD45000078
:1045E0006346000063460000254600002F46000099
:1045F0006346000063460000394600001B4B7B61A8
:104600001B4800F041F80446FFF7B6FC034620467D
:104610001946FFF7EDFC12E0164B7B610FE0164BDD
:104620007B610CE0154B7B6101233B6107E0144B80
:104630007B6110233B6102E0124B7B6100BF7B6812
:104640001B0B03F01F03FB603B69002B02D0386992
:10465000FFF756FEFB787869F9681A46FFF728FCE1
:1046600000E000BF1C37BD4690BD00BF40800C403D
:104670000043020008800C4044800C4058800C40ED
:1046800060800C4078800C4090B585B000AF7860B9
:104690007B6803F47813B3F5A01F00F0AB80B3F58B
:1046A000A01F1AD8B3F5402F00F0BF80B3F5402FFC
:1046B00008D8B3F5003F3CD0B3F5802F2DD0002BA8
:1046C00027D0BEE0B3F5801F3CD0B3F5901F47D094
:1046D000B3F5602F00F0AD80B3E0B3F5001F00F03C
:1046E000AC80B3F5001F0AD8B3F5C01F25D0B3F5D1
:1046F000D01F7AD0B3F5B01F00F08980A1E0B3F5E8
:10470000181F4ED0B3F5201F62D0B3F5101F35D05F
:1047100097E002F011FEF86096E002F00DFEF860FE
:104720004C4B9B6803F00F03FA6822FA03F3FB601B
:104730008AE002F0DDFDF86086E04748FFF76AFD99
:10474000F86081E04448FFF765FDF860414B9B6EDF
:1047500003F0F0031B09FA6822FA03F3FB6073E02D
:104760003D48FFF757FDF8603A4B9B6E03F47063CA
:104770001B0AFA6822FA03F3FB6065E03648FFF78C
:1047800049FDF860334B9B6E03F440531C0B102023
:10479000FFF7BAFB03462344FA6822FA03F3FB60EF
:1047A00052E02D48FFF736FDF8602A4B9B6E03F46C
:1047B00040531B0BFA6822FA03F3FB60254BDB6FB7
:1047C00003F007030133FA68B2FBF3F3FB603BE04D
:1047D0002148FFF71FFDF8601E4B9B6E03F003039B
:1047E000FA6822FA03F3FB602EE01C48FFF712FD83
:1047F000F86029E01948FFF70DFDF860154B1B6FB5
:1048000003F00303FA6822FA03F3FB601CE0134889
:10481000FFF700FDF8600F4B1B6F03F030031B091F
:10482000FA6822FA03F3FB600EE0FFF76DFCF86014
:104830000AE0FFF711FCF86006E0FFF77BFDF86087
:1048400002E00023FB6000BFFB6818461437BD463A
:1048500090BD00BF00800C400200180003001A0049
:1048600080B485B000AF78600123FB737B6803F0F0
:104870000F03BB60BB68013B062B00F2938001A2D3
:1048800052F823F0A1480000D74800001349000067
:10489000A5490000A54900004F49000071490000EA
:1048A000454BDB6A03F47053B3F5805F09D0B3F571
:1048B000005F03D0B3F5006F06D008E00223FB735E
:1048C00008E00323FB7305E00423FB7302E00523E8
:1048D000FB7300BF69E0384B9B6A03F00303022BB4
:1048E00006D0032B07D0012B08D10323FB730FE065
:1048F0000223FB730CE00623FB7309E02E4B9B6A3B
:1049000003F48033002B02D00923FB7300E000BFC7
:104910004BE0294B9B6A03F00C03082B06D00C2BB1
:1049200007D0042B08D10323FB730FE00223FB7392
:104930000CE00623FB7309E01F4B9B6A03F4801312
:10494000002B02D00923FB7300E000BF2DE01A4BBF
:104950001B6803F08053002B03D0B3F1805F03D0BA
:1049600023E00723FB7302E00823FB7300BF1CE076
:10497000114BDB6A03F46033B3F5803F08D0B3F525
:10498000003F08D0B3F5004F08D10823FB7308E0BF
:104990000223FB7305E00323FB7302E00123FB7397
:1049A00000BF02E00023FB7300BFFB7B18461437F7
:1049B000BD465DF8047B704700800C4090B589B01F
:1049C00000AF78600B46FB700323FB610323FB768B
:1049D00000233B617B6803F00F03FB60FB68013B36
:1049E000062B00F2348101A252F823F0094A00009C
:1049F000F54A0000F54A00004F4C00004F4C000003
:104A0000BD4B0000E74B0000FB78023B072B00F298
:104A1000228101A252F823F0394A0000434A0000E3
:104A20004D4A0000974A0000574C0000574C0000C8
:104A3000574C0000574C00000423FB610023FB7619
:104A400039E00323FB610123FB7634E00223FB61A1
:104A50000223FB76FFF790FA03465C1CFFF78CFA03
:104A6000034620461946FFF7C3FA02F0E5FC02466A
:104A70007C4B9A4206D97C4B7B4A126842F060021A
:104A80001A6018E0784B784A126822F0600242F00F
:104A900020021A600FE00123FB610323FB76FFF77E
:104AA0006BFA03465C1CFFF767FA0346204619467B
:104AB000FFF79EFA00BFFB7E18460121012200F09D
:104AC000F7F8FFF79DFB684BFA695A626748FFF7F2
:104AD000DBFD0446FFF750FA034620461946FFF770
:104AE00087FA00F01DFD02F003FCB860B868FFF71C
:104AF0002BFBADE0FB78013B082B00F2AE8001A25E
:104B000052F823F0294B00002F4B00003F4B0000D0
:104B10005B4C00005B4C00004F4B00005B4C000006
:104B20005B4C0000734B000000237B6126E00020FB
:104B30000121012200F0BCF802237B611EE001206C
:104B40000121012200F0B4F801237B6116E002F09C
:104B5000CFFBB860FFF710FA0346B8681946FFF7B5
:104B600047FA434804210122FFF7A2F903237B619E
:104B700004E000237B6101233B6100BFFB68022B43
:104B80000DD1394A384B9B6A23F4803323F0030359
:104B9000796919433B691B040B43936258E0324A1D
:104BA000314B9B6A23F4801323F00C03796989004D
:104BB00019433B691B050B43936249E0FB78072BC4
:104BC00002D0082B07D049E0274B274A126822F071
:104BD00080521A6006E0244B234A126842F0805249
:104BE0001A6000BF34E0FB78032B14D0082B22D0CE
:104BF000022B00D032E000200121012200F058F801
:104C0000194B40225A6200BF174BDB6A03F4803312
:104C1000002BF9D01AE001200121012200F048F810
:104C2000114B60225A6200BF0F4BDB6A03F4003362
:104C3000002BF9D00AE00C4B20225A6200BF0A4B2D
:104C4000DB6A03F40043002BF9D000BF00E000BF93
:104C5000FFF7ECF902E000BF00E000BF2437BD46DB
:104C600090BD00BF0048E80100800C4000430200F6
:104C700040800C4080B483B000AF78600B4B9B6DDC
:104C800003F00803002B00D00BE07B6803F0070360
:104C90007B60064B054AD26F22F007017A680A430F
:104CA000DA670C37BD465DF8047B704700800C4026
:104CB00080B586B000AF13460246FA710A46BA7153
:104CC0007B71FB79042B4AD801A252F823F000BF74
:104CD0001D4D00000F4D0000F34C0000E54C00009E
:104CE000014D000001233B610223FB6001237B6136
:104CF0001DE004233B610823FB6003237B6116E076
:104D000010233B612023FB6005237B610FE04023E0
:104D10003B618023FB6007237B6108E04FF48073D5
:104D20003B614FF40073FB6009237B6100BFBB79DB
:104D3000002B0ED00C4B3A691A627B79002B0BD0FA
:104D400000BF0A487969FFF7C9F80346002BF8D07D
:104D500002E0054BFA681A6200F0E2FB00E000BFD7
:104D60001837BD4680BD00BF00800C402C800C4031
:104D700080B483B000AF0346FB71084B97F907205E
:104D80005209F97901F01F01012000FA01F143F8FD
:104D900022100C37BD465DF8047B704700E100E04F
:104DA00080B483B000AF0346FB71094B97F907202D
:104DB0005209F97901F01F01012000FA01F12032B6
:104DC00043F822100C37BD465DF8047B704700BFE6
:104DD00000E100E080B483B000AF0346FB71094BF3
:104DE00097F907205209F97901F01F01012000FA13
:104DF00001F1603243F822100C37BD465DF8047BA8
:104E0000704700BF00E100E080B487B000AFF860F9
:104E1000B9607A60FB6803F10473DA00BB6813447D
:104E20009B007B617B697A681A601C37BD465DF820
:104E3000047B704780B489B000AF7860F970BA70B5
:104E40007B707B681A013C4B9B681344BB61BB7849
:104E5000002B02D0BB69FB6105E07B681A01364B71
:104E6000DB681344FB61BB69DB687B617B69002BFA
:104E700002D0BA787B691A72FB6A002B14D0FB69E6
:104E80009B6803F040639B0E3B613B69032B03D19E
:104E9000FB69FA6A1A6007E03B693A6B9A40FB6A61
:104EA00013441A46FB691A60BB6A002B12D0FB69D7
:104EB0009B689B0F3B613B69032B03D1FB69BA6A7B
:104EC0005A6007E03B693A6B9A40BB6A13441A4642
:104ED000FB695A607B68012202FA03F3FB607B786E
:104EE000002B03D0144BFA689A6102E0124BFA6867
:104EF000DA61BB78002B03D00F4BFA685A6302E0EB
:104F00000D4BFA681A63FB699B6823F47F5323F007
:104F10003703BB603B6B1B01BA681343BB60FB7874
:104F2000BA681343BB60FB69BA689A602437BD4610
:104F30005DF8047B704700BF00200C4080B58AB04C
:104F400000AF334B03F580531B68BB61304B03F557
:104F500080530C331B68BA691340BB612C4B9B6BAD
:104F60007B61BA697B6913403B620023FB6149E0C6
:104F700000237B623BE03B6A03F00103002B30D04F
:104F8000234B9B683B6101227B6A02FA03F3FB60BF
:104F90001F4B03F580530833FA681A607B6A1B01C4
:104FA0003A691344DB68BB60BB68002B19D0BB684F
:104FB0001B7A7B60BB681B7A83F00103DAB2BB68A3
:104FC0001A72BB681B68002B0BD0BB681B68786A21
:104FD0007A68002A0CBF00220122D1B2BA68526856
:104FE00098473B6A5B083B627B6A01337B623B6AA2
:104FF000002BC0D17B69DA43BB6913403B62FB697C
:105000000133FB61FB69012BB2DD2837BD4680BD52
:1050100000200C4080B588B004AFF8607B600B4680
:10502000FB721346BB72FA7ABB7A79680091B96950
:105030000191F9690291F8680121FFF7FBFE044B29
:10504000FA68012101FA02F29A621037BD4680BD6A
:1050500000200C4080B584B000AF786039601F4BF1
:105060009B68FB607B681B01FA6813443A6892688E
:10507000DA603B681B78002B06D0184B7A68012158
:1050800001FA02F29A6305E0144B7A68012101FAF1
:1050900002F2DA63114B3A6851687A6802F5886265
:1050A00043F822103B685B78002B0ED00B4B7A68DC
:1050B000012101FA02F203F5805308331A6008480F
:1050C00079680122FFF7A0FE04E005487968002214
:1050D000FFF79AFE1037BD4680BD00BF00200C4090
:1050E0000C300C4080B487B000AFF8600B467A609B
:1050F000FB72FB7A002B03D0154B9B687B6102E0AF
:10510000134BDB687B61FB681B017A6913447B618D
:105110007B681B789A077B689B781B071A437B6820
:105120005B789B061A437B689B781B0613431A46E1
:105130007B681B799B041A437B68DB789B031A43CB
:105140007B699A601C37BD465DF8047B704700BFE1
:1051500000200C4080B582B000AF7860104801217B
:10516000FFF726FA00F020F80020FFF733FE0020BA
:10517000FFF7FEFD0B4B03F580530C334FF000425D
:105180001A60084B7A6852689A60064B7A681278FF
:10519000520142F001025A600837BD4680BD00BF8F
:1051A0000003020000200C4080B582B000AF002058
:1051B000FFF7F6FD1C4B00225A601B4B40F6FF72B6
:1051C000DA61194B40F6FF725A62174B40F6FF72D4
:1051D000DA62154B40F6FF725A63134B40F6FF72CA
:1051E000DA63114B0122DA640F4B03F580530C3361
:1051F00000221A600C4B03F5805308330B4A1A60E7
:1052000000237B6009E0084B7A6802F58862002180
:1052100043F822107B6801337B607B680B2BF2DD47
:105220000837BD4680BD00BF00200C40FF0F008046
:1052300080B500AF02F05CF880BD00BF80B400AF65
:10524000034B0022C3F88420BD465DF8047B704701
:1052500000800C4080B400AF044B45F60E02C3F84A
:105260008420BD465DF8047B704700BF00800C4081
:1052700080B582B000AF384BD3F8843003F001031F
:105280007B60FFF7E7FF00233B60344B1B6803F0B4
:1052900001033A6813433B60304B1B6803F0100373
:1052A0003A6813433B602D4B1B6803F040033A6898
:1052B00013433B60294B1B6803F004033A68134314
:1052C0003B60264B1B6803F480733A6813433B60D2
:1052D000214B3A681A62214B1B6803F47053B3F5F3
:1052E000805F06D0B3F5005F0ED0B3F5006F16D027
:1052F00020E000BF184BDB6A03F08003002BF9D0DD
:10530000154B03225A6215E000BF134BDB6A03F40E
:105310000073002BF9D0104B04225A620AE000BF40
:105320000D4BDB6A03F00803002BF9D00A4B022275
:105330005A6200BF094B1B6803F00103002B02D126
:10534000054B02221A627B68002B01D0FFF776FF23
:105350000837BD4680BD00BF00800C4040030020E0
:1053600080B483B000AF174B1B699BB203F03F03BF
:105370009BB21B02FB80134B9B699BB203F0F003B3
:105380009AB2FB881343FB800E4BDB6903F0F003FA
:105390001B099AB2FB881343FB80FB88B3F5827F1D
:1053A00003D3FB88B3F5017F01D1012300E0002383
:1053B00003F00103DBB218460C37BD465DF8047BF1
:1053C000704700BFD0FF0FE080B586B000AF034646
:1053D000FB711F4BDA6A1F4B1A601F4B1E4A126982
:1053E00042F004021A61FFF7BBFF0346FB75FB7D29
:1053F000002B11D0194B1A68194B1340FB60174B47
:10540000FA68C3F88020154B5B6823F046033B61C4
:10541000124B3A69C3F8842030BFFB7D002B05D0C6
:105420000E4BFA681A600D4B3A695A60FB79002BF3
:1054300002D0FFF71DFF07E0064B1B6803F48063F3
:10544000002B01D1FFF7F4FE1837BD4680BD00BF29
:1054500000800C404003002000ED00E000E100E08F
:105460009CF1FD0080B586B000AF0346FB71274B71
:10547000DA6A274B1A60254BD3F8843003F0010316
:105480007B61FFF7E7FE214B4FF420721A627B69C4
:10549000002B01D0FFF7D2FE1E4B1E4A126942F0CC
:1054A00004021A61FFF75CFF0346FB74FB7C002BD0
:1054B00011D0194B1A68194B1340BB60164BBA68D0
:1054C000C3F88020144B5B6823F04603FB60124B4B
:1054D000FA68C3F8842030BFFB7C002B05D00E4B4C
:1054E000BA681A600C4BFA685A60FB79002B02D03C
:1054F000FFF7BEFE07E0064B1B6803F48063002B3A
:1055000001D1FFF795FE1837BD4680BD00800C40E5
:105510004003002000ED00E000E100E09CF1FD0010
:1055200080B400AF034BDA6A034B1A60BD465DF8E6
:10553000047B704700800C404003002080B487B09B
:1055400000AFF860B9607A60FB6803F10473DA00B9
:10555000BB6813449B007B617B697A681A601C37C7
:10556000BD465DF8047B704780B485B000AFF8603D
:10557000B9607A60FB681A68BB68DB431A407B68D5
:105580001A43FB681A601437BD465DF8047B704708
:1055900080B483B000AF03463960FB71FB79002B08
:1055A0000DD0FB79012B0AD0FB79022B07D0FB79B8
:1055B000032B04D0FB79042B01D0FB79052B094880
:1055C000FA793B68012101FA03F319461346DB001F
:1055D00013449B000344103359600C37BD465DF8FB
:1055E000047B70470060004080B483B000AF034686
:1055F0003960FB71FB79002B0DD0FB79012B0AD0B0
:10560000FB79022B07D0FB79032B04D0FB79042B09
:1056100001D0FB79052B0948FA793B68012101FA91
:1056200003F319461346DB0013449B000344103375
:1056300019600C37BD465DF8047B70470060004080
:1056400090B482B000AF02460B46FA71BB71FB7991
:10565000002B0ED0FB79012B0BD0FB79022B08D04D
:10566000FB79032B05D0FB79042B02D0FB79052BAA
:1056700003D1BB79032B00D800BF0C48FA790B4C3F
:10568000F9790B46DB000B449B0023441B6823F095
:105690000301BB7919431346DB0013449B00034409
:1056A00019600837BD4690BC704700BF00600040DD
:1056B00080B586B000AFB9607A600246FA73BB73FA
:1056C000FB7B002B0DD0FB7B012B0AD0FB7B022B3D
:1056D00007D0FB7B032B04D0FB7B042B01D0FB7B8F
:1056E000052BBB68072B0ED8BB689B0007229A408E
:1056F000F97BBB689B0001FA03F31A4811461A466E
:10570000FFF732FF10E0BB68083B7B617B699B00C1
:1057100007229A40F97B7B699B0001FA03F3124848
:1057200011461A46FFF720FFBB7B1048B9681A469E
:10573000FFF704FF97F820300D48B9681A46FFF7C5
:10574000FDFE0C4BBA68012101FA02F2C3F81C21DC
:1057500097F824300848B9681A46FFF7EFFE183763
:10576000BD4680BD0061004004610040086100400A
:105770000C610040006000401061004090B585B0B1
:1057800000AFB9607B600346FB731346BB73FB7BC2
:10579000002B0DD0FB7B012B0AD0FB7B022B07D00B
:1057A000FB7B032B04D0FB7B042B01D0FB7B052B65
:1057B000BB7B002B0DD07B68002B05D0FB7B1846F4
:1057C000B968FFF711FF04E0FB7B1846B968FFF7E3
:1057D000DFFEBB68072B1DD82B48FA7B2A4CF97BD0
:1057E0000B46DB000B449B0023445968BB689B00BD
:1057F0000F2404FA03F3DB431940BC7BBB689B0016
:1058000004FA03F319431346DB0013449B000344DB
:10581000596024E01C48FA7B1B4CF97B0B46DB00EB
:105820000B449B00234408331968BB6803F1804391
:10583000083B9B000F2404FA03F3DB431940BC7BB5
:10584000BB6803F18043083B9B0004FA03F3194350
:105850001346DB0013449B00034408331960BB7BF1
:10586000002B0DD17B68002B05D0FB7B1846B96857
:10587000FFF7BAFE04E0FB7B1846B968FFF788FE25
:105880001437BD4690BD00BF0060004080B487B0B3
:1058900000AFF860B9607A60FB6803F10473DA0066
:1058A000BB6813449B007B617B697A681A601C3774
:1058B000BD465DF8047B704780B485B000AFF860EA
:1058C000B9607A60FB681A68BB68DB431A407B6882
:1058D0001A43FB681A601437BD465DF8047B7047B5
:1058E00080B588B000AFF860B9607A60FB707B6803
:1058F000002B00D15EE0FB681B6823F44072FB685C
:105900001A60FA68FB781B0210464FF440711A4681
:10591000FFF7D2FFBB68002B03D12848FEF7B4FE87
:10592000B8604FF0FF33BB61FB681B6803F00203F4
:10593000002B11D0FB78012B07D0022B08D0002BB5
:1059400000D019E01E4BBB6105E01E4BBB6102E0BD
:105950001D4BBB6100BF0FE0FB78012B06D0022B73
:1059600007D0002B08D1194BBB6105E0184BBB6178
:1059700002E0184BBB6100BFFB78174AD35C7B6128
:105980007B689B00BA68D21A7B69796801FB03F3D4
:10599000B2FBF3F3013BFB61FB681B6803F00203FE
:1059A000002B04D0FB69002B01D10123FB61FA69B4
:1059B000FB681A612037BD4680BD00BF40810400EE
:1059C00040164000C0D8A7008050740180841E009B
:1059D00040548900002D3101FCA0000080B582B048
:1059E00000AF786039607A68174B9A4203D07A68C2
:1059F000164B9A4200D100BF7B6800225A637B6835
:105A0000134A1A637A683B685B78002B01D0002345
:105A100000E00123104601211A46FFF737FF3B68DB
:105A200059683B689A683B681B7B7868FFF758FFAA
:105A30007A683B681B78104600211A46FFF726FF5C
:105A40000837BD4680BD00BF00A0004000A4004054
:105A5000CFFF010080B489B000AF78607A689D4BB9
:105A60009A4203D07A689C4B9A4200D100BF7A6870
:105A7000984B9A4202D1994BBB6108E07A68964BE9
:105A80009A4202D1964BBB6101E0FC2300E2BB6964
:105A90009B687B617B689B6A3B613B6903F4C063E5
:105AA000002B14D03B6903F40073002B03D0BB69B7
:105AB000FD225A7007E03B6903F48063002B02D09B
:105AC000BB69FE225A70BB6909221A70CCE1BB691E
:105AD0001B78082B00F2C08101A252F823F000BF0E
